:100000000C9488000C94B0000C94B0000C94AC05D7
:100010000C94B0000C9451050C94B0000C949F0B00
:100020000C94B0000C94B0000C94920B0C94B000A3
:100030000C94B0000C94B0000C94B0000C94B00080
:100040000C94FB200C94B0000C948F220C94B00004
:100050000C94B0000C94B0000C94B0000C94B00060
:100060000C94B0000C94B000084AD73B3BCE016E14
:1000700084BCBFFDC12F3D6C74319ABD56833DDAFF
:100080003D00C77F11BED9E4BB4C3E916BAAAABE0E
:10009000000000803F05A84CCDB2D44EB93836A937
:1000A000020C50B9918688083CA6AAAA2ABE000074
:1000B00000803F00000000240027002A000000000C
:1000C00000250028002B0000000000230026002946
:1000D00000040404040404040402020202020203F1
:1000E00003030303030102040810204080010204FB
:1000F000081020010204081020000000070002017F
:1001000000000304060000000000000000001424AA
:1001100011241FBECFEFD8E0DEBFCDBF14E0A0E0BA
:10012000B1E0EEE5F3E502C005900D92A23FB10704
:10013000D9F716E0A2EFB4E001C01D92AF38B107C5
:10014000E1F711E0C0E1D1E004C02297FE010E9476
:10015000A929CE30D107C9F70E94F4200C94AD290B
:100160000C940000BF92CF92DF92EF92FF920F9318
:100170001F937B018C01FB010995B82EC8010196E4
:10018000F7010995C82EC8010296F7010995D82EE6
:10019000C8010396F7010995982F6B2D7C2D8D2DA5
:1001A0001F910F91FF90EF90DF90CF90BF90089537
:1001B000DF92EF92FF920F931F937B018C01FB0163
:1001C0000995D82EC8010196F7010995982F8D2D14
:1001D0001F910F91FF90EF90DF900895BF92CF9203
:1001E000DF92EF92FF920F931F93D52EC62EB72E5C
:1001F00079018C01642FF9010995C80101966D2DD3
:10020000F7010995C80102966C2DF7010995C801FF
:1002100003966B2DF70109951F910F91FF90EF90B9
:10022000DF90CF90BF900895DF92EF92FF920F93EF
:100230001F93D72E7A018C01FA010995C801019606
:100240006D2DF70109951F910F91FF90EF90DF90B1
:1002500008959C01F999FECF32BD21BDF89A80B571
:1002600008959C01F999FECF1FBA32BD21BD60BD32
:100270000FB6F894FA9AF99A0FBE08952F923F920A
:100280004F925F926F927F928F929F92AF92BF92A6
:10029000CF92DF92EF92FF920F931F931B012C01DD
:1002A0002DEC3CEC4CE45EE30E943C287B018C018D
:1002B00060917F0570918005809181059091820504
:1002C0000E9418279B01AC01C801B7010E943C287D
:1002D00020E030E04AE754E40E947F262091E605C2
:1002E0003091E7054091E8055091E9050E94B2255B
:1002F0003B014C01C201B10120E030E040E050E0A0
:100300000E94312818163CF4C201B1012CEC3CECDF
:100310004CEC5EE306C0C201B1012CEC3CEC4CECB1
:100320005EEB0E943C287B018C015B016C01D7FADB
:10033000D094D7F8D094C401B301A60195010E94CE
:10034000782688231CF4860175010AC0C401B30114
:10035000A80197010E943128181614F08401730136
:10036000E092E605F092E7050093E8051093E905B1
:10037000C201B1012AE939E949E15FE30E943C2861
:10038000A80197010E94B2251F910F91FF90EF9055
:10039000DF90CF90BF90AF909F908F907F906F90A5
:1003A0005F904F903F902F9008956F927F928F9221
:1003B0009F92AF92BF92CF92DF92EF92FF920F93F4
:1003C0001F933B014C01A0902E05B0902F05C090CB
:1003D0003005D0903105A60195010E943C287B0193
:1003E0008C0160917F0570918005809181059091CD
:1003F00082050E9418279B01AC01C801B7010E9429
:100400003C2820E030E04AE754E40E947F269B012C
:10041000AC01C601B5010E94B2257B018C0120E030
:1004200030E04AE754EC0E94782688235CF40F2ED3
:10043000F0E0EF2EF0E0FF2EFAE70F2FF4EC1F2F85
:10044000F02D14C0C801B70120E030E04AE754E4C1
:100450000E943128181654F40F2EF0E0EF2EF0E031
:10046000FF2EFAE70F2FF4E41F2FF02DE0922E0558
:10047000F0922F050093300510933105C401B301AC
:1004800023E333E343EB5EE30E943C28A80197019A
:100490000E94B2257B018C0120E030E44CE155EC58
:1004A0000E94782688235CF40F2EF0E0EF2EF0E413
:1004B000FF2EFCE10F2FF5EC1F2FF02D14C0C8010B
:1004C000B70120E030E44CE155E40E9431281816D1
:1004D00054F40F2EF0E0EF2EF0E4FF2EFCE10F2F8E
:1004E000F5E41F2FF02DC801B7010E943E011F91B6
:1004F0000F91FF90EF90DF90CF90BF90AF909F90C3
:100500008F907F906F900895AF92BF92CF92DF92BD
:10051000EF92FF920F931F935B016C0123E333E390
:1005200043EB5EE30E943C287B018C0160917F05D8
:100530007091800580918105909182050E94182715
:100540009B01AC01C801B7010E943C2820E030E0CB
:100550004AE754E40E947F2620913205309133050A
:1005600040913405509135050E94B2257B018C01E4
:1005700020E030E04AE754EC0E94782688235CF4BF
:100580000F2EF0E0EF2EF0E0FF2EFAE70F2FF4EC45
:100590001F2FF02D14C0C801B70120E030E04AE75A
:1005A00054E40E943128181654F40F2EF0E0EF2E78
:1005B000F0E0FF2EFAE70F2FF4E41F2FF02DE0926A
:1005C0003205F09233050093340510933505C601CA
:1005D000B50126E636E646E25FE30E943C28A80124
:1005E00097010E94B2251F910F91FF90EF90DF902D
:1005F000CF90BF90AF9008956F927F928F929F920D
:10060000AF92BF92CF92DF92EF92FF920F931F9320
:100610003B014C012AE037ED43E25DE30E943C28B8
:100620007B018C0160917F0570918005809181052F
:10063000909182050E9418279B01AC01C801B70167
:100640000E943C2820E030E04AE754E40E947F26E4
:100650002091E2053091E3054091E4055091E505D4
:100660000E94B2255B016C0120E030E040E050E0E8
:100670000E94782688235CF40F2EF0E0AF2EF0E085
:10068000BF2EF0E0CF2EF0E0DF2EF02D14C0C6011B
:10069000B50120E030E048E452E40E943128181609
:1006A00054F40F2EF0E0AF2EF0E0BF2EF8E4CF2E82
:1006B000F2E4DF2EF02DA092E205B092E305C092A5
:1006C000E405D092E505C401B30120E030E040E448
:1006D00050E40E943C287B018C01C401B3012AE054
:1006E00037ED43EA5EE30E943C289B01AC01C80160
:1006F000B7010E94B225A60195010E94B2255B01B7
:100700006C0120E030E040E050E00E947826882331
:100710005CF40F2EF0E0AF2EF0E0BF2EF0E0CF2E15
:10072000F0E0DF2EF02D14C0C601B50120E030E06E
:1007300040E251E40E943128181654F40F2EF0E0E4
:10074000AF2EF0E0BF2EF0E2CF2EF1E4DF2EF02D41
:100750006091E2057091E3058091E4059091E505D3
:1007600026E636E646E65FE30E943C287B018C01E4
:10077000C601B5012DEC3CEC4CEC5DE30E943C283D
:100780009B01AC01C801B7010E94B2256093E2054C
:100790007093E3058093E4059093E5050E94E726B6
:1007A000CB011F910F91FF90EF90DF90CF90BF9002
:1007B000AF909F908F907F906F900895AF92BF926F
:1007C000CF92DF92EF92FF920F931F935B016C0128
:1007D0002091BA043091BB044091BC045091BD04F7
:1007E0000E943C287B018C0160917F0570918005FF
:1007F00080918105909182050E9418279B01AC0190
:10080000C801B7010E943C2820E030E04AE754E4E8
:100810000E947F2620913A0530913B0540913C058E
:1008200050913D050E94B2257B018C0120E030E013
:100830004AE754EC0E94782688235CF40F2EF0E0FF
:10084000EF2EF0E0FF2EFAE70F2FF4EC1F2FF02D24
:1008500014C0C801B70120E030E04AE754E40E9428
:100860003128181654F40F2EF0E0EF2EF0E0FF2E92
:10087000FAE70F2FF4E41F2FF02DE0923A05F092E3
:100880003B0500933C0510933D05C601B501209141
:10089000B6043091B7044091B8045091B9040E9455
:1008A0003C28A80197010E94B2257B018C0120E021
:1008B00030EC4AE555EC0E94782688235CF40F2E34
:1008C000F0E0EF2EF0ECFF2EFAE50F2FF5EC1F2FE6
:1008D000F02D14C0C801B70120E030EC4AE555E422
:1008E0000E943128181654F40F2EF0E0EF2EF0EC91
:1008F000FF2EFAE50F2FF5E41F2FF02DC801B701E9
:100900002091B0043091B1044091B2045091B304ED
:100910000E943C281F910F91FF90EF90DF90CF90A5
:10092000BF90AF900895EF92FF920F931F93CF93D4
:10093000DF93C091E004D091E104CE01855A964046
:100940008B5F984048F560919A0470919B048827CA
:1009500077FD8095982F0E941A272DEC3CEC4CE4F3
:100960005FE30E943C287B018C01BE0180E090E0A7
:100970000E9418272DEC3CEC4CEC5DE30E943C28D7
:100980009B01AC01C801B7010E94B2250E94E72675
:1009900070939B0460939A04C091E204D091E304A5
:1009A000CE01855A96408B5F984048F560919C0433
:1009B00070919D04882777FD8095982F0E941A27B3
:1009C0002DEC3CEC4CE45FE30E943C287B018C0165
:1009D000BE0180E090E00E9418272DEC3CEC4CEC2E
:1009E0005DE30E943C289B01AC01C801B7010E9455
:1009F000B2250E94E72670939D0460939C04C091E9
:100A0000E404D091E504CE01855A96408B5F98406E
:100A100048F560919E0470919F04882777FD80952A
:100A2000982F0E941A2723E333E343E75FE30E94F2
:100A30003C287B018C01BE0180E090E00E941827D9
:100A40002DEC3CEC4CEC5CE30E943C289B01AC019F
:100A5000C801B7010E94B2250E94E72670939F0447
:100A600060939E0460919E0470919F04685E734041
:100A7000882777FD8095982F0E941A2720E030E084
:100A800040E05EE30E943C280E94E7267093060542
:100A900060930505DF91CF911F910F91FF90EF902B
:100AA00008951F920F920FB60F9211242F933F9328
:100AB0004F935F938F939F93409184005091850053
:100AC0004A9B08C081E08093D8055093D30540939A
:100AD000D20518C08091D8058130A1F41092D805B4
:100AE0002091D2053091D3054217530720F4CA0153
:100AF000805C934601C0CA01821B930B9093E10472
:100B00008093E0044B9B08C081E08093D90550930B
:100B1000D5054093D40515C08091D905813089F45D
:100B20001092D9058091D4059091D50548175907A1
:100B300010F4405C5346481B590B5093E304409318
:100B4000E2049F918F915F914F913F912F910F9070
:100B50000FBE0F901F9018951F920F920FB60F9215
:100B600011242F933F938F939F93809184009091B2
:100B700085001D9B05C09093D7058093D6050FC0B7
:100B80002091D6053091D7058217930710F4805C29
:100B90009346821B930B9093E5048093E4049F910A
:100BA0008F913F912F910F900FBE0F901F9018952E
:100BB000AF92BF92CF92DF92EF92FF920F931F936B
:100BC000E090D604F090D7040027F7FC0095102F92
:100BD0006091C6047091C7048091C8049091C904C3
:100BE00028E233E240E050E00E941829685D7C4230
:100BF00086449040A80197010E94782959016A0112
:100C00006091CA047091CB048091CC049091CD0482
:100C100028E233E240E050E00E941829685D7C42FF
:100C200086449040A80197010E947829A20EB31E25
:100C3000C41ED51E8FE1A81681EDB8068FEFC80639
:100C40008FEFD8062CF420E938EE4FEF5FEF1AC093
:100C500082EEA8168EE2B80680E0C80680E0D806CC
:100C60002CF020E737E140E050E00CC0C601B501B0
:100C700022E030E040E050E00E947829C901DA012A
:100C80009C01AD01B901CA011F910F91FF90EF9036
:100C9000DF90CF90BF90AF900895AF92BF92CF9268
:100CA000DF92EF92FF920F931F93E090D604F090A3
:100CB000D7040027F7FC0095102F6091C6047091AF
:100CC000C7048091C8049091C90428E233E240E04F
:100CD00050E00E941829685D7C4286449040A8013B
:100CE00097010E94782959016A016091CA047091A4
:100CF000CB048091CC049091CD0428E233E240E013
:100D000050E00E941829685D7C4286449040A8010A
:100D100097010E947829A21AB30AC40AD50A8FE162
:100D2000A81681EDB8068FEFC8068FEFD8062CF411
:100D300020E938EE4FEF5FEF1AC082EEA8168EE280
:100D4000B80680E0C80680E0D8062CF020E737E13E
:100D500040E050E00CC0C601B50122E030E040E0C8
:100D600050E00E947829C901DA019C01AD01B90166
:100D7000CA011F910F91FF90EF90DF90CF90BF902D
:100D8000AF900895AF92BF92CF92DF92EF92FF9211
:100D90000F931F935B016C016091F3047091F40455
:100DA000882777FD8095982F0E941A277B018C0158
:100DB000C601B50124EA3DE843EE5DEB0E943C2804
:100DC0009B01AC01C801B7010E94B2250E94E72631
:100DD0002091A6043091A704621773074CF040914C
:100DE000A8045091A9049B01461757070CF49A01D7
:100DF00083E0283E38071CF488EE93E007C0C90161
:100E000027E0813D920714F080ED97E09093A104D4
:100E10008093A004880F991F909389008093880085
:100E20001F910F91FF90EF90DF90CF90BF90AF9008
:100E30000895AF92BF92CF92DF92EF92FF920F93FD
:100E40001F935B016C0160919A0470919B04882749
:100E500077FD8095982F0E941A277B018C01C6018F
:100E6000B50124EA3DE843EE5DEB0E943C289B017E
:100E7000AC01C801B7010E94B2250E94E72620916B
:100E8000A6043091A704621773074CF04091A804A0
:100E90005091A9049B01461757070CF49A0183E06F
:100EA000283E38071CF488EE93E007C0C90127E00C
:100EB000813D920714F080ED97E09093A104809318
:100EC000A004880F991F90938900809388001F9138
:100ED0000F91FF90EF90DF90CF90BF90AF9008956B
:100EE000AF92BF92CF92DF92EF92FF920F931F9338
:100EF0005B016C016091F5047091F604882777FD21
:100F00008095982F0E941A277B018C01C601B5019C
:100F100024EA3DE843EE5DEB0E943C289B01AC01D6
:100F2000C801B7010E94B2250E94E7262091AA04B9
:100F30003091AB04621773074CF04091AC045091B0
:100F4000AD049B01461757070CF49A0183E0283E35
:100F500038071CF488EE93E007C0C90127E0813D03
:100F6000920714F080ED97E09093A3048093A2047D
:100F7000880F991F90938B0080938A001F910F9187
:100F8000FF90EF90DF90CF90BF90AF900895609169
:100F9000FD047091FE048091FF04909100050E9471
:100FA000C206609101057091020580910305909140
:100FB00004050E94700708956F927F928F929F920E
:100FC000AF92BF92CF92DF92EF92FF920F931F9357
:100FD0008091AE04833061F486ED96E0A0E0B0E04D
:100FE0008093260590932705A0932805B0932905A3
:100FF000609126057091270580912805909129051B
:101000002091D8043091D9044091DA045091DB0446
:10101000621B730B840B950B0E941A270E94D5014B
:101020006093FD047093FE048093FF049093000589
:1010300060912A0570912B0580912C0590912D05CA
:101040002091DC043091DD044091DE045091DF04F6
:10105000621B730B840B950B0E941A270E9484025B
:101060003B014C0160912605709127058091280570
:10107000909129050E941A275B016C012AE939E940
:1010800049E95EE30E943C287B018C0120E030E0CE
:1010900040E050E00E943128181654F0C601B50116
:1010A0002AE939E949E95EEB0E943C287B018C0181
:1010B000C401B301A80197010E94B2256093010504
:1010C0007093020580930305909304050E94C7075F
:1010D0006091B4047091B504675E7F4F882777FDF7
:1010E0008095982F2091CB053091CC054091CD056E
:1010F0005091CE05621B730B840B950B0E941A272F
:101100000E94FC02499690930605809305051F9165
:101110000F91FF90EF90DF90CF90BF90AF909F9096
:101120008F907F906F900895AF92BF92CF92DF9291
:10113000EF92FF920F931F935B016C0160919C04EF
:1011400070919D04882777FD8095982F0E941A271B
:101150007B018C01C601B50124EA3DE843EE5DEB5D
:101160000E943C289B01AC01C801B7010E94B22536
:101170000E94E7262091AA043091AB0462177307FE
:101180004CF04091AC045091AD049B0146175707B9
:101190000CF49A0183E0283E38071CF488EE93E0B3
:1011A00007C0C90127E0813D920714F080ED97E068
:1011B0009093A3048093A204880F991F90938B00AF
:1011C00080938A001F910F91FF90EF90DF90CF9056
:1011D000BF90AF9008956091FD047091FE048091DE
:1011E000FF04909100050E9419076091010570911C
:1011F000020580910305909104050E9494080895CA
:10120000AF92BF92CF92DF92EF92FF920F931F9314
:1012100060919A0470919B04882777FD8095982FA0
:101220000E941A277B018C016091F3047091F404F1
:10123000882777FD8095982F0E941A279B01AC0183
:10124000C801B7010E94B1257B018C0120E030E08C
:1012500040E050E00E943128181624F017FB10954A
:1012600017F91095C801B70120E030E048E453E4D5
:101270000E94782687FD0AC00F2EF0E0EF2EF0E0E6
:10128000FF2EF8E40F2FF3E41F2FF02D60E070E045
:1012900088E493E4A80197010E94B1255B016C01E9
:1012A0006091D8047091D9048091DA049091DB04A4
:1012B00090958095709561957F4F8F4F9F4F0E94BD
:1012C0001A270E94D5017B018C01C601B50120E0DF
:1012D00030E048E453E40E947F26A80197010E9471
:1012E0003C286093FD047093FE048093FF04909368
:1012F000000560919C0470919D04882777FD80957E
:10130000982F0E941A277B018C016091F50470913F
:10131000F604882777FD8095982F0E941A279B0155
:10132000AC01C801B7010E94B1257B018C0120E00E
:1013300030E040E050E00E943128181624F017FBFE
:10134000109517F91095C801B70120E030E048E486
:1013500053E40E94782687FD0AC00F2EF0E0EF2E9E
:10136000F0E0FF2EF8E40F2FF3E41F2FF02D60E0E4
:1013700070E088E493E4A80197010E94B1255B0125
:101380006C016091DC047091DD048091DE04909129
:10139000DF0490958095709561957F4F8F4F9F4F9B
:1013A0000E941A270E9484027B018C01C601B501AC
:1013B00020E030E048E453E40E947F26A801970132
:1013C0000E943C28609301057093020580930305F9
:1013D000909304050E94EB081F910F91FF90EF90EE
:1013E000DF90CF90BF90AF9008952F923F924F9291
:1013F0005F926F927F928F929F92AF92BF92CF92A5
:10140000DF92EF92FF920F931F938091AE0483308F
:1014100061F486ED96E0A0E0B0E08093260590931D
:101420002705A0932805B093290560919A0470912F
:101430009B04882777FD8095982F0E941A277B01AF
:101440008C016091F3047091F404882777FD8095F6
:10145000982F0E941A279B01AC01C801B7010E9476
:10146000B1257B018C0120E030E040E050E00E949B
:101470003128181624F017FB109517F91095C8019C
:10148000B70120E030E048EC53E40E94782687FD65
:101490000AC00F2EF0E0EF2EF0E0FF2EF8EC0F2F39
:1014A000F3E41F2FF02D60E070E088EC93E4A801D6
:1014B00097010E94B1255B016C0160912605709136
:1014C000270580912805909129052091D804309115
:1014D000D9044091DA045091DB04621B730B840B36
:1014E000950B0E941A270E94D5017B018C01C60131
:1014F000B50120E030E048EC53E40E947F26A801CB
:1015000097010E943C286093FD047093FE04809331
:10151000FF049093000560919C0470919D048827BE
:1015200077FD8095982F0E941A277B018C0160918E
:10153000F5047091F604882777FD8095982F0E9416
:101540001A279B01AC01C801B7010E94B1255B01BC
:101550006C0120E030E040E050E00E943128181695
:1015600024F0D7FAD094D7F8D094C601B50120E082
:1015700030E048EC53E40E94782687FD0AC00F2E25
:10158000F0E0AF2EF0E0BF2EF8ECCF2EF3E4DF2E2C
:10159000F02D60912A0570912B0580912C0590917A
:1015A0002D052091DC043091DD044091DE04509142
:1015B000DF04621B730B840B950B0E941A270E9499
:1015C00084021B012C0160912605709127058091F2
:1015D0002805909129050E941A273B014C012AE910
:1015E00039E949E95EE30E943C287B018C0120E057
:1015F00030E040E050E00E943128181654F0C40159
:10160000B3012AE939E949E95EEB0E943C287B01F4
:101610008C0160E070E088EC93E4A60195010E94E3
:10162000B12520E030E048EC53E40E947F26A2017F
:1016300091010E943C28A80197010E94B225609365
:1016400001057093020580930305909304050E94A1
:10165000EB086091B4047091B504675E7F4F8827F2
:1016600077FD8095982F2091CB053091CC05409146
:10167000CD055091CE05621B730B840B950B0E9418
:101680001A270E94FC02499690930605809305054F
:101690001F910F91FF90EF90DF90CF90BF90AF9090
:1016A0009F908F907F906F905F904F903F902F9082
:1016B00008958091F204823088F080910505909120
:1016C00006058432910514F083E290E097FF02C092
:1016D00080E090E090930605809305052091050534
:1016E000309106058091F7049091F804280F391F76
:1016F00023583F4F293831051CF489E890E006C093
:10170000C9012B3F310514F08AEF90E08093B300BC
:1017100063E0880F991F6A95E1F79093A504809381
:10172000A40408951F920F920FB60F9211241092E5
:10173000B200289A0F900FBE0F901F9018951F921D
:101740000F920FB60F92112428980F900FBE0F9092
:101750001F9018958091F2048530F9F0863038F4A6
:10176000813089F0813050F0823071F511C08730BE
:10177000F1F08730B8F0883039F520C08CE796E07A
:1017800060E071E018C08CE796E06CE071E013C097
:101790008CE796E06BE171E00EC08CE796E06CE2BE
:1017A00071E009C08CE796E06BE371E004C08CE760
:1017B00096E064E471E00E94A42408958CE796E02A
:1017C00060E571E00E94A42408950F931F930CE735
:1017D00016E0C80163E671E00E948524C80167E64F
:1017E00071E00E9485244091CB055091CC05609119
:1017F000CD057091CE05C8012AE030E00E94912508
:10180000C8016CE671E00E94852440910505509165
:101810000605662757FD6095762FC8012AE030E05F
:101820000E949125C80162E771E00E9485246091C1
:10183000D8047091D9048091DA049091DB0424E6F5
:1018400030E040E050E00E947829C801BA01A901C7
:101850002AE030E00E949125C80168E771E00E940B
:1018600085246091DC047091DD048091DE04909108
:10187000DF0424E630E040E050E00E947829C8010F
:10188000BA01A9012AE030E00E949125C8016EE763
:1018900071E00E94A4241F910F9108950F931F934C
:1018A0000CE716E0C80163E871E00E948524C801D6
:1018B00067E871E00E9485246091AD057091AE05E6
:1018C0008091AF059091B0052AE030E040E050E013
:1018D0000E947829C801BA01A9012AE030E00E94DB
:1018E0009125C8016CE871E00E9485246091B105E2
:1018F0007091B2058091B3059091B4052AE030E073
:1019000040E050E00E947829C801BA01A9012AE00C
:1019100030E00E949125C80162E971E00E948524AF
:1019200060910705709108058091090590910A055D
:1019300020E030E048EC52E40E947F260E94E72637
:10194000AB01BC01C8012AE030E00E949125C8012A
:1019500068E971E00E94852460910B0570910C0587
:1019600080910D0590910E050E94E726AB01BC0108
:10197000C8012AE030E00E949125C8016EE971E0BB
:101980000E9485248091B5059091B60520919D0512
:1019900030919E05821B930B64E670E00E94432900
:1019A000AB01662757FD6095762FC8012AE030E02D
:1019B0000E949125C80164EA71E00E94852460912B
:1019C000C1057091C2058091C3059091C40524E6BC
:1019D00030E040E050E00E947829C801BA01A90136
:1019E0002AE030E00E949125C8016AEA71E00E9475
:1019F00085246091110570911205809113059091D5
:101A0000140524E630E040E050E00E947829C80147
:101A1000BA01A9012AE030E00E949125C80160EBDB
:101A200071E00E94852460911505709116058091E2
:101A300017059091180524E630E040E050E00E9440
:101A40007829C801BA01A9012AE030E00E94912555
:101A5000C80166EB71E00E94852440918C0550E03E
:101A600060E070E0C8012AE030E00E949125C801E2
:101A70006CEB71E00E9485244091830550918405B0
:101A80006091850570918605C8012AE030E00E94CA
:101A90009125C80162EC71E00E9485246091C50522
:101AA0007091C6058091C7059091C8050E94E726F0
:101AB000AB01BC01C8012AE030E00E949125C801B9
:101AC00068EC71E00E9485246091FD047091FE0431
:101AD0008091FF049091000520E030E048EC52E452
:101AE0000E947F260E94E726AB01BC01C8012AE0C4
:101AF00030E00E949125C8016EE771E00E94A424A5
:101B00001F910F910895F999FECFF999FECF89E0C1
:101B100090E092BD81BDF89A80B580938B058CE7EB
:101B200096E06EEC71E00E94852440918B0550E0B8
:101B300060E070E08CE796E02AE030E00E94A625A5
:101B4000F999FECFF999FECF12BC11BCF89A80B575
:101B50008093FC048CE796E068ED71E00E94852498
:101B60004091FC0450E060E070E08CE796E022E0F9
:101B700030E00E94A625F999FECFF999FECF8BE0BF
:101B800090E092BD81BDF89A80B58093AF048CE758
:101B900096E061EE71E00E9485244091AF0450E030
:101BA00060E070E08CE796E02AE030E00E94A62535
:101BB0000895EF92FF920F931F930CE716E0C80170
:101BC0006CEE71E00E94852476EFE72E71E0F72E2F
:101BD000C801B7010E9485244091A1055091A2053A
:101BE0006091A3057091A405C8012AE030E00E942D
:101BF0009125C801B7010E9485244091A505509107
:101C0000A6056091A7057091A805C8012AE030E0FB
:101C10000E949125C801B7010E9485244091A90521
:101C20005091AA056091AB057091AC05C8012AE0FE
:101C300030E00E94A625C80168EF71E00E9485246B
:101C4000C801B7010E9485244091B9055091BA0599
:101C50006091BB057091BC05C8012AE030E00E948C
:101C60009125C801B7010E9485244091BD0550917E
:101C7000BE056091BF057091C005C8012AE030E043
:101C80000E949125C801B7010E9485244091C10599
:101C90005091C2056091C3057091C405C8012AE046
:101CA00030E00E94A6251F910F91FF90EF900895BC
:101CB000823079F0833018F48130C9F505C0833063
:101CC000D1F08430A1F52BC08CE796E061E072E0A2
:101CD00004C08CE796E06DE072E00E94852440919C
:101CE0008C0550E060E070E08CE796E02AE030E0A0
:101CF0000E94A62508958CE796E06EE172E00E94AE
:101D0000852440918C0550E060E070E08CE796E01F
:101D10002AE030E00E94A6250E94D90D08958CE7A4
:101D200096E06FE272E00E94A4240E94D90D08950B
:101D30004F925F926F927F928F929F92AF92BF92DB
:101D4000CF92DF92EF92FF920F931F93CF93DF9387
:101D50006C016115710509F5F999FECF8EE090E0EF
:101D600069E271E00E94B200762E672E582E492E4D
:101D7000F999FECF82E190E069E271E00E94B20041
:101D8000B62EA72E982E892EF999FECF8CE090E0E2
:101D900069E271E00E94D8003DC0EB01F3E0CC0F96
:101DA000DD1FFA95E1F7660F771FC60FD71F2E9636
:101DB000F999FECFCE0169E271E00E94B200762E61
:101DC000672E582E492E7E010027F7FC0095102F14
:101DD00084E090E0A0E0B0E0E80EF91E0A1F1B1FAF
:101DE000F999FECFC70169E271E00E94B200B62EF8
:101DF000A72E982E892EF999FECF84E090E0A0E0DE
:101E0000B0E0E80EF91E0A1F1B1FC70169E271E06E
:101E10000E94D8007C0100E010E0672D762D852D12
:101E2000942D2AE030E040E050E00E941829D601CD
:101E30006D937D938D939C9313976B2D7A2D892DA4
:101E4000982D0E941829F6016483758386839783F1
:101E5000C801B70124E630E040E050E00E941829B4
:101E6000D60118966D937D938D939C931B97C60115
:101E7000DF91CF911F910F91FF90EF90DF90CF9066
:101E8000BF90AF909F908F907F906F905F904F909A
:101E9000089541E351E00E94140108954F925F922A
:101EA0006F927F928F929F92AF92BF92CF92DF926A
:101EB000EF92FF920F931F93DF93CF93CDB7DEB7CF
:101EC0002C970FB6F894DEBF0FBECDBFC982DA8261
:101ED000EB82FC820D831E832F83388749875A87C4
:101EE0006B877C8769817A818B819C812AE030E0D5
:101EF00040E050E00E947829122F032FF42EE52EA7
:101F00006D817E818F8198852AE030E040E050E04D
:101F10000E947829922E832E742E652E69857A85EB
:101F20008B859C8524E630E040E050E00E947829D3
:101F3000522E432EA114B104E9F4F999FECF8EE09C
:101F400090E0412F502F6F2D7E2D21E331E00E9434
:101F5000EE00F999FECF82E190E0492D582D672DD2
:101F6000762D21E331E00E94EE00F999FECF8CE05E
:101F700090E03CC06501B3E0CC0CDD1CBA95E1F704
:101F8000AA0CBB1CCA0CDB1C8EE090E0C80ED91E4C
:101F9000F999FECFC601412F502F6F2D7E2D21E3E1
:101FA00031E00E94EE00F999FECF76010027F7FCA0
:101FB0000095102F84E090E0A0E0B0E0E80EF91E5C
:101FC0000A1F1B1FC701492D582D672D762D21E3B0
:101FD00031E00E94EE00F999FECF84E090E0A0E0AD
:101FE000B0E0E80EF91E0A1F1B1FC701652D742DF6
:101FF0000E94490F2C960FB6F894DEBF0FBECDBFDE
:10200000CF91DF911F910F91FF90EF90DF90CF90D4
:10201000BF90AF909F908F907F906F905F904F9008
:102020000895AF92BF92CF92DF92EF92FF920F93FB
:102030001F93DF93CF93CDB7DEB72C970FB6F894ED
:10204000DEBF0FBECDBFA5E9B5E0EDEAF5E08CE05F
:1020500001900D928150E1F7CE010196C090950557
:10206000D0909605E0909705F0909805009199051D
:1020700010919A0520919B0530919C0540919D05FA
:1020800050919E0560919F057091A005AA24BB24E4
:102090000E944E0FA1EAB5E0E5E9F5E08CE0019081
:1020A0000D928150E1F781E080938C052C960FB65C
:1020B000F894DEBF0FBECDBFCF91DF911F910F917E
:1020C000FF90EF90DF90CF90BF90AF900895EF9288
:1020D000FF920F931F932091B5053091B605809123
:1020E0009D0590919E05281B390B809123059091A9
:1020F0002405821793077CF430932405209323054D
:10210000F999FECFC90164E670E00E94432985E099
:1021100090E00E94490FE0900705F09008050091BB
:10212000090510910A056091250570E0882777FD63
:102130008095982F0E941A279B01AC01C801B70116
:102140000E943128181694F4C801B7010E94EC26A9
:10215000862F60932505F999FECF64E60E94372902
:10216000682F87E090E070E00E94490F1F910F9167
:10217000FF90EF90089586ED93E069E271E00E9490
:10218000D800F999FECF843691050CF068C0F99912
:10219000FECFF999FECF1FBA87EE93E092BD81BDC5
:1021A00010BC0FB6F894FA9AF99A0FBEF999FECFBF
:1021B000F999FECF1FBA86EE93E092BD81BD10BCA7
:1021C0000FB6F894FA9AF99A0FBEF999FECF81E00A
:1021D00090E06AEF70E00E94490FF999FECF84EE1B
:1021E00093E068EC70E00E94490FF999FECF86ED0C
:1021F00093E06CED75E00E94490FF999FECF88EDF0
:1022000093E06CED75E00E94490FF999FECF8AEDDD
:1022100093E060E074E00E94490FF999FECF8CEDE5
:1022200093E06CE474E00E94490FF999FECF8EEDC3
:1022300093E06CE677E00E94490FF999FECF80EEBB
:1022400093E06CE474E00E94490FF999FECF82EEAE
:1022500093E06CE677E00E94490FF999FECF08956C
:10226000F999FECF6091C9057091CA0581E090E0AF
:102270000E94490FF999FECF6091D6047091D7045E
:1022800084EE93E00E94490FF999FECF6091F30428
:102290007091F40486ED93E00E94490FF999FECF06
:1022A0006091F5047091F60488ED93E00E94490F67
:1022B000F999FECF60919804709199048AED93E0AA
:1022C0000E94490FF999FECF6091A6047091A7046E
:1022D0008CED93E00E94490FF999FECF6091A8041C
:1022E0007091A9048EED93E00E94490FF999FECFF9
:1022F0006091AA047091AB0480EE93E00E94490FB4
:10230000F999FECF6091AC047091AD0482EE93E038
:102310000E94490FF999FECF089587E061E00E947D
:10232000F3210895282F8091840090918500805298
:102330009E44C8F3222349F084E061E00E94D32147
:1023400084E061E00E94F321089584E060E00E944F
:10235000F32184E060E00E94D32108951F9310913F
:102360006C05113009F008C180916D05833009F4C6
:1023700095C0823109F4A6C0823009F0FDC0809179
:10238000AE04882309F0F8C080913E058093730560
:1023900080913F0580937405809140058093750579
:1023A0008091410580937605809173059091740525
:1023B000A0917505B09176058093680590936905A5
:1023C000A0936A05B0936B058091420580937305D5
:1023D0008091430580937405809144058093750531
:1023E00080914505809376058091730590917405E1
:1023F000A0917505B09176058093B1059093B205D3
:10240000A093B305B093B4058091460580937305FE
:1024100080914705809374058091480580937505E8
:10242000809149058093760580917305909174059C
:10243000A0917505B09176058093AD059093AE059A
:10244000A093AF05B093B00580914E0580937305BE
:1024500080914F0580937405809150058093750598
:102460008091510580937605609173057091740594
:1024700080917505909176052AE030E040E050E0CB
:102480000E9478292093B5053093B6054093B7058F
:102490005093B80580910F0581606CC08091420512
:1024A000833048F01092AE048CE061E00E94F3218A
:1024B0001093100561C01093AE048CE060E00E94A0
:1024C000F3215AC08091AE04882309F055C0809151
:1024D0005205809373058091530580937405809114
:1024E000540580937505809155058093760560911C
:1024F00073057091740580917505909176050E9421
:102500001A27609307057093080580930905909337
:102510000A0520E030E040EF52E40E943128882391
:1025200034F180915605809373058091570580930F
:1025300074058091580580937505809159058093A5
:102540007605609173057091740580917505909181
:10255000760528EE33E040E050E00E947829209391
:102560001105309312054093130550931405809183
:102570000F05826080930F051F910895EF92FF92DF
:102580000F931F9381E00E94921118E8E12EF12C25
:1025900080E89CE0F701918380830AE810E0F8016D
:1025A0009183808360E971E080E090E00E94512196
:1025B00080EF9AE0F70191838083F8019183808313
:1025C00068EC70E080E090E00E94512188EB9BE095
:1025D000F70191838083F8019183808380E00E94DA
:1025E00092111F910F91FF90EF900895CF93DF9379
:1025F00080E280936B008CE080936D0084E0809398
:1026000068008091680081608093680081E090E0BC
:102610009093F8048093F70408C00E94930464E147
:1026200070E080E090E00E94512180919A049091A6
:102630009B04845893403CF480919C0490919D04A9
:102640008458934054F3C0E0D0E064E170E080E04F
:1026500090E00E9451210E9493042196C436D10536
:10266000A1F720919A0430919B043093F4042093B5
:10267000F30440919C0450919D045093F6044093C0
:10268000F50480919E0490919F0490939904809307
:102690009804285E33401CF0485E534034F48CE7C5
:1026A00096E064E672E00E94A4248091F304909185
:1026B000F40423E0863B92071CF486EB93E006C00B
:1026C00028E08330920714F082E098E09093F404BD
:1026D0008093F3048091F5049091F60423E0863B07
:1026E00092071CF486EB93E006C028E08330920743
:1026F00014F082E098E09093F6048093F5046091E2
:1027000098047091990483E0663B78071CF426EBEB
:1027100033E007C09B0188E06330780714F022E0C3
:1027200038E030939904209398042253304030933A
:10273000FA042093F904265B3340B901882777FD1A
:102740008095982F0E941A2720E030E040E05EE359
:102750000E943C280E94E7266E37710514F06DE751
:1027600070E077FF02C060E070E07093F80460935F
:10277000F70480919E0490919F04845F9140A4F49B
:102780008CE796E065E772E00E94852440919E0404
:1027900050919F04662757FD6095762F8CE796E051
:1027A0002AE030E00E94A625DF91CF91089584E0D1
:1027B0000E944022019711F081E0089585E00E9477
:1027C0004022019711F083E0089582E008950E946D
:1027D000D7138093CF058093D0050895EF92FF9291
:1027E0000F931F93CF93DF9383E00E94B521AA2715
:1027F00097FDA095BA2FBC01CD010E941A276093C6
:10280000D2047093D3048093D4049093D504C0E091
:10281000D0E06091D2047091D3048091D40490915F
:10282000D50426E636E646E65FE30E943C287B01B7
:102830008C0183E00E94B521AA2797FDA095BA2FAD
:10284000BC01CD010E941A272DEC3CEC4CEC5DE361
:102850000E943C289B01AC01C801B7010E94B2252F
:102860006093D2047093D3048093D4049093D504DE
:102870002196C035D10569F60E94E7267093CA05F6
:102880006093C905DF91CF911F910F91FF90EF9059
:102890000895EF92FF920F931F9382E00E94B5215B
:1028A000AA2797FDA095BA2FBC01CD010E941A2737
:1028B0002AE037ED43E25CE30E943C287B018C0177
:1028C0006091CE047091CF048091D0049091D10496
:1028D0000E941A2724EA30E74DE75FE30E943C2874
:1028E0009B01AC01C801B7010E94B2250E94E726F6
:1028F0009B01AC016093CE047093CF048093D0040D
:102900009093D1048091D8049091D904A091DA04D5
:10291000B091DB0488519C4FAF4FBF4F815D974012
:10292000A040B040F0F48FEF91E0A0E0B0E0821B57
:10293000930BA40BB50B181619061A061B062CF4DC
:102940008FEF91E0821B930B03C0C9018F5F914011
:102950008832910514F488E290E09093D704809334
:10296000D6041F910F91FF90EF900895EF92FF9280
:102970000F931F9380E00E94B521AA2797FDA09591
:10298000BA2F8093C6049093C704A093C804B09351
:10299000C90481E00E94B521AA2797FDA095BA2F0E
:1029A0008093CA049093CB04A093CC04B093CD043D
:1029B0000E94D8056093D8047093D9048093DA04F8
:1029C0009093DB040E944D066093DC047093DD0459
:1029D0008093DE049093DF0480E090E0A0E8BFE302
:1029E0008093B0049093B104A093B204B093B30465
:1029F00083E00E94B521AA2797FDA095BA2FBC01BC
:102A0000CD010E941A272DEC3CEC4CEC5DE30E94BA
:102A10003C287B018C016091D2047091D304809199
:102A2000D4049091D50426E636E646E65FE30E949C
:102A30003C289B01AC01C801B7010E94B2256093FC
:102A4000D2047093D3048093D4049093D5040E944D
:102A5000E7262091C9053091CA05621B730B8827B0
:102A600077FD8095982F6093CB057093CC0580936C
:102A7000CD059093CE050E941A277B018C0120E0A2
:102A800030E040E451E40E94782688235CF40F2E65
:102A9000F0E0EF2EF0E0FF2EF0E40F2FF1E41F2F17
:102AA000F02D14C0C801B70120E030E048EC51E43B
:102AB0000E943128181654F40F2EF0E0EF2EF0E0AB
:102AC000FF2EF8EC0F2FF1E41F2FF02DC801B701F6
:102AD00020E030E040E451E40E94B12520E030E005
:102AE00040E551E40E947F2620E030E040E05FE3D3
:102AF0000E943C2820E030E040E05FE30E94B225E5
:102B00006093B0047093B1048093B2049093B304C3
:102B10001F910F91FF90EF9008950E94EE130E9475
:102B2000B6140E9449140895BF92CF92DF92EF929B
:102B3000FF920F931F93DF93CF93CDB7DEB72C9700
:102B40000FB6F894DEBF0FBECDBFF82E8CE796E02F
:102B500062E872E00E9485244F2D50E060E070E052
:102B60008CE796E02AE030E00E94A6258E010F5FF8
:102B70001F4FC80160E070E00E94980E8CE796E05D
:102B80006DE872E00E94852449815A816B817C81C5
:102B90008CE796E02AE030E00E9491258CE796E0F1
:102BA00066EF71E00E9485244D815E816F8178859A
:102BB0008CE796E02AE030E00E9491258CE796E0D1
:102BC00066EF71E00E94852449855A856B857C8576
:102BD0008CE796E02AE030E00E94A62581E0C82E2E
:102BE000D12CEF2CFF24B02E012F43C08B2D902F22
:102BF000B6010E94980E8CE796E065E972E00E94AB
:102C000085248CE796E0B6010E9479258CE796E052
:102C100066EF71E00E94852449815A816B817C8135
:102C20008CE796E02AE030E00E9491258CE796E060
:102C300066EF71E00E9485244D815E816F81788509
:102C40008CE796E02AE030E00E9491258CE796E040
:102C500066EF71E00E94852449855A856B857C85E5
:102C60008CE796E02AE030E00E94A6250894C11C7B
:102C7000D11CEC14FD040CF0B9CF2C960FB6F894CF
:102C8000DEBF0FBECDBFCF91DF911F910F91FF909F
:102C9000EF90DF90CF90BF9008950F931F930CE7B4
:102CA00016E0C8016AE972E00E94852460919A04E6
:102CB00070919B04C8010E947925C8016DE972E0FA
:102CC0000E94852460919C0470919D04C8010E941B
:102CD0007925C80161EA72E00E94852460919E0412
:102CE00070919F04C8010E9481251F910F91089542
:102CF000AF92BF92CF92DF92EF92FF920F931F930A
:102D00005C016B01FB016081718182819381F5011E
:102D10002081318142815381621B730B840B950B9F
:102D20000E941A27209191053091920540919305B8
:102D3000509194050E943C280E94E726909580952A
:102D4000709561957F4F8F4F9F4F0E941A277B018F
:102D50008C01F6016481758186819781F50124815A
:102D6000358146815781621B730B840B950B0E9442
:102D70001A279B01AC01C801B7010E94252620EA51
:102D80003CE043EB55E40E943C2820E030EA4CE074
:102D900056E40E94B2250E94E7269B01AC0197FFF2
:102DA00004C0205633474F4F5F4FB901CA011F91EE
:102DB0000F91FF90EF90DF90CF90BF90AF9008956C
:102DC0008DEA95E069EB75E00E94781660931D0529
:102DD00070931E0580931F059093200508956F92B0
:102DE0007F928F929F92AF92BF92CF92DF92EF929B
:102DF000FF920F931F933C014B01FB016081718196
:102E0000828193810E941A277B018C01F3016081EA
:102E10007181828193810E941A279B01AC01C801B4
:102E2000B7010E94B1255B016C01F40164817581D9
:102E3000868197810E941A277B018C01F3016481AE
:102E40007581868197810E941A279B01AC01C80178
:102E5000B7010E94B12520918D0530918E054091DA
:102E60008F05509190050E943C287B018C01C60182
:102E7000B501A60195010E943C285B016C01C801C7
:102E8000B701A80197010E943C289B01AC01C60133
:102E9000B5010E94B2250E94A32828EC32E646E341
:102EA0005CE30E943C280E94E7269B01AC01CA011A
:102EB0001F910F91FF90EF90DF90CF90BF90AF9058
:102EC0009F908F907F906F90089581EA95E069EBD5
:102ED00075E00E94EF1660938705709388058093D4
:102EE000890590938A056091B9057091BA05809122
:102EF000BB059091BC0597FF07C090958095709594
:102F000061957F4F8F4F9F4F0E941A2720E836E927
:102F100048E15BE40E947F2625E33AEF4EE85CE35C
:102F20000E943C280E947C269B01AC0160938D0589
:102F300070938E0580938F059093900560E070E00C
:102F400080E89FE30E947F2660939105709392052D
:102F500080939305909394050E94E0160895109233
:102F600097048091F204873099F4A9EBB5E0EDEA7B
:102F7000F5E08CE001900D928150E1F7A1EAB5E017
:102F8000EDEAF5E08CE001900D928150E1F709C087
:102F9000A1EAB5E0EDEAF5E08CE001900D928150F8
:102FA000E1F70E94651708950F931F93DF93CF9366
:102FB000CDB7DEB72C970FB6F894DEBF0FBECDBFEE
:102FC000A1EAB5E0EDEAF5E08CE001900D928150C8
:102FD000E1F760918C058E010F5F1F4FC80170E013
:102FE0000E94980EA9EBB5E0F8018CE001900D92DB
:102FF0008150E1F780919D0590919E05A0919F05DC
:10300000B091A0052091C1053091C2054091C30542
:103010005091C405820F931FA41FB51F8093C10553
:103020009093C205A093C305B093C40583E00E94AA
:10303000580E0E9465172C960FB6F894DEBF0FBE8F
:10304000CDBFCF91DF911F910F9108958CE796E04E
:1030500065E273E00E94A42481E080938C050E94C5
:10306000D417089510928C05F999FECFF999FECFE7
:103070001FBA8AE090E092BD81BD10BC0FB6F894F3
:10308000FA9AF99A0FBE0E94D4178091FC0483FF2C
:1030900011C08091B5059091B605A091B705B0918A
:1030A000B8058093C1059093C205A093C305B09362
:1030B000C4050895F999FECF86E190E069E271E0D8
:1030C0000E94D800AA2797FDA095BA2FBC01CD0178
:1030D00024E630E040E050E00E94182920919D0550
:1030E00030919E0540919F055091A005260F371FF6
:1030F000481F591F2093C1053093C2054093C30553
:103100005093C40508958093F204863011F40E9410
:1031100032180E94AA0B0895823031F0833041F0BA
:10312000813049F480E001C085E00E948318089551
:1031300085E00E94831808958091FB04813071F42A
:103140008CE796E066E473E00E94A4248091F20488
:10315000853050F486E00E94831808958CE796E04D
:103160006CE573E00E94A4240895982F8091FB04DD
:10317000891719F19093FB04992319F40E944919B6
:1031800012C08091F2048530B0F4913061F484E093
:1031900061E00E94D32184E061E00E94F32186E097
:1031A0000E94831808C084E060E00E94F32184E05C
:1031B00060E00E94D3210E949C18089520919E04F3
:1031C00030919F048091F9049091FA044091D105C7
:1031D00028173907ECF4842F8F5F8093D10589304D
:1031E00031F48CE796E063E773E00E94A4248091B9
:1031F000D1058B3030F081E00E94B5188AE08093D1
:10320000D10589E190E09093060580930505089526
:103210004423A1F0842F81508093D105882331F479
:103220008CE796E06DE873E00E94A4248091D105BC
:10323000882321F40E94B5181092D10508951F9398
:103240000E94D713182F8091D005811701F180912A
:10325000FB04882319F080E00E94B518812F0E949A
:103260008C181093D00580E090E0A0E0B0E080934F
:10327000360590933705A0933805B09339058093B0
:103280003A0590933B05A0933C05B0933D051F91F3
:1032900008951092D0050E941F1908951F938091E0
:1032A000F204863021F487E00E9483186CC08530D8
:1032B00009F069C080918C058F5F80938C05909197
:1032C0008B05981708F038C0F999FECFF999FECF11
:1032D00086EE93E092BD81BDF89A10B5112319F1E5
:1032E0008CE796E06CE973E00E94A42484E00E94DD
:1032F000580E81E080938C0582E00E94580E84E095
:103300000E94580EF999FECFF999FECF1FBA86EEAA
:1033100093E092BD81BD115010BD0FB6F894FA9A9A
:10332000F99A0FBE1AC08CE796E069EB73E00E9431
:10333000A4240E94261827C08CE796E06CEC73E06A
:103340000E94852440918C0550E060E070E08CE79D
:1033500096E02AE030E00E94A625F999FECF209160
:103360008C05F999FECF1FBA8AE090E092BD81BD2D
:1033700020BD0FB6F894FA9AF99A0FBE82E00E9427
:10338000580E0E94D4171F9108952F923F924F928A
:103390005F926F927F928F929F92AF92BF92CF92E5
:1033A000DF92EF92FF920F931F93DF93CF93CDB7EE
:1033B000DEB72C970FB6F894DEBF0FBECDBF1092CC
:1033C0008C05F999FECFF999FECF89E090E092BD86
:1033D00081BDF89A80B580938B05F999FECF81E085
:1033E00090E069E271E00E94D800382E292E809387
:1033F000C9059093CA05F999FECF84EE93E069E27E
:1034000071E00E94D8002C019093D7048093D604D9
:10341000F999FECF86ED93E069E271E00E94D80051
:103420008C019093F4048093F304F999FECF88ED16
:1034300093E069E271E00E94D8007C019093F60469
:103440008093F504F999FECF8AED93E069E271E08B
:103450000E94D8006C019093990480939804F99984
:10346000FECF8CED93E069E271E00E94D8005C0130
:103470009093A7048093A604F999FECF8EED93E074
:1034800069E271E00E94D8004C019093A9048093F6
:10349000A804F999FECF80EE93E069E271E00E9402
:1034A000D8003C019093AB048093AA04F999FECF15
:1034B00082EE93E069E271E00E94D8009C01F999E4
:1034C000FECF43E0063B14071CF486EB93E007C0F5
:1034D000C80148E00330140714F082E098E09093AC
:1034E000F4048093F30486EBE81683E0F8061CF4FA
:1034F00086EB93E007C0C70148E08330940714F0DF
:1035000082E098E09093F6048093F50486EBC81669
:1035100083E0D8061CF486EB93E007C0C60148E0C0
:103520008330940714F082E098E09093990480939C
:10353000980486EBA81683E0B8061CF486EB93E0AB
:1035400007C0C50148E08330940714F082E098E09A
:103550009093A7048093A60486EB881683E09806D0
:103560001CF486EB93E007C0C40148E08330940765
:1035700014F082E098E09093A9048093A80486EB6D
:10358000681683E078061CF486EB93E007C0C3015D
:1035900048E08330940714F082E098E09093AB0405
:1035A0008093AA0483E0263B38071CF486EB93E063
:1035B00007C0C90128E08330920714F082E098E048
:1035C0009093AD048093AC0446E9441651041CF476
:1035D00086E990E007C0C20122E08130920714F032
:1035E00080E092E09093D7048093D604832D922DAF
:1035F0009C0142E02130340714F020E032E037FF34
:1036000002C020E030E03093CA052093C9058E0146
:103610000F5F1F4FC80160E070E00E94980EA5E99F
:10362000B5E0F8018CE001900D928150E1F70E9425
:10363000D41781E0809397042C960FB6F894DEBFE0
:103640000FBECDBFCF91DF911F910F91FF90EF90F3
:10365000DF90CF90BF90AF909F908F907F906F90B2
:103660005F904F903F902F900895AF92BF92CF926E
:10367000DF92EF92FF920F931F938091970488231C
:1036800089F01092260510922705109228051092B5
:10369000290510922A0510922B0510922C051092E4
:1036A0002D05BFC190910F0591FF04C082E09827BE
:1036B00090930F0590910F0590FF04C081E098272B
:1036C00090930F058DEA95E069EB75E00E947816FE
:1036D0006093150570931605809317059093180550
:1036E0008DEA95E069EB75E00E94EF165B016C01D5
:1036F0006093830570938405809385059093860578
:103700002091150530911605409117055091180527
:103710008091110590911205A0911305B0911405A7
:10372000281B390B4A0B5B0B2093190530931A05A4
:1037300040931B0550931C058091F204873009F0DB
:1037400051C084E1A816B104C104D104CCF4205BBB
:10375000394B4F4F5F4FCA01B9010E941A277B01B5
:103760008C01C601B5010E941A2720E030E040EA32
:1037700051E40E947F2620E030EA4CE056E420C06D
:1037800088E2A816B104C104D10464F5CA01B901E4
:103790000E941A277B018C0168E270E080E090E0D3
:1037A0006A197B098C099D090E941A2720E030E0E4
:1037B00040EA51E40E947F2620E030EA4CE056ECDB
:1037C0000E943C289B01AC01C801B7010E94B225B0
:1037D0000E94E7266093190570931A0580931B05D4
:1037E00090931C058091190590911A05A0911B05D5
:1037F000B0911C05813526E4920720E0A20720E065
:10380000B20764F0805A9C48A040B04080931905EC
:1038100090931A05A0931B05B0931C058091190580
:1038200090911A05A0911B05B0911C05803B29EBD6
:1038300092072FEFA2072FEFB20764F48056934749
:10384000AF4FBF4F8093190590931A05A0931B05A6
:10385000B0931C056091190570911A0580911B05A4
:1038600090911C050E941A270E94DE030E94E72601
:10387000609326057093270580932805909329056A
:103880006091C1057091C2052091B5053091B605D2
:10389000621B730B7093220560932105882777FDC7
:1038A0008095982F0E941A275B016C012091BE041D
:1038B0003091BF044091C0045091C1040E943C2843
:1038C0000E94E726653671058105910524F064E6BE
:1038D00070E080E090E068312CEF72072FEF8207F4
:1038E0002FEF920724F468E17CEF8FEF9FEF609356
:1038F0002A0570932B0580932C0590932D05C60106
:10390000B5012091C2043091C3044091C404509188
:10391000C5040E943C280E94E7266031710581059C
:10392000910524F06FE070E080E090E0613F2FEFC0
:1039300072072FEF82072FEF920724F461EF7FEFDA
:103940008FEF9FEF7093B5046093B4048091F204FD
:10395000873009F466C02091830530918405409139
:1039600085055091860512161306140615060CF4EB
:1039700049C08CE796E064EE73E00E948524409194
:10398000AD055091AE056091AF057091B0058CE723
:1039900096E00E9447258CE796E06DEF73E00E9469
:1039A00085244091B1055091B2056091B3057091A5
:1039B000B4058CE796E00E9447258CE796E060E02E
:1039C00074E00E9485244091B9055091BA05609138
:1039D000BB057091BC058CE796E00E9447258CE7FB
:1039E00096E06DEF73E00E9485244091BD055091F3
:1039F000BE056091BF057091C0058CE796E00E94FE
:103A00006E250FC08091AF0490E0A0E0B0E02817D1
:103A100039074A075B072CF481E00E94580E0E9488
:103A20004E191F910F91FF90EF90DF90CF90BF90B4
:103A3000AF9008958F929F92AF92BF92CF92DF92F4
:103A4000EF92FF920F931F93CF93DF938CE796E053
:103A50000E94C523082F10E00115110509F4CAC002
:103A600063E070E080E090E00E945121C0E0D0E08F
:103A700075E0972E67E0862E56E0A52E48E0C42E0E
:103A800032E0B32EDD24D39423E0E22E94E0F92E2D
:103A90008CE796E00E94D923382F8091EA05843084
:103AA00009F445C0853050F48130D9F0813098F068
:103AB0008230F9F0833009F098C02AC0863009F4CA
:103AC00054C0863008F442C0873009F469C0883099
:103AD00009F08BC06AC0353B09F087C0D092EA0577
:103AE00084C0323619F4B092EA057FC01092EA051C
:103AF0007CC030936C0590916605930F909366059A
:103B000080916705890F80936705E092EA056DC093
:103B100030936D0590916605930F909366058091A3
:103B20006705890F80936705F092EA055EC03093C0
:103B30006E0590916605930F9093660580916705D9
:103B4000890F809367059092EA054FC030936F0507
:103B500090916605930F9093660580916705890F94
:103B600080936705A092EA0540C020917005E22F7E
:103B7000F0E0E25CFA4F308390916605930F9093EA
:103B8000660580916705890F809367052F5F2093F5
:103B9000700580916E05281740F18092EA0525C0D6
:103BA00030937105C092EA0520C030937205909160
:103BB000660580917105981781F4809167058317D8
:103BC00061F40E94AE110E9443216093EB05709353
:103BD000EC058093ED059093EE051092EA051092A6
:103BE000700510926605109267052196C017D107DF
:103BF0000CF44ECF0E9443212091EB053091EC054F
:103C00004091ED055091EE05621B730B840B950BF3
:103C1000615D77408040904078F18CE060E00E94E8
:103C2000F32181E08093AE0410920F050E9443219E
:103C30002091EB053091EC054091ED055091EE059A
:103C4000621B730B840B950B61517742804090404F
:103C500098F083E08093AE040E9443216093EB05CB
:103C60007093EC058093ED059093EE058CE796E05C
:103C70006BE074E00E94A424DF91CF911F910F911B
:103C8000FF90EF90DF90CF90BF90AF909F908F907C
:103C90000895CF93DF938CE796E063E273E00E9490
:103CA000A4248CE796E06AE174E00E94A4241092B8
:103CB0000F0581E08093AE042CC00E941A1D8CE099
:103CC00060E00E94F32169E170E080E090E00E94F2
:103CD00051218CE061E00E94F32169E170E080E015
:103CE00090E00E9451212196C531D10534F3809195
:103CF000AE04813031F48CE796E067E274E00E9414
:103D0000A4248091AE04813039F480910F0588237A
:103D100019F4C0E0D0E0E8CFDF91CF9108950E9480
:103D20004321209177053091780540917905509194
:103D30007A05621B730B840B950B60937F05709360
:103D4000800580938105909382056431710581051A
:103D5000910508F42BC10E9443216093770570936D
:103D600078058093790590937A050E941F190E9427
:103D700093040E94DE180E94B6140E9443212091F1
:103D80007B0530917C0540917D0550917E05621B3D
:103D9000730B840B950B653671058105910568F1F0
:103DA0000E94432160937B0570937C0580937D0581
:103DB00090937E050E941A1D80911005882321F0A2
:103DC000109210050E944E0C80919704882379F080
:103DD0008091AD059091AE05A091AF05B091B00571
:103DE000181619061A061B0614F40E94AF170E9433
:103DF000E50B0E9449140E9467108091F204813003
:103E000019F40E940009D0C0823009F08DC0809161
:103E1000F3049091F40420919A0430919B04821B46
:103E2000930B9C01B3E0220F331FBA95E1F7280FE3
:103E3000391FC901AA2797FDA095BA2F8D3A2DE009
:103E4000920720E0A20720E0B20724F08CEA9DE070
:103E5000A0E0B0E09C01AD01243582EF38078FEF80
:103E600048078FEF580724F424E532EF4FEF5FEF58
:103E70002093260530932705409328055093290564
:103E8000E091F504F091F60460919C0470919D041A
:103E90009F01261B370BC901A3E0880F991FAA9524
:103EA000E1F7820F931F9C01442737FD4095542F63
:103EB000253631054105510524F024E630E040E087
:103EC00050E0DA01C90188312CEF92072FEFA207E9
:103ED0002FEFB20724F488E19CEFAFEFBFEF8093A0
:103EE0002A0590932B05A0932C05B0932D056E1BEE
:103EF0007F0B8CED95E09C01629FC001639F900D4C
:103F0000729F900D112468EE73E00E944329CB014B
:103F10006031710514F08FE090E03FEF813F93072F
:103F2000ECF581EF9FEF3AC0853038F0883001F131
:103F30000E94351B0E94F50937C08823A9F580919E
:103F40009A0490919B049093A1048093A004809183
:103F50009C0490919D049093A3048093A20480916B
:103F60009E0490919F049093A5048093A4041CC088
:103F700010922A0510922B0510922C0510922D05F7
:103F800088E19CEFAFEFBFEF809326059093270564
:103F9000A0932805B093290589E190E09093B5049A
:103FA0008093B4040E94DC070E94590B08958CE0B2
:103FB00061E00E94D3218CE796E040E056E960E0A2
:103FC00070E00E94CC220E94491E08958CE796E082
:103FD00063E474E00E94A4240E94BE1280E28093F5
:103FE0006B008CE080936D00E8E6F0E084E0808375
:103FF00080818160808381E090E09093F8048093D9
:10400000F7040E948D110E94D71F0E94C51980914C
:104010008B050E9494150E94491908958CE061E077
:104020000E94D3218CE796E040E056E960E070E022
:104030000E94CC220E94491E08951F938CE796E0AF
:1040400060E574E00E94A4240E948D110E94F61283
:104050000E944D160E94BE120E940E200E94111056
:104060000E94D4170E94BE1280918B050E94941565
:104070000E94BE1268EE73E080E090E00E94512141
:104080000E94BE1216C08CE796E060E674E00E94C3
:10409000A4240E94BE120E941A1D10E00E94B614B1
:1040A00064E170E080E090E00E9451211F5F1233D4
:1040B000A9F786E00E944022892B29F30E94111063
:1040C0000E948D150E9430110E9449198CE796E0DC
:1040D00063E273E00E94A4248CE796E063E774E057
:1040E0000E94A4241F9108958CE796E062E874E092
:1040F0000E94A42482E060E00E94D32183E060E07B
:104100000E94D32184E060E00E94D32185E060E03A
:104110000E94D32186E060E00E94D32187E061E025
:104120000E94D32188E061E00E94D32189E061E010
:104130000E94D3218AE061E00E94D3218BE061E0FC
:104140000E94D3218CE061E00E94D3218DE060E0E9
:104150000E94D32186E061E00E94F3210E948D112C
:104160000E94E71382EA809380008AE180938100B5
:1041700088EB9BE0909389008093880090938B005C
:1041800080938A0080E49CE9909387008093860066
:1041900092E09093B00085E08093B1008AE880932C
:1041A000B30080916F00806280936F0090937000E5
:1041B0000E948D150E94830D0E94BB1086E00E9414
:1041C0004022892B19F40E941D2008950E94E61FA9
:1041D00008958CE796E040E056E960E070E00E94C8
:1041E000CC220E94742008950E947B210E94E92025
:1041F0000E948F1EFDCF1F920F920FB60F921124B7
:104200002F933F938F939F93AF93BF938091F30529
:104210009091F405A091F505B091F6053091F70560
:104220000196A11DB11D232F2D5F2D3720F02D5795
:104230000196A11DB11D2093F7058093F30590937E
:10424000F405A093F505B093F6058091EF059091E4
:10425000F005A091F105B091F2050196A11DB11DE7
:104260008093EF059093F005A093F105B093F205CC
:10427000BF91AF919F918F913F912F910F900FBE62
:104280000F901F9018958FB7F8942091F3053091F7
:10429000F4054091F5055091F6058FBFB901CA01AB
:1042A0000895EF92FF920F931F937B018C018FB7BC
:1042B000F8944091F3055091F4056091F5057091E3
:1042C000F6058FBF2FB7F8948091F3059091F40510
:1042D000A091F505B091F6052FBF841B950BA60B99
:1042E000B70BE816F9060A071B0760F71F910F9135
:1042F000FF90EF900895789484B5826084BD84B572
:10430000816084BD85B5826085BD85B5816085BDD0
:10431000EEE6F0E0808181608083E1E8F0E080817A
:1043200082608083808181608083E0E8F0E080812A
:1043300081608083E1EBF0E0808184608083E0EB4A
:10434000F0E0808181608083EAE7F0E08081846032
:10435000808380818260808380818160808380818E
:10436000806880831092C10008958F709091E60458
:104370009295990F990F907C982B90937C00809147
:104380007A00806480937A0080917A0086FDFCCF69
:104390002091780040917900942F80E030E0282B24
:1043A000392BC9010895282F30E0C9018B519F4F47
:1043B000FC0194912F523F4FF9018491882391F091
:1043C000E82FF0E0EE0FFF1FED54FF4FA591B491E1
:1043D000662329F48C91909589238C9308958C9170
:1043E000892B8C930895482F50E0CA0187509F4F26
:1043F000FC012491CA018B519F4FFC0194914F52B3
:104400005F4FFA0134913323D1F1222331F123306C
:1044100021F4809180008F7705C0243031F48091A1
:1044200080008F7D8093800018C0213019F484B5FE
:104430008F7704C0223021F484B58F7D84BD0DC0F8
:10444000263021F48091B0008F7705C0273029F401
:104450008091B0008F7D8093B000E32FF0E0EE0FED
:10446000FF1FE354FF4FA591B491662329F48C916B
:10447000909589238C9308958C91892B8C93089522
:10448000682F70E0CB0187509F4FFC012491CB0136
:104490008B519F4FFC0144916F527F4FFB019491D0
:1044A000992319F420E030E038C0222331F1233081
:1044B00021F4809180008F7705C0243031F4809101
:1044C00080008F7D8093800018C0213019F484B55E
:1044D0008F7704C0223021F484B58F7D84BD0DC058
:1044E000263021F48091B0008F7705C0273029F461
:1044F0008091B0008F7D8093B000892F90E0880F6D
:10450000991F89539F4FFC01A591B4918C9120E094
:1045100030E0842311F021E030E0C90108951F92BA
:104520000F920FB60F9211242F933F934F935F93E7
:104530006F937F938F939F93AF93BF93EF93FF936B
:104540004091C600E0917806F0917906CF0101967E
:1045500060E870E00E9443299C0180917A06909166
:104560007B062817390739F0E850FA4F408330931B
:10457000790620937806FF91EF91BF91AF919F91BB
:104580008F917F916F915F914F913F912F910F90FC
:104590000FBE0F901F9018955F926F927F928F922F
:1045A0009F92AF92BF92CF92DF92EF92FF920F93C2
:1045B0001F93CF93DF93EC013A014B01413482E426
:1045C00058078FE0680780E078070CF07FC060E84C
:1045D00074E88EE190E0A40193010E9478292150B3
:1045E000304040405040CA01B90122E030E040E094
:1045F00050E00E94782959016A01A6019501209591
:1046000030954095509594E0220F331F441F551F5D
:104610009A95D1F760E074E284EF90E00E947829E7
:10462000CA01B9012FEF30E040E050E00E941829A4
:10463000A40193010E947829C90181509F4F181647
:1046400019061CF4522E5A9403C055245394521A3E
:1046500060E079E08DE390E0A40193010E94782965
:104660002150304040405040CA01B90122E030E0C2
:1046700040E050E00E947829209530954095509573
:1046800083E0220F331F441F551F8A95D1F760E046
:1046900074E284EF90E00E947829CA01B9012FEFFB
:1046A00030E040E050E00E941829A40193010E94EC
:1046B0007829C90181509F4F181619061CF4822FC2
:1046C000815002C081E0821B851500F5E885F985DF
:1046D00081E090E00A8802C0880F991F0A94E2F7EF
:1046E000808360E079E08DE390E0A40193010E9473
:1046F00078292150304040405040CA01B90122E0A1
:1047000030E040E050E00E94782904C0E885F98557
:1047100010829501EC81FD813083EE81FF81208341
:10472000EA85FB85208141E050E0CA010E8402C089
:10473000880F991F0A94E2F7282B2083EA85FB85CE
:104740002081CA010F8402C0880F991F0A94E2F7E2
:10475000282B2083EA85FB858081088802C0440FCE
:10476000551F0A94E2F7842B8083DF91CF911F912C
:104770000F91FF90EF90DF90CF90BF90AF909F9000
:104780008F907F906F905F900895DC011296ED916D
:10479000FC911397E058FF4F8191919180589F4F62
:1047A00020813181821B930B60E870E00E944329D5
:1047B0000895CF93DF93DC011296ED91FC9113974E
:1047C000EF01CE57DF4F48815981E058FF4F80817C
:1047D0009181E058F0408417950719F42FEF3FEFCF
:1047E0000CC0E40FF51F2081CA01019660E870E05B
:1047F0000E9443299983888330E0C901DF91CF91DA
:104800000895FC01A085B18521898C9190E0022E4C
:1048100002C0959587950A94E2F780FFF6CF04844D
:10482000F585E02D608308958BEE94E090937D06EE
:1048300080937C0688EF95E090937F0680937E06B8
:1048400085EC90E0909381068093800684EC90E064
:10485000909383068093820680EC90E09093850687
:104860008093840681EC90E090938706809386067F
:1048700086EC90E0909389068093880684E080938C
:104880008A0683E080938B0687E080938C0685E020
:1048900080938D0681E080938E0608950F931F9379
:1048A000CF93DF938C01EB0109C02196D801ED91E4
:1048B000FC910190F081E02DC80109956881662383
:1048C000A1F7DF91CF911F910F910895EF92FF9281
:1048D0000F931F93CF93DF938C017B01EA010CC0F0
:1048E000D7016D917D01D801ED91FC910190F0818E
:1048F000E02DC80109952197209791F7DF91CF917D
:104900001F910F91FF90EF900895DC01ED91FC91C4
:104910000280F381E02D099508950F931F938C0178
:10492000DC01ED91FC910190F081E02D6DE00995A5
:10493000D801ED91FC910190F081E02DC8016AE071
:1049400009951F910F9108950F931F938C010E9459
:104950008524C8010E948D241F910F9108952F92E4
:104960003F924F925F926F927F928F929F92AF92FF
:10497000BF92CF92DF92EF92FF920F931F93DF933C
:10498000CF93CDB7DEB7A0970FB6F894DEBF0FBEBA
:10499000CDBF1C016A017B014115510561057105FF
:1049A00049F4DC01ED91FC910190F081E02D60E390
:1049B000099554C0882499245401422E5524662414
:1049C000772401E010E00C0F1D1F080D191DC70111
:1049D000B601A30192010E945629F8016083089450
:1049E000811C911CA11CB11CC701B601A30192013D
:1049F0000E945629C901DA016C017D01C114D1045C
:104A0000E104F104F1F681E0E82EF12CEC0EFD1E3C
:104A1000E80CF91C3E010894611C711CD501C4010D
:104A20000197A109B1096C01C818D90814C0F60191
:104A3000EE0DFF1D60816A3010F4605D01C0695C9D
:104A4000D101ED91FC910190F081E02DC10109951A
:104A50000894E108F1086E147F0449F7A0960FB698
:104A6000F894DEBF0FBECDBFCF91DF911F910F91A4
:104A7000FF90EF90DF90CF90BF90AF909F908F907E
:104A80007F906F905F904F903F902F900895EF929E
:104A9000FF920F931F93CF93DF93EC017A018B0169
:104AA00077FF0FC0E881F9810190F081E02D6DE280
:104AB000099510950095F094E094E11CF11C011DFE
:104AC000111DCE01B801A7012AE00E94AF24DF9199
:104AD000CF911F910F91FF90EF9008950F931F9327
:104AE0008C010E944725C8010E948D241F910F91BF
:104AF0000895AB01662757FD6095762F0E944725E4
:104B000008950F931F938C01AB01662757FD6095A5
:104B1000762F0E944725C8010E948D241F910F9176
:104B20000895DC012115310541F4ED91FC910190CE
:104B3000F081E02D642F099508952A30310519F48C
:104B40000E94472508950E94AF2408950F931F9354
:104B50008C010E949125C8010E948D241F910F9104
:104B600008955058BB27AA270ED030C2F0D130F09C
:104B7000F5D120F031F49F3F11F41EF4C0C10EF4C2
:104B8000E095E7FBB6C1E92F43D280F3BA1762077D
:104B900073078407950718F071F49EF55BC20EF455
:104BA000E0950B2EBA2FA02D0B01B90190010C013D
:104BB000CA01A0011124FF27591B99F0593F50F455
:104BC000503E68F11A16F040A22F232F342F4427AD
:104BD000585FF3CF469537952795A795F0405395A5
:104BE000C9F77EF41F16BA0B620B730B840BBAF075
:104BF0009150A1F0FF0FBB1F661F771F881FC2F7E0
:104C00000EC0BA0F621F731F841F48F487957795F3
:104C10006795B795F7959E3F08F0B3CF9395880FAA
:104C200008F09927EE0F97958795089590D158F041
:104C300080E891E009F49EEF91D128F040E851E03E
:104C400059F45EEF09C05BC105C2E92FE078E0D1FD
:104C500068F3092E052AC1F32617370748075907B5
:104C600038F00E2E07F8E02569F0E025E0640AC070
:104C7000EF6307F8009407FADB01B9019D01DC013D
:104C8000CA01AD01EF934AD0A1D10AD05F9155235B
:104C900031F02BED3FE049E450FD49EC63CF08953E
:104CA000DF93DD27B92FBF7740E85FE316161706BD
:104CB00048075B0710F4D92FD8D19F938F937F9328
:104CC0006F938BD2E8E6F0E01DD180D12F913F9118
:104CD0004F915F91DDD1DD2349F09058A2EA2AED92
:104CE0003FE049EC5FE3D0785D274DDFDF916EC197
:104CF000DCD008F481E0089539D1E39578C10CD077
:104D000065C12CD140F023D130F021F45F3F19F080
:104D1000F0C05111A0C1F3C07BD198F39923C9F31E
:104D20005523B1F3951B550BBB27AA2762177307B1
:104D3000840738F09F5F5F4F220F331F441FAA1F65
:104D4000A9F333D00E2E3AF0E0E830D09150504025
:104D5000E695001CCAF729D0FE2F27D0660F771FD3
:104D6000881FBB1F261737074807AB07B0E809F0B5
:104D7000BB0B802DBF01FF2793585F4F2AF09E3F4A
:104D8000510568F0B6C067C15F3FECF3983EDCF3B5
:104D9000869577956795B795F7959F5FC9F7880FC3
:104DA000911D9695879597F90895E1E0660F771F15
:104DB000881FBB1F621773078407BA0720F0621BA6
:104DC000730B840BBA0BEE1F88F7E095089504D09F
:104DD0006894B11140C1089523D188F09F5790F095
:104DE000B92F9927B751A0F0D1F0660F771F881F10
:104DF000991F1AF0BA95C9F712C0B13081F02AD1C3
:104E0000B1E0089527C1672F782F8827B85F39F060
:104E1000B93FCCF3869577956795B395D9F73EF46E
:104E200090958095709561957F4F8F4F9F4F089516
:104E3000E89409C097FB3EF4909580957095619534
:104E40007F4F8F4F9F4F9923A9F0F92F96E9BB27EA
:104E50009395F695879577956795B795F111F8CF66
:104E6000FAF4BB0F11F460FF1BC06F5F7F4F8F4FD1
:104E70009F4F16C0882311F096E911C0772321F0C7
:104E80009EE8872F762F05C0662371F096E8862F5F
:104E900070E060E02AF09A95660F771F881FDAF7B6
:104EA000880F9695879597F90895990F0008550FE3
:104EB000AA0BE0E8FEEF16161706E807F907C0F0A0
:104EC00012161306E407F50798F0621B730B840BA8
:104ED000950B39F40A2661F0232B242B252B21F482
:104EE00008950A2609F4A140A6958FEF811D811D22
:104EF000089597F99F6780E870E060E008959FEF5C
:104F000080EC0895DF93CF931F930F93FF92EF925E
:104F1000DF927B018C01689405C0DA2EEF01B8D0D6
:104F2000FE01E894A5912591359145915591AEF3F7
:104F3000EF0129DEFE019701A801DA9479F7DF90ED
:104F4000EF90FF900F911F91CF91DF910895002472
:104F50000A941616170618060906089500240A94DE
:104F600012161306140605060895C9CF59D0E8F3A2
:104F7000E894EFEFBB273FE048EC5FE76B3D73073A
:104F80008407950708F1FF279F57B25A6A4D7F4063
:104F9000894CF04032F4BE556542704F8643FF4F56
:104FA0000894EE1F915030F0BB0F661F771F881FCB
:104FB000FF1FEBCF9EE7882332F0BB0F661F771FE2
:104FC000881F9A95C1F79395E0950AC1092E03941D
:104FD000000C11F4882352F0BB0F40F4BF2B11F4E6
:104FE00060FF04C06F5F7F4F8F4F9F4F0895EF9317
:104FF000E0FF06C0A2EA2AED3FE049EC5FEBC3DD2B
:10500000E5DF0F90039401FC9058E5E9F0E0FFC064
:1050100057FD9058440F551F59F05F3F71F0479569
:10502000880F97FB991F61F09F3F79F0879508954E
:10503000121613061406551FF2CF4695F1DF08C06D
:10504000161617061806991FF1CF8695710561058A
:1050500008940895E894BB2766277727CB0197F932
:10506000089523DF08F48FEF08959B01AC0160E001
:1050700070E080E89FE343CE0BD0A8CF68DF28F034
:105080006DDF18F0952309F034CF39CF1124E3CF29
:10509000BFDFA0F3959FD1F3950F50E0551F629F9E
:1050A000F001729FBB27F00DB11D639FAA27F00D81
:1050B000B11DAA1F649F6627B00DA11D661F829FA8
:1050C0002227B00DA11D621F739FB00DA11D621F8D
:1050D000839FA00D611D221F749F3327A00D611DAA
:1050E000231F849F600D211D822F762F6A2F11248C
:1050F0009F5750408AF0E1F088234AF0EE0FFF1FDF
:10510000BB1F661F771F881F91505040A9F79E3F15
:10511000510570F0EECE9FCF5F3FECF3983EDCF38D
:10512000869577956795B795F795E7959F5FC1F752
:10513000FE2B880F911D9695879597F9089511F488
:105140000EF4DDCE4DC06CDFD0F39923D9F3CEF34E
:105150009F57550B87FF54D056959795B0E020F494
:10516000660F771F881FBB1F1F930F9300249001AA
:10517000A0018001F001A0E80E0F1F1F0A1E511DA3
:10518000601B710B8009B50B48F4600F711F801D07
:10519000B51F0E1B1F0B0A0A510907C02E0F3F1F18
:1051A0004A1F0E0F1F1F0A1E511D660F771F881FF3
:1051B000BB1FA695F795E795F8F60617170708069B
:1051C0005B07211D311D411D0F911F91B901842FD6
:1051D0009158880F9695879508959B01AC014CCF07
:1051E0009F3F49F0915028F4869577956795B7953C
:1051F0009F5F80389F4F880F9695879597F9089500
:1052000091505040660F771F881FD2F708959F93E3
:105210008F937F936F93FF93EF939B01AC012CDFF0
:10522000EF91FF916FDE2F913F914F915F9124CFCE
:10523000629FD001739FF001829FE00DF11D649F7A
:10524000E00DF11D929FF00D839FF00D749FF00D06
:10525000659FF00D9927729FB00DE11DF91F639FA7
:10526000B00DE11DF91FBD01CF0111240895991B57
:1052700079E004C0991F961708F0961B881F7A954D
:10528000C9F78095089597FB092E07260AD077FD68
:1052900004D049D006D000201AF4709561957F4F54
:1052A0000895F6F7909581959F4F0895A1E21A2EE3
:1052B000AA1BBB1BFD010DC0AA1FBB1FEE1FFF1FBA
:1052C000A217B307E407F50720F0A21BB30BE40B0A
:1052D000F50B661F771F881F991F1A9469F7609551
:1052E0007095809590959B01AC01BD01CF0108950B
:1052F00097FB092E05260ED057FD04D0D7DF0AD024
:10530000001C38F450954095309521953F4F4F4FF4
:105310005F4F0895F6F790958095709561957F4F52
:105320008F4F9F4F0895AA1BBB1B51E107C0AA1FB7
:10533000BB1FA617B70710F0A61BB70B881F991F36
:105340005A95A9F780959095BC01CD010895EE0F6F
:0E535000FF1F0590F491E02D0994F894FFCF13
:10535E002323307C204D414E55414C002323317C7C
:10536E002053544142494C495A45002323327C2054
:10537E00464C592042592057495245002323357C2B
:10538E00204155544F50494C4F54002323367C2016
:10539E0052544C002323377C204C4F495445520025
:1053AE002323387C20434F4E5354414E54204241C8
:1053BE004E4B00515151004153503A002C54484825
:1053CE003A002C524C4C3A002C5043483A002C2AAE
:1053DE002A2A00212121004C41543A002C4C4F4ED8
:1053EE003A002C5350443A002C4352543A002C416C
:1053FE004C543A002C414C483A002C4352533A003C
:10540E002C4245523A002C57504E3A002C445354DD
:10541E003A002C4254563A002C5253503A007770B0
:10542E005F746F74616C20006F7074696F6E73209F
:10543E000077705F726164697573200070726576B3
:10544E005F57503A200009006E6578745F57503AE6
:10545E0000526561636865642057503A004E6F775D
:10546E0020676F696E6720746F2057503A004C6F3B
:10547E006164656420575020696E6465783A004C0B
:10548E006F6F70656420575020496E6465780077A1
:10549E006179706F696E7420230064656275676749
:1054AE00696E67202D20496E6974204C6F6361749C
:1054BE00696F6E00526164696F205472696D206568
:1054CE0072726F72004E6F2054686F74746C653A0E
:1054DE00200077705F746F74616C3A2000686F6D96
:1054EE00653A2009007770202300523A0009453AA8
:1054FE000009543A0052656164696E6720726164F6
:10550E00696F206C696D6974733A00004D6F766532
:10551E0020737469636B7320746F3A2075707065B5
:10552E007220726967687420616E64206C6F776593
:10553E0072204C6566742E00546F20436F6E746932
:10554E006E75652C20686F6C6420746865207374AA
:10555E0069636B20696E2074686520636F726E6577
:10556E007220666F722032207365636F6E64732EC5
:10557E00002E00200072657365745F776179706F1D
:10558E00696E745F696E646578004C6F7720426156
:10559E007474657279002A2A2A2A4641494C53416D
:1055AE004645204F4E2A2A2A2A2A2A002A2A2A2A01
:1055BE004641494C53414645204F46462A2A2A2AFF
:1055CE002A2A002A2A2A204641494C534146452080
:1055DE004445544543544544202A2A2A002A46412C
:1055EE00494C53414645204F46462A004C6F6F703A
:1055FE00696E672C20676F696E6720746F20776104
:10560E0079706F696E74203100446F6E652C20487E
:10561E00656164696E6720686F6D65006D6F766990
:10562E006E67206F6E20746F20776179706F696E70
:10563E00743A200077705F64697374616E636520DD
:10564E006572726F722C206C6F633A20002C2000F2
:10565E0020206E6578745F57502000677073466126
:10566E00696C7572652E2E2E200057616974206646
:10567E006F7220475053005374696C6C20576169E8
:10568E0074696E673A204E6F2056616C69642046CD
:10569E00697800537461727475703A2041697200B2
:1056AE00537461727475703A2047726F756E640030
:1056BE0052656D6F76652053616665747920466C10
:1056CE00616700526561647920746F20464C592ED3
:1056DE002000496E6974204172647570696C6F7434
:1056EE0020322E352E300001F703DC05DC05F703E2
:1056FE00DC05DC05F7035802600958026009010F4A
:10570E000000803F19009A99193F8FC2F53D0000A5
:10571E00C03F713DAA3FFF010000FF010000FF01E5
:10572E0000000080FF432800FF010000FF01000081
:10573E00B80BB80BEE07010000000001244E2466E2
:02574E00240035
:00000001FF
