:100000000C9488000C94B0000C94B0000C94B000D8
:100010000C94B0000C94B0000C94B0000C948103CC
:100020000C94B0000C94B0000C9474030C94B000C9
:100030000C94B0000C94B0000C94B0000C94B00080
:100040000C941B150C94B0000C9412170C94B00077
:100050000C94B0000C943E010C94B0000C94B000D1
:100060000C94B0000C94B000084AD73B3BCE016E14
:1000700084BCBFFDC12F3D6C74319ABD56833DDAFF
:100080003D00C77F11BED9E4BB4C3E916BAAAABE0E
:10009000000000803F05A84CCDB2D44EB93836A937
:1000A000020C50B9918688083CA6AAAA2ABE000074
:1000B00000803F00000000240027002A000000000C
:1000C00000250028002B0000000000230026002946
:1000D00000040404040404040402020202020203F1
:1000E00003030303030102040810204080010204FB
:1000F000081020010204081020000000070002017F
:100100000000030406000000000000000000971833
:1001100011241FBECFEFD8E0DEBFCDBF11E0A0E0BD
:10012000B1E0E8E4FDE302C005900D92A43DB10703
:10013000D9F713E0A4EDB1E001C01D92AD30B107D5
:10014000E1F711E0C0E1D1E004C02297FE010E9476
:100150009E1ECE30D107C9F70E9414150C94A21E22
:100160000C940000BF92CF92DF92EF92FF920F9318
:100170001F937B018C01FB010995B82EC8010196E4
:10018000F7010995C82EC8010296F7010995D82EE6
:10019000C8010396F7010995982F6B2D7C2D8D2DA5
:1001A0001F910F91FF90EF90DF90CF90BF90089537
:1001B000DF92EF92FF920F931F937B018C01FB0163
:1001C0000995D82EC8010196F7010995982F8D2D14
:1001D0001F910F91FF90EF90DF900895BF92CF9203
:1001E000DF92EF92FF920F931F93D52EC62EB72E5C
:1001F00079018C01642FF9010995C80101966D2DD3
:10020000F7010995C80102966C2DF7010995C801FF
:1002100003966B2DF70109951F910F91FF90EF90B9
:10022000DF90CF90BF900895DF92EF92FF920F93EF
:100230001F93D72E7A018C01FA010995C801019606
:100240006D2DF70109951F910F91FF90EF90DF90B1
:1002500008959C01F999FECF32BD21BDF89A80B571
:1002600008959C01F999FECF1FBA32BD21BD60BD32
:100270000FB6F894FA9AF99A0FBE08951F920F924A
:100280000FB60F9211248F9381E08093FA018F9122
:100290000F900FBE0F901F901895EF92FF920F9343
:1002A0001F936091B0017091B1018091B201909162
:1002B000B30120E030E84FEF53E40E94AC1A20E095
:1002C00030E044EB52E40E94371D7B018C016091C9
:1002D000FB017091FC01882777FD8095982F0E9483
:1002E000151C9B01AC01C801B7010E947A1B0E943A
:1002F000E21BCB011F910F91FF90EF900895EF92B9
:10030000FF920F931F936091B4017091B50180919A
:10031000B6019091B70120E030E84FEF53E40E941E
:10032000AC1A20E030E044EB52E40E94371D7B0120
:100330008C016091FB017091FC01882777FD80950D
:10034000982F0E94151C9B01AC01C801B7010E94A7
:100350007A1B0E94E21BCB011F910F91FF90EF903F
:1003600008950F931F930E947F018C010E944D01FD
:1003700022273327201B310B281B390B8FEF2738FF
:1003800038071CF424EC3FEF0CC02A3731051CF071
:100390002CE330E006C0C90162E070E00E94381E24
:1003A0009B01C9011F910F9108950F931F930E9404
:1003B0007F018C010E944D019801281B390BC90156
:1003C0003FEF873893071CF424EC3FEF0BC08A37CC
:1003D00091051CF02CE330E005C062E070E00E9463
:1003E000381E9B01C9011F910F910895EF92FF9252
:1003F0000F931F930E94B1019C011816190624F453
:100400008B3091055CF506C088279927821B930BDA
:100410000B9724F560E070E88FEF93E42091B8012A
:100420003091B9014091BA015091BB010E94AC1AC0
:100430007B018C0120E030E040E050E00E942C1D68
:1004400018161CF4C801B70103C0C801B7019058C1
:100450000E94E21B7093FC016093FB011F910F91BE
:10046000FF90EF900895EF92FF920F931F9380916A
:10047000FA01813009F033C11092FA01209178001D
:10048000909179008091F9018230B9F1833030F494
:10049000882359F0813009F0DBC01BC0833009F498
:1004A0005EC0853009F0D4C08AC0792F60E030E0AA
:1004B000622B732B882777FD8095982F0E94151C3F
:1004C0006093B0017093B1018093B2019093B30136
:1004D000BFC0792F60E030E0622B732B882777FD57
:1004E0008095982F0E94151C6093B4017093B501FC
:1004F0008093B6019093B701ABC0792F60E030E0F4
:10050000622B732B882777FD8095982F0E94151CEE
:1005100024EA30E74DE75FE30E94371D7B018C0141
:100520006091B8017091B9018091BA019091BB01BD
:100530002AE037ED43E25CE30E94371D9B01AC01EA
:10054000C801B7010E94AD1A6093B8017093B90158
:100550008093BA019093BB010E94F60179C0792F74
:1005600060E030E0622B732B882777FD8095982F11
:100570000E94151C23E333E343E75FE30E94371D2A
:100580007B018C016091BC017091BD018091BE0125
:100590009091BF012DEC3CEC4CE45DE30E94371DD3
:1005A0009B01AC01C801B7010E94AD1A6093BC0168
:1005B0007093BD018093BE019093BF0149C0792F14
:1005C00060E030E0622B732B882777FD8095982FB1
:1005D0000E94151C24EA30E74DE75FE30E94371DB7
:1005E0007B018C016091C0017091C1018091C201B9
:1005F0009091C3012AE037ED43E25CE30E94371D8E
:100600009B01AC01C801B7010E94AD1A6093C00103
:100610007093C1018093C2019093C30120E030EA3E
:100620004BE950E40E94371D27E936E946E95EE3CD
:100630000E947A1B20E030E04AE754E40E947A1BD3
:1006400060932B0270932C0280932D0290932E02C4
:1006500020910102309102022115310551F0809163
:10066000F901833031F42F5F3F4F30930202209322
:10067000010280910102909102020597B1F48091EC
:10068000F901833091F46091BC017091BD018091BA
:10069000BE019091BF010E94E21B7093FE01609326
:1006A000FD0110920202109201028091F9018F5F08
:1006B0008093F901863010F01092F9018091AF011A
:1006C0008295880F880F807C9091F9019770892B13
:1006D00080937C0080917A00806480937A001F91DF
:1006E0000F91FF90EF9008951F920F920FB60F9207
:1006F00011241092B200289A0F900FBE0F901F90F5
:1007000018951F920F920FB60F92112428980F90F0
:100710000FBE0F901F9018959C0170E086179707E9
:1007200014F580913D028823F1F481E080933D022D
:1007300020911A022F5F8091C501821710F4209139
:10074000C70120931A02F999FECFF999FECF1FBA7B
:100750008AE090E092BD81BD20BD0FB6F894FA9A70
:10076000F99A0FBE08956217730714F410923D02B0
:100770000895CF93DF939C018091C8019091C901A6
:100780002817390709F44AC03093C9012093C801DA
:10079000E90143E0CC0FDD1F4A95E1F7220F331F3B
:1007A000C20FD31F2E96F999FECFCE0169E271E0F8
:1007B0000E94B2000E94151C20E034E244E759E494
:1007C0000E947A1B60931D0270931E0280931F0289
:1007D000909320022496F999FECFCE0169E271E050
:1007E0000E94B2000E94151C20E034E244E759E464
:1007F0000E947A1B6093210270932202809323024D
:1008000090932402F999FECFCE01049669E271E03B
:100810000E94D8009093260280932502DF91CF9109
:100820000895CF93DF938AEF92E060E071E00E9439
:1008300008196091C5018AEF92E070E00E94111AD8
:10084000C0E0D0E055C0CE010E94B9038AEF92E02B
:10085000BE010E94091A8AEF92E06AE071E00E94EC
:10086000081960911D0270911E0280911F029091E3
:10087000200220E034E244E759E40E94371D0E9440
:10088000E21BAB01BC018AEF92E00E94E2198AEF01
:1008900092E061E171E00E9408196091210270917B
:1008A0002202809123029091240220E034E244E766
:1008B00059E40E94371D0E94E21BAB01BC018AEF84
:1008C00092E00E94E2198AEF92E068E171E00E94F2
:1008D000081960912502709126028AEF92E00E9429
:1008E000D41968EC70E080E090E00E9471152196C8
:1008F0008091C50190E08C179D070CF0A4CF80E09B
:1009000090E00E94B90368EB7BE080E090E00E94F9
:100910007115DF91CF910895F999FECF81E090E0B4
:1009200069E271E00E94D8009093FE018093FD017E
:10093000F999FECF8CE090E069E271E00E94D80066
:1009400090931C0280931B020895F999FECF12BC6C
:1009500011BCF89A80B58093140281E090E069E2BE
:1009600071E00E94D8009093FE018093FD01F999F7
:10097000FECF83E090E092BD81BDF89A80B5809370
:100980001502F999FECF84E090E092BD81BDF89AFE
:1009900080B58093C40185E090E069E271E00E9437
:1009A000D800909317028093160287E090E069E2E6
:1009B00071E00E94D8009093190280931802F9996F
:1009C000FECF89E090E092BD81BDF89A80B580931A
:1009D000C501F999FECF8BE090E092BD81BDF89AF8
:1009E00080B58093C6010895CF93DF938091120262
:1009F00090911302892BD1F4F999FECFF999FECF8A
:100A00001FBA8AE090E092BD81BD81E080BD0FB643
:100A1000F894FA9AF99A0FBE10921A021092C50130
:100A200081E090E09093130280931202F999FECF37
:100A3000F999FECF1FBA8AE090E092BD81BD81E0B6
:100A400080BD0FB6F894FA9AF99A0FBE20911A0257
:100A50002F5F20931A02F999FECFF999FECF1FBAA2
:100A600089E090E092BD81BD20BD0FB6F894FA9A5E
:100A7000F99A0FBEF999FECF8AE0289FE001112470
:100A80002E96F999FECF6091D8017091D90180918D
:100A9000DA019091DB0120E034E244E759E40E945E
:100AA000371D0E94E21BAB01BC01CE0121E331E006
:100AB0000E94EE002496F999FECF6091DC017091BE
:100AC000DD018091DE019091DF0120E034E244E716
:100AD00059E40E94371D0E94E21BAB01BC01CE010C
:100AE00021E331E00E94EE00F999FECF2496609157
:100AF0001B0270911C0280E090E00E94131C9B017D
:100B0000AC016091E0017091E1018091E20190916E
:100B1000E3010E94AC1A0E94E21B9B01AC01CE01D2
:100B2000B90141E351E00E94140180911A028093BF
:100B3000C50181E090E09093110280931002DF9153
:100B4000CF910895EF92FF920F931F938091AD0183
:100B50009091AE01892B09F058C0E090E001F0902F
:100B6000E1010091E2011091E301609116027091A0
:100B70001702882777FD8095982F0E94151C9B01EE
:100B8000AC01C801B7010E942C1D181694F4C801CD
:100B9000B7010E94E21B9B0170931702609316023B
:100BA000F999FECF85E090E0B90141E351E00E9460
:100BB0001401E090E401F090E5010091E60110914C
:100BC000E7016091180270911902882777FD8095DE
:100BD000982F0E94151C9B01AC01C801B7010E940F
:100BE0002C1D181694F4C801B7010E94E21B9B014A
:100BF0007093190260931802F999FECF87E090E094
:100C0000B90141E351E00E9414011F910F91FF903F
:100C1000EF9008956091E0017091E1018091E2010F
:100C20009091E3010E94E71B70931C0260931B02EA
:100C300010921A02F999FECFF999FECF1FBA8AE0F5
:100C400090E092BD81BD10BC0FB6F894FA9AF99A63
:100C50000FBEF999FECF6091FD017091FE0181E018
:100C600090E041E351E00E941401F999FECF6091B8
:100C70001B0270911C028CE090E041E351E00E9465
:100C80001401F999FECF6091D8017091D90180913A
:100C9000DA019091DB0120E034E244E759E40E945C
:100CA000371D0E94E21BAB01BC018EE090E021E306
:100CB00031E00E94EE00F999FECF6091DC01709165
:100CC000DD018091DE019091DF0120E034E244E714
:100CD00059E40E94371D0E94E21BAB01BC0182E176
:100CE00090E021E331E00E94EE00089584E00E944C
:100CF0004216019711F080E0089586E00E944216A6
:100D0000019739F485E00E944216019779F481E059
:100D1000089586E00E944216892B39F485E00E94EE
:100D20004216019711F483E00895089582E0089532
:100D30000E947606833041F4809110029091110256
:100D4000892B11F40E94F4040E947606882321F472
:100D5000109211021092100208950E9463152091C2
:100D60003F02309140024091410250914202621B89
:100D7000730B840B950B6B3F71058105910508F48E
:100D800092C18DE061E00E94F51580913E028430B1
:100D900008F41AC18AEF92E06FE171E00E9408192D
:100DA0008AEF92E063E271E00E9408196091D80135
:100DB0007091D9018091DA019091DB0120E034E259
:100DC00044E759E40E94371D0E94E21BAB01BC01BD
:100DD0008AEF92E00E94E2198AEF92E068E271E005
:100DE0000E9408196091DC017091DD018091DE01A3
:100DF0009091DF0120E034E244E759E40E94371D7E
:100E00000E94E21BAB01BC018AEF92E00E94E21952
:100E10008AEF92E06EE271E00E9408194091E401CD
:100E20005091E5016091E6017091E7018AEF92E04F
:100E30000E94A81A8AEF92E064E371E00E94081908
:100E40004091EC015091ED016091EE017091EF0144
:100E50008AEF92E00E94A81A8AEF92E06AE371E0BA
:100E60000E94081960911B0270911C0280E090E0C2
:100E70000E94131C9B01AC016091E0017091E101A3
:100E80008091E2019091E3010E94AC1A0E94E21B62
:100E9000AC01CB01DA01AC01BD0177FF04C040E039
:100EA00050E060E070E08AEF92E00E94E2198AEF81
:100EB00092E060E471E00E9408196091250270914F
:100EC00026028AEF92E00E94CE198AEF92E066E451
:100ED00071E00E9408194091E0015091E101609198
:100EE000E2017091E3018AEF92E00E94A81A8AEF72
:100EF00092E06CE471E00E9408194091E801509181
:100F0000E9016091EA017091EB018AEF92E00E94A1
:100F1000A81A8AEF92E062E571E00E9408196091D8
:100F20000E0270910F028AEF92E00E94CE198AEFB2
:100F300092E068E571E00E9408196091C801709123
:100F4000C9018AEF92E00E94091A8AEF92E06EE5E9
:100F500071E00E94081960910C0270910D028AEFF5
:100F600092E00E94CE198AEF92E064E671E00E945E
:100F7000081940912B0250912C0260912D02709122
:100F80002E028AEF92E00E94A81A8AEF92E06AE6A7
:100F900071E00E94081960910402709105028AEFC5
:100FA00092E00E94091A8AEF92E060E771E00E94E5
:100FB000271910923E0210922702109228021092D6
:100FC000290210922A0261C08F5F80933E028AEF4D
:100FD00092E065E771E00E9408198AEF92E069E704
:100FE00071E00E9408196091BC017091BD0180916F
:100FF000BE019091BF010E94E21B9B01AC01809158
:10100000FD019091FE01281B390B8AEF92E0B90196
:101010000E94091A8AEF92E06FE771E00E940819B6
:10102000609103028AEF92E070E00E94091A8AEF51
:1010300092E064E871E00E9408190E94B101BC01CD
:101040008AEF92E00E94091A8AEF92E06AE871E062
:101050000E9408190E94D501BC018AEF92E00E940B
:10106000091A8AEF92E060E971E00E9408190E9473
:101070007606682F8AEF92E070E00E94091A8AEFE4
:1010800092E060E771E00E9427190E946315609367
:101090003F027093400280934102909342028DE0A0
:1010A00060E00E94F5150895EF92FF920F931F9351
:1010B0007B018C010E947606882321F4EE24FF2414
:1010C00000E010E0B701C8011F910F91FF90EF9071
:1010D0000895AF92BF92CF92DF92EF92FF920F935B
:1010E0001F937B01AA2797FDA095BA2FBC01CD01C4
:1010F0000E94151C5B016C0126E636E646E25FE3C2
:101100000E94371D0E94E21B7093500260934F02B1
:101110000027F7FC0095102FC801B7010E94151C8D
:1011200020E030E04AE754E40E947A1B9B01AC01C6
:10113000C601B5010E94371D23E333E343EB5EE3B1
:101140000E94371D20914B0230914C0240914D027C
:1011500050914E020E94AD1A7B018C0120E030E0DC
:1011600040EA51EC0E94731B88235CF40F2EF0E0E0
:10117000EF2EF0E0FF2EF0EA0F2FF1EC1F2FF02DF5
:1011800014C0C801B70120E030E040EA51E40E94F9
:101190002C1D181654F40F2EF0E0EF2EF0E0FF2E69
:1011A000F0EA0F2FF1E41F2FF02DE0924B02F092A6
:1011B0004C0200934D0210934E02C801B7010E94E9
:1011C00054087B018C0160934B0270934C02809316
:1011D0004D0290934E0260914F0270915002882709
:1011E00077FD8095982F0E94151CA80197010E94F9
:1011F000AD1A0E94E21B6A31710514F069E170E0DA
:101200008FEF673E780714F467EE7FEF709350021C
:1012100060934F02CB011F910F91FF90EF90DF90F1
:10122000CF90BF90AF900895AF92BF92CF92DF92D0
:10123000EF92FF920F931F937A01AA2797FDA09533
:10124000BA2FBC01CD010E94151C5B016C0123E388
:1012500033E343EB5EE30E94371D0E94E21B709371
:101260005602609355020027F7FC0095102FC80125
:10127000B7010E94151C20E030E04AE754E40E94C8
:101280007A1B9B01AC01C601B5010E94371D23E307
:1012900033E343EB5EE30E94371D2091510230910E
:1012A000520240915302509154020E94AD1A7B01A8
:1012B0008C0120E030E040E251EC0E94731B882357
:1012C0005CF40F2EF0E0EF2EF0E0FF2EF0E20F2F97
:1012D000F1EC1F2FF02D14C0C801B70120E030E061
:1012E00040E251E40E942C1D181654F40F2EF0E039
:1012F000EF2EF0E0FF2EF0E20F2FF1E41F2FF02D84
:10130000E0925102F0925202009353021093540261
:10131000C801B7010E9454087B018C0160935102FF
:10132000709352028093530290935402609155023D
:1013300070915602882777FD8095982F0E94151C82
:10134000A80197010E94AD1A0E94E21B6A31710543
:1013500014F069E170E08FEF673E780714F467EEF0
:101360007FEF7093560260935502CB011F910F914E
:10137000FF90EF90DF90CF90BF90AF900895AF9225
:10138000BF92CF92DF92EF92FF920F931F93CF9372
:10139000DF93EC017A01861B970BBC019C01220FA5
:1013A000331F280F391F3093600220935F02882774
:1013B00077FD8095982F0E94151C5B016C0100271A
:1013C000F7FC0095102FC801B7010E94151C20E002
:1013D00030E04AE754E40E947A1B9B01AC01C6014D
:1013E000B5010E94371D209157023091580240915B
:1013F000590250915A020E94AD1A7B018C0120E0E3
:1014000030E040E050E00E94731B88235CF40F2E14
:10141000F0E0EF2EF0E0FF2EF0E00F2FF0E01F2FB6
:10142000F02D14C0C801B70120E030E04CE852E4D0
:101430000E942C1D181654F40F2EF0E0EF2EF0E051
:10144000FF2EFCE80F2FF2E41F2FF02DE092570241
:10145000F09258020093590210935A02C801B70142
:101460000E9454087B018C016093570270935802CC
:101470008093590290935A0260915F0270916002CA
:10148000882777FD8095982F0E94151CA801970149
:101490000E94AD1A0E94E21B882777FD8095982F45
:1014A0000E94151C7B018C01BE01882777FD809569
:1014B000982F0E94151C20E030E040E450E40E9488
:1014C000371D9B01AC01C801B7010E94AD1A0E94F3
:1014D000E21B6635710514F065E570E0EB0177FFFE
:1014E00002C0C0E0D0E0D0936002C0935F02609180
:1014F0005B0270915C0280915D0290915E0226E633
:1015000036E646E65FE30E94371D7B018C01BE0193
:10151000882777FD8095982F0E94151C2DEC3CECB8
:101520004CEC5DE30E94371D9B01AC01C801B70183
:101530000E94AD1A60935B0270935C0280935D021F
:1015400090935E020E94E71BDC01CB01DF91CF91FB
:101550001F910F91FF90EF90DF90CF90BF90AF90D1
:1015600008952F923F924F925F926F927F928F9247
:101570009F92AF92BF92CF92DF92EF92FF920F9322
:101580001F935B016C0119012A010E94371D2091F4
:10159000690230916A0240916B0250916C020E9484
:1015A000AD1A7B018C0120E030E040E251EC0E945A
:1015B000731B88235CF40F2EF0E0EF2EF0E0FF2E7B
:1015C000F0E20F2FF1EC1F2FF02D14C0C801B7016E
:1015D00020E030E040E251E40E942C1D181654F443
:1015E0000F2EF0E0EF2EF0E0FF2EF0E20F2FF1E4EF
:1015F0001F2FF02DE0926902F0926A0200936B02B5
:1016000010936C02C801B7010E9454087B018C0141
:101610006093690270936A0280936B0290936C02EC
:10162000C601B5012AE939E949E15FE30E94371DA6
:101630005B016C01C801B7012FE832EC45EF5DE3B7
:101640000E94371D3B014C01C601B501A401930165
:101650000E94AD1A7B018C012091610230916202DF
:1016600040916302509164020E94AC1AA201910160
:101670000E947A1B5B016C016093650270936602A5
:101680008093670290936802E0926102F092620296
:101690000093630210936402C801B7012AE939E993
:1016A00049E15FE30E94371DA40193010E94AD1A36
:1016B0007B018C01C601B50120E030E040E050E044
:1016C0000E94371D9B01AC01C801B7010E94AD1AF1
:1016D0007B018C0120E030E044E352EC0E94731B5C
:1016E00088231CF463ED7FEF11C0C801B70120E02F
:1016F00030E044E352E40E942C1D18161CF46DE205
:1017000070E004C0C801B7010E94E21BCB011F9129
:101710000F91FF90EF90DF90CF90BF90AF909F9090
:101720008F907F906F905F904F903F902F90089593
:10173000CF92DF92EF92FF920F931F93CF93DF939D
:1017400084E061E00E94D51584E061E00E94F51517
:10175000C0E0D0E074E3C72E78E0D72E08EB1BE0A2
:101760006CE3E62E6FE0F62EC130D10591F0C23069
:10177000D1051CF4209741F026C0C230D10591F06C
:10178000C330D10501F517C0F0928900E0928800BE
:1017900004C0D0928900C092880010938B000093FF
:1017A0008A0011C01093890000938800F0928B008A
:1017B000E0928A0008C01093890000938800D092BC
:1017C0008B00C0928A0060E273E080E090E00E94AB
:1017D00071152196C430D10539F688EB9BE09093C2
:1017E00089008093880090938B0080938A0084E026
:1017F00060E00E94F51584E060E00E94D515DF915D
:10180000CF911F910F91FF90EF90DF90CF900895AF
:101810008AE060E00E94F5158AE061E00E94D5153B
:1018200089E060E00E94F51589E061E00E94D5152D
:1018300082EA809380008AE18093810088EB9BE0BC
:10184000909389008093880090938B0080938A0006
:1018500080E49CE99093870080938600EFE6F0E0B7
:1018600080818062808392E09093B00085E08093D5
:10187000B1008AE88093B300909370007894089543
:1018800083E061E028E833E140E050E00E949116F7
:10189000CB01672B21F480914302909144029093F5
:1018A00044028093430220910A0230910B02281BCC
:1018B000390BC901089582E061E028E833E140E096
:1018C00050E00E949116CB01672B21F480914502D4
:1018D000909146029093460280934502209108021F
:1018E00030910902281B390BC90108956F927F922C
:1018F0008F929F92AF92BF92CF92DF92EF92FF9220
:101900000F931F93CF93DF930E9463152091F101F2
:101910003091F201EB01C21BD30BC531D10508F4A4
:1019200009C28091AD019091AE01892B09F0A9C047
:101930000E94B1017C2E6D2E20910402309105028F
:10194000281B390B80911502992787FD9095A901D5
:10195000481B590BCA0160E0AE010E9414094C01FA
:10196000A0900602B09007020E94B1019C011816D7
:10197000190634F4B901882777FD8095982F08C09F
:1019800066277727681B790B882777FD8095982F26
:101990000E94151C2AE939E949E95EE30E94371DD6
:1019A0006B017C010E94D50100271127081B190B30
:1019B0008091C401992787FD9095081B190BB501EB
:1019C000882777FD8095982F0E94151CA701960106
:1019D0000E94AD1A0E94E21BC801860F971F672D57
:1019E000762D0E9469087C018AE590E088199909A2
:1019F0009C01442737FD4095542F253B3105410577
:101A0000510524F024EB30E040E050E0CA01B90178
:101A100057FF04C060E070E080E090E024E130E037
:101A200040E050E00E94191E60557B4F7093890082
:101A3000609388008AE590E08E199F099C014427F5
:101A400037FD4095542F253B31054105510524F0C4
:101A500024EB30E040E050E0CA01B90157FF04C078
:101A600060E070E080E090E024E130E040E050E0B1
:101A70000E94191E60557B4F70938B0060938A0003
:101A8000C0C00E945B0C181619061CF40E945B0C67
:101A900005C00E945B0C909581959F4F4A9784F4F6
:101AA0000E94400C181619061CF40E94400C05C038
:101AB0000E94400C909581959F4F4A970CF4D8C096
:101AC0000E945B0C7C010E94B101CC24DD24C81A69
:101AD000D90A80911502992787FD9095C81AD90ACD
:101AE0000027F7FC0095102FC801B7010E94151CB4
:101AF00020E030E040E05FE30E94371D0E94E21BDF
:101B0000C601860F971F60E0AE010E9414095C01B8
:101B10000E94400C7C010E94D501CC24DD24C81A0F
:101B2000D90A8091C401992787FD9095C81AD90ACE
:101B30000027F7FC0095102FC801B7010E94151C63
:101B400020E030E040E05FE30E94371D0E94E21B8E
:101B5000C601860F971FBE010E9469087C018AE5B5
:101B600090E08A199B099C01442737FD4095542F2A
:101B7000253B31054105510524F024EB30E040E0E0
:101B800050E0CA01B90157FF04C060E070E080E096
:101B900090E024E130E040E050E00E94191E6055E2
:101BA0007B4F70938900609388008AE590E08E19DE
:101BB0009F099C01442737FD4095542F253B310553
:101BC0004105510524F024EB30E040E050E0CA012B
:101BD000B90157FF04C060E070E080E090E024E1CC
:101BE00030E040E050E00E94191E60557B4F70933A
:101BF0008B0060938A0083E290E0909300028093D0
:101C0000FF010091FF01109100026091BC017091F1
:101C1000BD018091BE019091BF010E94E21B9B011A
:101C2000AC018091FD019091FE01281B390BC80188
:101C3000B901AE010E94BF098093030290E0A0E0C9
:101C4000B0E085369105A105B10524F084E690E069
:101C5000A0E0B0E087578093B3000E9463156093C3
:101C6000F1017093F2018093F3019093F40162C04B
:101C70000E94B101909581959F4F60E0AE010E9456
:101C800014098C010E94D501909581959F4FBE014A
:101C90000E9469087C018AE590E0801B910B9C0101
:101CA000442737FD4095542F253B3105410551050B
:101CB00024F024EB30E040E050E0CA01B90157FFC6
:101CC00004C060E070E080E090E024E130E040E0BB
:101CD00050E00E94191E60557B4F709389006093FD
:101CE00088008AE590E08E199F099C01442737FD02
:101CF0004095542F253B31054105510524F024EB37
:101D000030E040E050E0CA01B90157FF04C060E094
:101D100070E080E090E024E130E040E050E00E949C
:101D2000191E60557B4F70938B0060938A0083E08F
:101D300090E063CFDF91CF911F910F91FF90EF90D3
:101D4000DF90CF90BF90AF909F908F907F906F90DB
:101D500008952F923F924F925F926F927F928F924F
:101D60009F92AF92BF92CF92DF92EF92FF920F932A
:101D70001F93DF93CF9300D000D0CDB7DEB73B01E8
:101D80004C0119012A01C801B701A40193010E9465
:101D9000AC1A25E33AEF4EE85CE30E94371D20E0E1
:101DA00030E040E05FE30E94371D0E949A1D9B01D6
:101DB000AC010E94371D69837A838B839C83C401A5
:101DC000B30125E33AEF4EE85CE30E94371D0E9421
:101DD000771B3B014C01C801B70125E33AEF4EE800
:101DE0005CE30E94371D0E94771B9B01AC01C4017C
:101DF000B3010E94371D3B014C01C601B501A20190
:101E000091010E94AC1A25E33AEF4EE85CE30E9490
:101E1000371D20E030E040E05FE30E94371D0E9464
:101E20009A1D7B018C01C401B301A80197010E9496
:101E3000371DA80197010E94371D9B01AC016981E4
:101E40007A818B819C810E94AD1A7B018C010E945A
:101E5000A41D5B016C0160E070E080E89FE3A801D5
:101E600097010E94AC1A0E94A41D9B01AC01C601FF
:101E7000B5010E94201B9B01AC010E94AD1A20E716
:101E80003DE642EC5AE40E94371D0E94E71BCB015D
:101E90000F900F900F900F90CF91DF911F910F91A6
:101EA000FF90EF90DF90CF90BF90AF909F908F907A
:101EB0007F906F905F904F903F902F900895AF92DA
:101EC000BF92CF92DF92EF92FF920F931F93609198
:101ED000D8017091D9018091DA019091DB012091B4
:101EE000DC013091DD014091DE015091DF01E09095
:101EF0001D02F0901E0200911F0210912002A0907E
:101F00002102B0902202C0902302D09024020E94AD
:101F1000A90E90930D0280930C021F910F91FF90D8
:101F2000EF90DF90CF90BF90AF9008952F923F92A7
:101F30004F925F926F927F928F929F92AF92BF92D9
:101F4000CF92DF92EF92FF920F931F93DF93CF9385
:101F5000CDB7DEB728970FB6F894DEBF0FBECDBF62
:101F600019012A0125E33AEF4EE85CE30E94371D90
:101F70003B014C01C801B70125E33AEF4EE85CE3B1
:101F80000E94371D7B018C01C601B501A2019101A0
:101F90000E94AC1A25E33AEF4EE85CE30E94371D3D
:101FA0005B016C01C6010E949A1D1B012C01B70147
:101FB000C8010E94771B6D837E838F839887C2013F
:101FC000B1012D813E814F8158850E94371D1B0133
:101FD0002C01B301C4010E94771B69837A838B8330
:101FE0009C83B701C8010E949A1D7B018C01B3013B
:101FF000C4010E949A1D3B014C01B501C6010E941B
:10200000771B5B016C0169817A818B819C81A801BE
:1020100097010E94371D7B018C01C401B3012D8102
:102020003E814F8158850E94371DA60195010E946F
:10203000371D9B01AC01C801B7010E94AC1A9B017E
:10204000AC01B101C2010E94201B21EE3EE245E637
:1020500052E40E94371D7B018C0120E030E040E813
:102060005FE30E94731B181654F0C801B70120E00B
:1020700030E044EB53E40E94AD1A7B018C01C801AF
:10208000B7010E94E21BCB0128960FB6F894DEBF81
:102090000FBECDBFCF91DF911F910F91FF90EF90B9
:1020A000DF90CF90BF90AF909F908F907F906F9078
:1020B0005F904F903F902F9008952F923F924F92B4
:1020C0005F926F927F928F929F92AF92BF92CF92C8
:1020D000DF92EF92FF920F931F93CF93DF93809144
:1020E000F00180FFBEC08E7F8093F0010E946315D7
:1020F0003B014C012090F5013090F6014090F70132
:102100005090F8010E947606813081F480911A0285
:1021100090E00E94B9030E945F0F80910C029091A1
:102120000D026091C6010E948C030AC00E947606CF
:10213000823031F480E090E00E94B9030E945F0F8A
:102140006091D8017091D9018091DA019091DB0101
:102150002091DC013091DD014091DE015091DF01E1
:10216000E0901D02F0901E0200911F0210912002CB
:10217000A0902102B0902202C0902302D0902402AD
:102180000E94960F7C0190930F0280930E02609143
:10219000E8017091E9018091EA019091EB010E94C0
:1021A000E21BE61AF70A0027F7FC0095102FC8017A
:1021B000B7010E94151C7B018C0120E030E044E354
:1021C00053E40E942C1D181654F4C801B70120E0F6
:1021D00030E044EB53E40E94AC1A7B018C01C8014F
:1021E000B70120E030E044E353EC0E94731B8823E6
:1021F00054F4C801B70120E030E044EB53E40E94FE
:10220000AD1A7B018C01C801B7010E94E21B88272F
:1022100077FD8095982F0E94151C7B018C01621818
:10222000730884089508C401B3010E94131C20E0C0
:1022300030E04AE754E40E947A1B9B01AC01C801DC
:10224000B7010E94B10A90930502809304020E9494
:1022500063156093F5017093F6018093F7019093F5
:10226000F8018091F00181FF8CC08D7F8093F00197
:1022700060911B0270911C0280E090E00E94131C90
:102280009B01AC016091E0017091E1018091E2015C
:102290009091E3010E94AC1A0E94E21BAC01CB01B9
:1022A000DA01B7FF04C080E090E0A0E0B0E0609108
:1022B000250270912602681B790B6330710514F0BA
:1022C00062E070E08B018FEF663F780714F406EF51
:1022D0001FEF065F1F4FE801CC0FDD1FCC0FDD1F86
:1022E0000A501040CF31D10514F0CEE1D0E0D093A8
:1022F0000002C093FF016091E4017091E5018091BB
:10230000E6019091E70120E030E040E051E40E94D6
:10231000731B18162CF02896D0930002C093FF016F
:10232000B801882777FD8095982F0E94151C20E022
:1023300030E040EC5FE30E94371D7B018C0120E020
:1023400030E040E651EC0E94731B88231CF462EFDE
:102350007FEF11C0C801B70120E030E040E85FE343
:102360000E942C1D18161CF461E070E004C0C80126
:10237000B7010E94E21B70930702609306020E945D
:10238000A205DF91CF911F910F91FF90EF90DF9009
:10239000CF90BF90AF909F908F907F906F905F9005
:1023A0004F903F902F9008951F93182F8AEF92E03F
:1023B0000E9448181817D0F71F9108956F927F92C6
:1023C0008F929F92AF92BF92CF92DF92EF92FF9245
:1023D0000F931F93DF93CF93CDB7DEB7A8970FB6B8
:1023E000F894DEBF0FBECDBF8AEF92E00E9448187E
:1023F000833308F4E2C110E04E010894811C911C63
:10240000F1E06F2E712CD2C1113099F0113020F013
:10241000123009F0CBC11AC081E00E94D4118AEFBA
:1024200092E00E945C18853B910509F0BFC111E064
:10243000BDC181E00E94D4118AEF92E00E945C1835
:102440008236910509F0B1C112E0B0C184E00E946A
:10245000D4118AEF92E00E945C18E82E8AEF92E095
:102460000E945C18F82E8AEF92E00E945C18182FE8
:102470008AEF92E00E945C1890912F029E0D40918D
:102480003002392F3F0D232F210F940F930F920FFE
:10249000280F20932F02920F909330025401640171
:1024A000C401810F911D8C0114C081E00E94D411E0
:1024B0008AEF92E00E945C18F60181936F0190917F
:1024C0002F02980F90932F0280913002890F8093F2
:1024D0003002C016D10649F781E00E94D4118AEF7C
:1024E00092E00E945C18182F8AEF92E00E945C181C
:1024F00010932F02112309F447C1809330028823DF
:1025000009F442C1F1E0EF1609F03EC123E0F216F2
:1025100009F4B0C082E1F81609F4BFC092E0F916E0
:1025200009F032C189818093D4018A818093D501D9
:102530008B818093D6018C818093D7018091D401C7
:102540009091D501A091D601B091D701809331022D
:1025500090933202A0933302B09334028D81809322
:10256000D4018E818093D5018F818093D601888597
:102570008093D7016091D4017091D5018091D601EB
:102580009091D7010E94151C20E836E948E15BE4F0
:102590000E947A1B6093DC017093DD018093DE0161
:1025A0009093DF0189858093D4018A858093D5013A
:1025B0008B858093D6018C858093D7016091D4015F
:1025C0007091D5018091D6019091D7010E94151C80
:1025D00020E836E948E15BE40E947A1B6093D80169
:1025E0007093D9018093DA019093DB018D858093FC
:1025F000D4018E858093D5018F858093D6018889FB
:102600008093D7018091D4019091D501A091D601FA
:10261000B091D7018093350290933602A093370290
:10262000B093380289898093D4018A898093D50137
:102630008B898093D6018C898093D7016091D401D6
:102640007091D5018091D6019091D7010E94151CFF
:1026500020E030E04AE754E40E947A1B6093E001F6
:102660007093E1018093E2019093E3018091F00186
:10267000816084C08D81833038F01092AE01109259
:10268000AD018CE061E006C07092AE016092AD01D8
:102690008CE060E00E94F51577C089898093D401B1
:1026A0008A898093D5018B898093D6018C89809308
:1026B000D7016091D4017091D5018091D60190919C
:1026C000D7010E94151C20E030E048EC52E40E9443
:1026D0007A1B0E94E21B6093390270933A02809346
:1026E0003B0290933C028D898093D4018E89809324
:1026F000D5018F898093D601888D8093D701609111
:10270000D4017091D5018091D6019091D7010E949A
:10271000151C20E030E048EC52E40E947A1B6093E4
:10272000E4017093E5018093E6019093E701898DC0
:102730008093D4018A8D8093D5018B8D8093D601AF
:102740008C8D8093D7016091D4017091D5018091D7
:10275000D6019091D7010E94151C20E030E543EC92
:1027600057E40E947A1B6093E8017093E90180931B
:10277000EA019093EB018091F00182608093F00177
:1027800003C0F50111925F01AC14BD04D1F71092A2
:102790002F02109230020E946315609347027093DB
:1027A00048028093490290934A0210E08AEF92E037
:1027B0000E944818882309F027CE0E9463152091B3
:1027C0004702309148024091490250914A02621BEF
:1027D000730B840B950B615D77408040904050F007
:1027E0008CE060E00E94F51581E090E09093AE01EE
:1027F0008093AD01A8960FB6F894DEBF0FBECDBF93
:10280000CF91DF911F910F91FF90EF90DF90CF90CC
:10281000BF90AF909F908F907F906F9008950E948F
:10282000DE118CE061E00E94F51569E170E080E066
:1028300090E00E9471158CE060E00E94F51569E15E
:1028400070E080E090E00E9471158091AD01909160
:10285000AE01892B21F708950E945D100E94760C2D
:102860000E9433020E94DE110E9498060E94AD066B
:102870008091AD019091AE01892B21F00E945B0CFB
:102880000E94400C08958CE061E00E94D5158AEF0B
:1028900092E040E056E960E070E00E944F17089532
:1028A0008CE061E00E94D5158AEF92E040E056E9A5
:1028B00060E070E00E944F170E940F140895CF93BC
:1028C000DF938DE061E00E94D51582E060E00E9418
:1028D000D51583E060E00E94D51584E060E00E9499
:1028E000D51585E060E00E94D51586E061E00E9484
:1028F000F51586E060E00E94D51587E061E00E9452
:10290000D51587E060E00E94F51588E061E00E943F
:10291000D5158BE061E00E94D5150E94080C88EB6C
:102920009BE0909389008093880090938B00809324
:102930008A0089E88093B3001092AF0180917A00F9
:10294000886880937A0080917A00806480937A000E
:1029500082E061E020E23EE440E050E00E94911617
:10296000709309026093080283E061E020E23EE494
:1029700040E050E00E94911670930B0260930A02AF
:1029800081E090E0909302028093010286E00E9431
:102990004216892B29F560ED77E080E090E00E94F7
:1029A00071150E9450140E940F140E94980B0E94EF
:1029B000A5040CC00E94980BC0E0D0E00E94DE117C
:1029C0000E9433022196C932D105C1F786E00E94E8
:1029D0004216892B79F30E940A0610921A0206C049
:1029E0000E9443140E94A5040E948C048AEF92E086
:1029F00066E971E00E9427198AEF92E067E971E0C9
:102A00000E9427190E941104DF91CF9108950E941E
:102A10005F148091C70180931A0281E090E0909347
:102A200002028093010208950E949B150E940715DF
:102A30000E942C14FDCF1F920F920FB60F921124FB
:102A40002F933F938F939F93AF93BF938091710286
:102A500090917202A0917302B0917402309175024C
:102A60000196A11DB11D232F2D5F2D3720F02D576D
:102A70000196A11DB11D2093750280937102909360
:102A80007202A0937302B093740280916D029091D0
:102A90006E02A0916F02B09170020196A11DB11D4E
:102AA00080936D0290936E02A0936F02B0937002B8
:102AB000BF91AF919F918F913F912F910F900FBE3A
:102AC0000F901F9018958FB7F89420917102309154
:102AD000720240917302509174028FBFB901CA0112
:102AE0000895EF92FF920F931F937B018C018FB794
:102AF000F89440917102509172026091730270914A
:102B000074028FBF2FB7F894809171029091720276
:102B1000A0917302B09174022FBF841B950BA60B7A
:102B2000B70BE816F9060A071B0760F71F910F910C
:102B3000FF90EF900895789484B5826084BD84B549
:102B4000816084BD85B5826085BD85B5816085BDA8
:102B5000EEE6F0E0808181608083E1E8F0E0808152
:102B600082608083808181608083E0E8F0E0808102
:102B700081608083E1EBF0E0808184608083E0EB22
:102B8000F0E0808181608083EAE7F0E0808184600A
:102B90008083808182608083808181608083808166
:102BA000806880831092C1000895282F30E0C90109
:102BB0008B519F4FFC0194912F523F4FF90184910B
:102BC000882391F0E82FF0E0EE0FFF1FED54FF4F48
:102BD000A591B491662329F48C91909589238C93C7
:102BE00008958C91892B8C930895482F50E0CA0149
:102BF00087509F4FFC012491CA018B519F4FFC01CC
:102C000094914F525F4FFA0134913323D1F1222333
:102C100031F1233021F4809180008F7705C024307A
:102C200031F4809180008F7D8093800018C0213026
:102C300019F484B58F7704C0223021F484B58F7DD8
:102C400084BD0DC0263021F48091B0008F7705C07F
:102C5000273029F48091B0008F7D8093B000E32F5E
:102C6000F0E0EE0FFF1FE354FF4FA591B4916623F0
:102C700029F48C91909589238C9308958C91892BBC
:102C80008C930895682F70E0CB0187509F4FFC0113
:102C90002491CB018B519F4FFC0144916F527F4F88
:102CA000FB019491992319F420E030E038C02223ED
:102CB00031F1233021F4809180008F7705C02430DA
:102CC00031F4809180008F7D8093800018C0213086
:102CD00019F484B58F7704C0223021F484B58F7D38
:102CE00084BD0DC0263021F48091B0008F7705C0DF
:102CF000273029F48091B0008F7D8093B000892F18
:102D000090E0880F991F89539F4FFC01A591B491C2
:102D10008C9120E030E0842311F021E030E0C90103
:102D20000895DF92EF92FF920F931F93A82FB0E0C8
:102D3000CD018B519F4FFC01D490AF52BF4FFD018D
:102D40008491662311F490E001C09D2D6FEFE62E73
:102D50006FEFF62E6FEF062F6FE0162FE222F322B1
:102D600004231523682F70E0660F771F69537F4F88
:102D700020E030E040E050E0FB01A591B4910AC0B2
:102D80002E153F054007510709F440C02F5F3F4F04
:102D90004F4F5F4F8C918D21891791F30AC02E15EB
:102DA0003F054007510791F12F5F3F4F4F4F5F4F56
:102DB00003C0FB01A591B4918C918D21891779F7FE
:102DC00020E030E040E050E0FB01A591B49104C068
:102DD0002F5F3F4F4F4F5F4F8C918D218917C1F36C
:102DE000CA01B9012AE030E040E050E00E94191E1B
:102DF0009B01AC01205F3F4F4F4F5F4F84E05695E2
:102E00004795379527958A95D1F704C020E030E0A3
:102E100040E050E0B901CA011F910F91FF90EF907F
:102E2000DF9008951F920F920FB60F9211242F93E7
:102E30003F934F935F936F937F938F939F93AF9342
:102E4000BF93EF93FF934091C600E091F602F0919B
:102E5000F702CF01019660E870E00E94381E9C01E5
:102E60008091F8029091F9022817390739F0EA5851
:102E7000FD4F40833093F7022093F602FF91EF91CC
:102E8000BF91AF919F918F917F916F915F914F9182
:102E90003F912F910F900FBE0F901F9018955F924A
:102EA0006F927F928F929F92AF92BF92CF92DF925A
:102EB000EF92FF920F931F93CF93DF93EC013A01B0
:102EC0004B01413482E458078FE0680780E07807BF
:102ED0000CF07FC060E874E88EE190E0A4019301FB
:102EE0000E946D1E2150304040405040CA01B9013F
:102EF00022E030E040E050E00E946D1E59016A017E
:102F0000A6019501209530954095509594E0220FAB
:102F1000331F441F551F9A95D1F760E074E284EF88
:102F200090E00E946D1ECA01B9012FEF30E040E031
:102F300050E00E94191EA40193010E946D1EC90158
:102F400081509F4F181619061CF4522E5A9403C034
:102F500055245394521A60E079E08DE390E0A40187
:102F600093010E946D1E2150304040405040CA01E4
:102F7000B90122E030E040E050E00E946D1E209553
:102F800030954095509583E0220F331F441F551F05
:102F90008A95D1F760E074E284EF90E00E946D1EA4
:102FA000CA01B9012FEF30E040E050E00E94191E45
:102FB000A40193010E946D1EC90181509F4F1816F4
:102FC00019061CF4822F815002C081E0821B8515F6
:102FD00000F5E885F98581E090E00A8802C0880F55
:102FE000991F0A94E2F7808360E079E08DE390E036
:102FF000A40193010E946D1E21503040404050407A
:10300000CA01B90122E030E040E050E00E946D1EAC
:1030100004C0E885F98510829501EC81FD8130833B
:10302000EE81FF812083EA85FB85208141E050E02D
:10303000CA010E8402C0880F991F0A94E2F7282B58
:103040002083EA85FB852081CA010F8402C0880F96
:10305000991F0A94E2F7282B2083EA85FB8580815B
:10306000088802C0440F551F0A94E2F7842B80831E
:10307000DF91CF911F910F91FF90EF90DF90CF9054
:10308000BF90AF909F908F907F906F905F900895CA
:10309000DC011296ED91FC911397E058FF4F81915E
:1030A000919180589F4F20813181821B930B60E862
:1030B00070E00E94381E0895CF93DF93DC011296D2
:1030C000ED91FC911397EF01CE57DF4F4881598165
:1030D000E058FF4F80819181E058F04084179507B8
:1030E00019F42FEF3FEF0CC0E40FF51F2081CA0148
:1030F000019660E870E00E94381E9983888330E072
:10310000C901DF91CF910895FC01A085B185218986
:103110008C9190E0022E02C0959587950A94E2F773
:1031200080FFF6CF0484F585E02D608308958EEC52
:1031300091E09093FB028093FA0286E792E09093ED
:10314000FD028093FC0285EC90E09093FF02809357
:10315000FE0284EC90E0909301038093000380ECE6
:1031600090E0909303038093020381EC90E09093AE
:1031700005038093040386EC90E09093070380930B
:10318000060384E08093080383E08093090387E0CB
:1031900080930A0385E080930B0381E080930C0306
:1031A00008950F931F93CF93DF938C01EB0109C018
:1031B0002196D801ED91FC910190F081E02DC8019C
:1031C000099568816623A1F7DF91CF911F910F9137
:1031D0000895EF92FF920F931F93CF93DF938C018B
:1031E0007B01EA010CC0D7016D917D01D801ED9101
:1031F000FC910190F081E02DC8010995219720975D
:1032000091F7DF91CF911F910F91FF90EF9008956B
:10321000DC01ED91FC910280F381E02D0995089588
:103220000F931F938C01DC01ED91FC910190F081D3
:10323000E02D6DE00995D801ED91FC910190F081B0
:10324000E02DC8016AE009951F910F9108950F9331
:103250001F938C010E940819C8010E9410191F9128
:103260000F9108952F923F924F925F926F927F92AB
:103270008F929F92AF92BF92CF92DF92EF92FF9286
:103280000F931F93DF93CF93CDB7DEB7A0970FB601
:10329000F894DEBF0FBECDBF1C016A017B01411552
:1032A00051056105710549F4DC01ED91FC91019036
:1032B000F081E02D60E3099554C0882499245401DD
:1032C000422E55246624772401E010E00C0F1D1FC8
:1032D000080D191DC701B601A30192010E944B1EE2
:1032E000F80160830894811C911CA11CB11CC701CA
:1032F000B601A30192010E944B1EC901DA016C01C3
:103300007D01C114D104E104F104F1F681E0E82E5D
:10331000F12CEC0EFD1EE80CF91C3E010894611C1A
:10332000711CD501C4010197A109B1096C01C8182C
:10333000D90814C0F601EE0DFF1D60816A3010F44B
:10334000605D01C0695CD101ED91FC910190F0815B
:10335000E02DC10109950894E108F1086E147F047D
:1033600049F7A0960FB6F894DEBF0FBECDBFCF9140
:10337000DF911F910F91FF90EF90DF90CF90BF9062
:10338000AF909F908F907F906F905F904F903F9005
:103390002F9008952AE00E9432190895AB0160E051
:1033A00070E00E94CA1908950F931F938C01AB011E
:1033B00060E070E00E94CA19C8010E9410191F91B4
:1033C0000F910895EF92FF920F931F93CF93DF9386
:1033D000EC017A018B0177FF0FC0E881F981019040
:1033E000F081E02D6DE2099510950095F094E09440
:1033F000E11CF11C011D111DCE01B801A7012AE03D
:103400000E943219DF91CF911F910F91FF90EF90A1
:103410000895AB01662757FD6095762F0E94E2194B
:1034200008950F931F938C01AB01662757FD60959C
:10343000762F0E94E219C8010E9410191F910F9166
:1034400008959F92AF92BF92CF92DF92EF92FF9238
:103450000F931F93CF93DF93EC017A018B01922E90
:10346000CB01BA0120E030E040E050E00E94731B45
:10347000882364F4E881F9810190F081E02DCE0188
:103480006DE2099517FB109517F9109520E030E0D3
:1034900040E05FE3AA240BC0CA01B90120E030E09C
:1034A00040E251E40E947A1B9B01AC01A394A91451
:1034B00098F3C801B7010E94AD1A5B016C010E942C
:1034C000E71B7B018C01CE01B801A7010E94CA193C
:1034D000992029F0CE016BEA71E00E940819C80119
:1034E000B7010E94131C9B01AC01C601B5010E94EB
:1034F000AC1A20C020E030E040E251E40E94371DC9
:103500007B018C010E94E21B5B016C01CC24B7FCA7
:10351000C094DC2CCE01B601A5010E94E219C601BF
:10352000B5010E94151C9B01AC01C801B7010E94A6
:10353000AC1A9A949920F1F6DF91CF911F910F91D7
:10354000FF90EF90DF90CF90BF90AF909F90089545
:1035500022E00E94211A08955058BB27AA270ED0B6
:1035600030C2F0D130F0F5D120F031F49F3F11F4AA
:103570001EF4C0C10EF4E095E7FBB6C1E92F43D2BB
:1035800080F3BA17620773078407950718F071F480
:103590009EF55BC20EF4E0950B2EBA2FA02D0B0109
:1035A000B90190010C01CA01A0011124FF27591B88
:1035B00099F0593F50F4503E68F11A16F040A22F8E
:1035C000232F342F4427585FF3CF469537952795FF
:1035D000A795F0405395C9F77EF41F16BA0B620BFE
:1035E000730B840BBAF09150A1F0FF0FBB1F661F45
:1035F000771F881FC2F70EC0BA0F621F731F841F88
:1036000048F4879577956795B795F7959E3F08F0AD
:10361000B3CF9395880F08F09927EE0F979587956C
:10362000089590D158F080E891E009F49EEF91D18F
:1036300028F040E851E059F45EEF09C05BC105C2D3
:10364000E92FE078E0D168F3092E052AC1F32617A7
:1036500037074807590738F00E2E07F8E02569F0BC
:10366000E025E0640AC0EF6307F8009407FADB0185
:10367000B9019D01DC01CA01AD01EF934AD0A1D18E
:103680000AD05F91552331F02BED3FE049E450FD26
:1036900049EC63CF0895DF93DD27B92FBF7740E86A
:1036A0005FE31616170648075B0710F4D92FD8D129
:1036B0009F938F937F936F9391D2E8E6F0E01DD1B3
:1036C00080D12F913F914F915F91DDD1DD2349F062
:1036D0009058A2EA2AED3FE049EC5FE3D0785D27FD
:1036E0004DDFDF916EC1DCD008F481E0089539D15F
:1036F000E39578C10CD065C12CD140F023D130F0D6
:1037000021F45F3F19F0F0C05111A0C1F3C07BD18B
:1037100098F39923C9F35523B1F3951B550BBB2798
:10372000AA2762177307840738F09F5F5F4F220F45
:10373000331F441FAA1FA9F333D00E2E3AF0E0E83E
:1037400030D091505040E695001CCAF729D0FE2F8A
:1037500027D0660F771F881FBB1F2617370748071C
:10376000AB07B0E809F0BB0B802DBF01FF279358D2
:103770005F4F2AF09E3F510568F0B6C067C15F3FBA
:10378000ECF3983EDCF3869577956795B795F795BA
:103790009F5FC9F7880F911D9695879597F90895B2
:1037A000E1E0660F771F881FBB1F6217730784074E
:1037B000BA0720F0621B730B840BBA0BEE1F88F75D
:1037C000E095089504D06894B11140C1089523D1C3
:1037D00088F09F5790F0B92F9927B751A0F0D1F0FA
:1037E000660F771F881F991F1AF0BA95C9F712C084
:1037F000B13081F02AD1B1E0089527C1672F782F29
:103800008827B85F39F0B93FCCF3869577956795EF
:10381000B395D9F73EF490958095709561957F4F5B
:103820008F4F9F4F0895E89409C097FB3EF4909501
:103830008095709561957F4F8F4F9F4F9923A9F089
:10384000F92F96E9BB279395F69587957795679518
:10385000B795F111F8CFFAF4BB0F11F460FF1BC05C
:103860006F5F7F4F8F4F9F4F16C0882311F096E9EF
:1038700011C0772321F09EE8872F762F05C066239D
:1038800071F096E8862F70E060E02AF09A95660F56
:10389000771F881FDAF7880F9695879597F908950F
:1038A000990F0008550FAA0BE0E8FEEF1616170651
:1038B000E807F907C0F012161306E407F50798F0B9
:1038C000621B730B840B950B39F40A2661F0232BD2
:1038D000242B252B21F408950A2609F4A140A6954E
:1038E0008FEF811D811D089597F99F6780E870E033
:1038F00060E008959FEF80EC0895DF93CF931F93CE
:103900000F93FF92EF92DF927B018C01689405C0C8
:10391000DA2EEF01B8D0FE01E894A59125913591FA
:1039200045915591AEF3EF0129DEFE019701A80103
:10393000DA9479F7DF90EF90FF900F911F91CF917C
:10394000DF91089500240A94161617061806090632
:10395000089500240A941216130614060506089505
:10396000C9CF59D0E8F3E894EFEFBB273FE048EC2C
:103970005FE76B3D73078407950708F1FF279F57A3
:10398000B25A6A4D7F40894CF04032F4BE556542D0
:10399000704F8643FF4F0894EE1F915030F0BB0FDD
:1039A000661F771F881FFF1FEBCF9EE7882332F02B
:1039B000BB0F661F771F881F9A95C1F79395E095F7
:1039C00010C1092E0394000C11F4882352F0BB0F90
:1039D00040F4BF2B11F460FF04C06F5F7F4F8F4F27
:1039E0009F4F0895EF93E0FF06C0A2EA2AED3FE063
:1039F00049EC5FEBC3DDE5DF0F90039401FC9058C9
:103A0000E5E9F0E005C157FD9058440F551F59F006
:103A10005F3F71F04795880F97FB991F61F09F3FBB
:103A200079F087950895121613061406551FF2CFE4
:103A30004695F1DF08C0161617061806991FF1CF34
:103A400086957105610508940895E894BB2766275B
:103A50007727CB0197F9089523DF08F48FEF0895B6
:103A60009B01AC0160E070E080E89FE343CE0BD0A7
:103A7000A8CF68DF28F06DDF18F0952309F034CF68
:103A800039CF1124E3CFBFDFA0F3959FD1F3950F7A
:103A900050E0551F629FF001729FBB27F00DB11DD2
:103AA000639FAA27F00DB11DAA1F649F6627B00D62
:103AB000A11D661F829F2227B00DA11D621F739F4B
:103AC000B00DA11D621F839FA00D611D221F749F59
:103AD0003327A00D611D231F849F600D211D822FA0
:103AE000762F6A2F11249F5750408AF0E1F08823E7
:103AF0004AF0EE0FFF1FBB1F661F771F881F9150F4
:103B00005040A9F79E3F510570F0EECE9FCF5F3F2A
:103B1000ECF3983EDCF3869577956795B795F79526
:103B2000E7959F5FC1F7FE2B880F911D96958795AE
:103B300097F908959F9315DF0F9007FCEE5F52CF22
:103B400011F40EF4D7CE4DC066DFD0F39923D9F32C
:103B5000CEF39F57550B87FF54D056959795B0E0FD
:103B600020F4660F771F881FBB1F1F930F9300243D
:103B70009001A0018001F001A0E80E0F1F1F0A1E96
:103B8000511D601B710B8009B50B48F4600F711F4C
:103B9000801DB51F0E1B1F0B0A0A510907C02E0FEF
:103BA0003F1F4A1F0E0F1F1F0A1E511D660F771F52
:103BB000881FBB1FA695F795E795F8F60617170718
:103BC00008065B07211D311D411D0F911F91B90191
:103BD000842F9158880F9695879508959B01AC0185
:103BE00046CF9F3F49F0915028F486957795679589
:103BF000B7959F5F80389F4F880F9695879597F967
:103C0000089591505040660F771F881FD2F708958E
:103C10009F938F937F936F93FF93EF939B01AC01DF
:103C200026DFEF91FF9169DE2F913F914F915F91D8
:103C30001ECF629FD001739FF001829FE00DF11DA6
:103C4000649FE00DF11D929FF00D839FF00D749F16
:103C5000F00D659FF00D9927729FB00DE11DF91FC2
:103C6000639FB00DE11DF91FBD01CF01112408951F
:103C700097FB092E07260AD077FD04D049D006D03D
:103C800000201AF4709561957F4F0895F6F790958E
:103C900081959F4F0895A1E21A2EAA1BBB1BFD011F
:103CA0000DC0AA1FBB1FEE1FFF1FA217B307E4071B
:103CB000F50720F0A21BB30BE40BF50B661F771F73
:103CC000881F991F1A9469F7609570958095909553
:103CD0009B01AC01BD01CF01089597FB092E05267C
:103CE0000ED057FD04D0D7DF0AD0001C38F4509511
:103CF0004095309521953F4F4F4F5F4F0895F6F710
:103D000090958095709561957F4F8F4F9F4F089547
:103D1000AA1BBB1B51E107C0AA1FBB1FA617B707F1
:103D200010F0A61BB70B881F991F5A95A9F780950D
:103D30009095BC01CD010895EE0FFF1F0590F49101
:083D4000E02D0994F894FFCF77
:103D480023206F662057503A2000204C61743A2097
:103D580000204C6F6E3A200020416C743A200021FC
:103D68002121004C41543A002C4C4F4E3A002C5320
:103D780050443A002C4352543A002C414C543A00D7
:103D88002C414C483A002C4D534C3A002C4352538A
:103D98003A002C4245523A002C57504E3A002C44D7
:103DA80053543A002C4254563A002C5253503A007D
:103DB8002C2A2A2A00515151002C4153503A0054C0
:103DC80048483A002C524C4C3A002C5043483A0090
:103DD8002C5354543A00004172647570696C6F74C6
:103DE8002121212056322E342E36002E00010001CA
:103DF8000080FF430080FF430080FF430080FF43B3
:103E08000080FF43F4031E01E7030000000084184C
:043E1800D118E918BC
:00000001FF
