:100000000C9434000C9451000C9451000C94510049
:100010000C9451000C94A7010C9451000C945100C5
:100020000C9451000C9451000C9451000C9451000C
:100030000C947C010C9451000C9451000C945100D0
:100040000C946B010C9451000C9451000C945100D1
:100050000C9451000C9451000C9451000C945100DC
:100060000C9451000C94510011241FBECFEFD8E026
:10007000DEBFCDBF11E0A0E0B1E0E0E0FBE002C0F8
:1000800005900D92A431B107D9F711E0A4E1B1E0D8
:1000900001C01D92A033B107E1F70E9412040C9435
:1000A0007E050C940000CF93DF93A89515BCA89A09
:1000B00016BC10921D0182E085BDF0911901A0E0EF
:1000C00020E030E0C1E0D0E029C0A895A89A16BC95
:1000D00010921D01E0E011C089B190E086239723C2
:1000E000892B11F0E0911D0180911D0190E08E1B84
:1000F0009109099710F05F5F04C080911D01873757
:1001000058F3533018F0F62BAF5F03C04F5F453004
:10011000E1F62F5F3F4F2830310551F0BE01022E2E
:1001200002C0660F771F0A94E2F750E040E0CDCF9F
:10013000F09319018A2FDF91CF910895A89590919E
:1001400068009B7F9093680021E030E002C0220F9E
:10015000331F8A95E2F720936D00DA9A109214010A
:100160008091680084608093680015BCA89A16BCD2
:1001700010921D0182E085BD40E050E060E080917A
:100180001D01863718F020E030E01FC08091140177
:100190008823A9F31092140189B190E0822393235C
:1001A000892B31F0409116015091170161E0E7CFA2
:1001B000662329F32091160130911701241B350B7A
:1001C00015BCA89A16BC10921D01C90108950F9381
:1001D0001F9315BCA89A16BC10921D0182E085BD24
:1001E00000E061E070E024C0A895A89A16BC1092C7
:1001F0001D019B01002E02C0220F331F0A94E2F75B
:1002000040E00FC089B190E082239323892B11F045
:1002100040911D0180911D0190E0841B9109099777
:1002200050F480911D01873768F312C000E0DCCFE5
:100230000830D0F2FBCF10E0802F0E949E00815248
:10024000934087579540B8F71F5F1330A8F302C05B
:100250000F5FEECF1F910F910895A8958CED95E05B
:1002600090931F0180931E019093210180932001A0
:1002700028EE33E03093230120932201909325014F
:100280008093240130932701209326013093290184
:100290002093280130932B0120932A0130932D01C4
:1002A00020932C018CEE9CE290932F0180932E01E1
:1002B000089580912C0190912D01A0E0B0E001976C
:1002C000A109B109815E9440A040B04010F4299882
:1002D0000895299A08951F920F920FB60F92112434
:1002E0008F9380911D018F5F80931D018F910F90DF
:1002F0000FBE0F901F9018951F920F920FB60F927E
:1003000011248F939F93EF93FF937894809115011D
:100310008F5F8093150180911501893010F0109244
:100320001501E0911501F0E0EE0FFF1FE25EFE4FB8
:10033000808191819093890080938800FF91EF9153
:100340009F918F910F900FBE0F901F9018951F9245
:100350000F920FB60F9211248F939F9386B58093BF
:100360001C01A89B08C0A89A80911D018F5F8093F3
:100370001D0110921C0180911C0190911D01909310
:1003800017018093160181E0809314019F918F9152
:100390000F900FBE0F901F901895CF93DF93F89496
:1003A00015BCA89A16BC10921D0183E380938000AF
:1003B00088E1809381008CEE9CE290938900809389
:1003C00088008CE291E090938B0080938A0080916A
:1003D0006F00846080936F0086B3856086BB8091D8
:1003E0006E00816080936E00A89A2898209A289ABF
:1003F0002998219A299824982C9A1AB88FEF8BB9AA
:1004000088E08093150182E08093120189EE97E0E5
:100410009093110180931001C0EFD3E008C083E0F6
:10042000CF3FD80718F4CE010E945B052196CE017C
:10043000805FE82FF0E0E050FF4F6081662379F79E
:100440008FEF93E00E945B057894289815BCA89ADA
:1004500016BC10921D0182E085BD90E0A895A89A77
:1004600016BC10921D0180911D018637E0F39F5F3D
:100470009330A1F715BCA89A16BC10921D01289ABA
:10048000229ADF91CF910895CF93DF93C4E1D0E01A
:10049000CE0169EE77E00E946905229680E0CA32BB
:1004A000D807B1F7CAE2D0E0CE0162E00E945B0556
:1004B000219680E0C533D807B9F782E08093120116
:1004C00089EE97E09093110180931001DF91CF9115
:1004D00008950F931F93CF93DF93A89515BCA89A07
:1004E00016BC10921D0182E085BD90E01C9B02C0ED
:1004F00090E001C09F5F80911D01873708F0D5C053
:100500009436A0F3C7C08091190182FF7CC082E0BD
:1005100080931201CAE2D0E0CE01609112010E94E4
:100520005B05219640E0C533D407B1F727C0813081
:1005300009F069C080911901482F50E020E030E0B7
:10054000CA01022E02C0959587950A94E2F780FFB2
:100550000FC020931201CAE2D0E0CE0160911201D7
:100560000E945B05219680E0C533D807B1F706C02D
:100570002F5F3F4F2830310519F745C0A895C0E0DF
:10058000D0E010E000E0809112010E949E009C01EA
:10059000805293408957954018F4C20FD31F0F5FC4
:1005A0001F5F1A3081F7CE01602F70E00E9439057D
:1005B000A895CB01845A9640855F914078F4C4E1B8
:1005C000D0E08B01075E1F4FCE01B8010E94690584
:1005D000229680E0CA32D807B9F763C0CB018052B7
:1005E0009340855F914078F4C4E1D0E08B010951DC
:1005F0001040CE01B8010E946905229680E0CA32FF
:10060000D807B9F74EC00E94440232E022E021C070
:10061000289A90E0A89515BCA89A16BC10921D01C6
:1006200025BD80911D018637E0F39F5F933091F7E0
:10063000289890E0A89515BCA89A16BC10921D01A8
:1006400035BD80911D018637E0F39F5F9E3191F7A4
:10065000DFCF289A90E0A89515BCA89A16BC1092F6
:100660001D0125BD80911D018637E0F39F5F9E31FE
:1006700091F7289890E0A89515BCA89A16BC1092FE
:100680001D0135BD80911D018637E0F39F5F9330DA
:1006900091F7DFCFA89580911801823008F033CF11
:1006A00046CF2C9832E022E0B3CFDF91CF911F915B
:1006B0000F9108956F927F928F929F92AF92BF9207
:1006C000CF92DF92EF92FF920F931F93CF93DF931E
:1006D000A8955AE2E52E50E0F52E87014BE0842ED6
:1006E000912C8E0C9F1CC8010E944D05C82EA82E6F
:1006F000BB24CAE2D0E0DD24CE010E944D0590E08B
:100700008A159B0509F4D394219635E3632E30E0D6
:10071000732E8C169D0681F725E02D15A8F488E030
:10072000A816B10408F06DC0C09212019AE09D15A0
:1007300088F0C7016C2D0E945B050894E11CF11C38
:100740006E147F04B1F706C00F5F1F4F801691062D
:1007500051F657C004E110E0680126E1822E912C89
:10076000800E911EC6010E9455057C01C4E1D0E0B7
:10077000BB24CE010E9455058E159F0509F4B39444
:1007800022969AE2692E90E0792E8C169D0689F7C2
:1007900025E02B1570F5C701845A9640855F91407E
:1007A00088F4F0921101E09210018AE08B1558F163
:1007B000C801B7010E9469050E5F1F4F60167106E0
:1007C000B9F721C0C70180529340855F9140C8F4BA
:1007D000F0921101E09210018AE08B15A0F0C8019F
:1007E000B7010E9469050E5F1F4F60167106B9F7C9
:1007F0000AC082E090E0C80ED91E8C149D0409F056
:10080000B1CF0E944402DF91CF911F910F91FF90D1
:10081000EF90DF90CF90BF90AF909F908F907F90A0
:100820006F900895DF93CF93CDB7DEB760970FB683
:10083000F894DEBF0FBECDBF88E10FB6F894809369
:100840006000109260000FBE2BE088E190E00FB6D0
:10085000F894A895809360000FBE20936000A8953F
:100860000E94CD010E945A030E942D010E94E700C0
:100870000E945300809318010E94690280916800D1
:100880008B7F809368009091190190936D00DA9AA4
:10089000109214018091680084608093680015BCF8
:1008A000A89A16BC10921D0182E085BDF9B0F9220C
:1008B00015BCA89A16BC10921D0185BD8824AA24D7
:1008C000BB24CC24C39430E1932EDD2428E0422EB7
:1008D0009CE2292E91E0392EA89560901901A89AE2
:1008E00016BC10921D015090120100911001109140
:1008F0001101E62C59C080911D01863708F05BC0BC
:10090000809114018823B9F379B17E2110921401EA
:10091000772E7F24DE01119661E040E050E0862FC3
:100920008721C9F1862F872349F080911601909184
:10093000170111969C938E93862A2DC0882D8623AD
:1009400051F1862F8095E8222091160130911701F0
:100950008D919C911197281B390BC90181529340AD
:1009600087579540C0F4541659F485E00D3D18079B
:1009700020F02017310720F01BC002171307C0F426
:10098000CC2049F4F894FA01EE0FFF1FE25EFE4F0F
:100990003183208378944F5F5F4F1296F72E483053
:1009A000510511F0660FBBCFEE2009F0A4CF03C0B4
:1009B000F72EEE24EA94D394D91428F085B191E06F
:1009C000892785B9DD24EE2061F5E1E0CE1609F036
:1009D0004AC0B39424E02B1508F045C080918100F3
:1009E0008D7F809381001092850010928400409248
:1009F00015018CEE9CE290938900809388003092E0
:100A00008B0020928A0086B3856086BB809181002E
:100A1000826080938100289AAA24CC2474E0972EC7
:100A200020C0F9B0F620CC2001F5A39494E09A15EB
:100A3000E0F48091810081FF07C080918400909153
:100A400085008B549140C8F3809181008D7F809305
:100A5000810086B3856086BBBB24CC24C39460E14F
:100A6000962EDD2403C0AA2401C0BB240E94590194
:100A700033CFAA1BBB1B51E107C0AA1FBB1FA61780
:100A8000B70710F0A61BB70B881F991F5A95A9F737
:100A900080959095BC01CD010895F999FECF92BD46
:100AA00081BDF89A992780B50895A8E1B0E042E0A9
:100AB00050E00C947005262FF999FECF1FBA92BD15
:100AC00081BD20BD0FB6F894FA9AF99A0FBE01962F
:100AD00008950E945B05272F0C945C05DC01CB0177
:100AE000FC01F999FECF06C0F2BDE1BDF89A31963E
:100AF00000B40D9241505040B8F70895F894FFCFDC
:100B0000536572766F3270706D2056342E3230001D
:040B1000E9070200EF
:00000001FF
