:100000000C9488000C94B0000C94B0000C94AC05D7
:100010000C94B0000C9451050C94B0000C94660B39
:100020000C94B0000C94B0000C94590B0C94B000DC
:100030000C94B0000C94B0000C94B0000C94B00080
:100040000C940C210C94B0000C94A0220C94B000E1
:100050000C94B0000C94B0000C94B0000C94B00060
:100060000C94B0000C94B000084AD73B3BCE016E14
:1000700084BCBFFDC12F3D6C74319ABD56833DDAFF
:100080003D00C77F11BED9E4BB4C3E916BAAAABE0E
:10009000000000803F05A84CCDB2D44EB93836A937
:1000A000020C50B9918688083CA6AAAA2ABE000074
:1000B00000803F00000000240027002A000000000C
:1000C00000250028002B0000000000230026002946
:1000D00000040404040404040402020202020203F1
:1000E00003030303030102040810204080010204FB
:1000F000081020010204081020000000070002017F
:100100000000030406000000000000000000252499
:1001100011241FBECFEFD8E0DEBFCDBF14E0A0E0BA
:10012000B1E0E0E8F3E502C005900D92AA3DB10709
:10013000D9F716E0AAEDB4E001C01D92AB37B107C4
:10014000E1F711E0C0E1D1E004C02297FE010E9476
:10015000BA29CE30D107C9F70E9405210C94BE29D7
:100160000C940000BF92CF92DF92EF92FF920F9318
:100170001F937B018C01FB010995B82EC8010196E4
:10018000F7010995C82EC8010296F7010995D82EE6
:10019000C8010396F7010995982F6B2D7C2D8D2DA5
:1001A0001F910F91FF90EF90DF90CF90BF90089537
:1001B000DF92EF92FF920F931F937B018C01FB0163
:1001C0000995D82EC8010196F7010995982F8D2D14
:1001D0001F910F91FF90EF90DF900895BF92CF9203
:1001E000DF92EF92FF920F931F93D52EC62EB72E5C
:1001F00079018C01642FF9010995C80101966D2DD3
:10020000F7010995C80102966C2DF7010995C801FF
:1002100003966B2DF70109951F910F91FF90EF90B9
:10022000DF90CF90BF900895DF92EF92FF920F93EF
:100230001F93D72E7A018C01FA010995C801019606
:100240006D2DF70109951F910F91FF90EF90DF90B1
:1002500008959C01F999FECF32BD21BDF89A80B571
:1002600008959C01F999FECF1FBA32BD21BD60BD32
:100270000FB6F894FA9AF99A0FBE08952F923F920A
:100280004F925F926F927F928F929F92AF92BF92A6
:10029000CF92DF92EF92FF920F931F931B012C01DD
:1002A0002DEC3CEC4CE45EE30E944D287B018C017C
:1002B00060916B0570916C0580916D0590916E0554
:1002C0000E9429279B01AC01C801B7010E944D285B
:1002D00020E030E04AE754E40E9490262091D205C5
:1002E0003091D3054091D4055091D5050E94C32586
:1002F0003B014C01C201B10120E030E040E050E0A0
:100300000E94422818163CF4C201B1012CEC3CECCE
:100310004CEC5EE306C0C201B1012CEC3CEC4CECB1
:100320005EEB0E944D287B018C015B016C01D7FACA
:10033000D094D7F8D094C401B301A60195010E94CE
:10034000892688231CF4860175010AC0C401B30103
:10035000A80197010E944228181614F08401730125
:10036000E092D205F092D3050093D4051093D50501
:10037000C201B1012AE939E949E15FE30E944D2850
:10038000A80197010E94C3251F910F91FF90EF9044
:10039000DF90CF90BF90AF909F908F907F906F90A5
:1003A0005F904F903F902F9008956F927F928F9221
:1003B0009F92AF92BF92CF92DF92EF92FF920F93F4
:1003C0001F933B014C01A0901A05B0901B05C090F3
:1003D0001C05D0901D05A60195010E944D287B01AA
:1003E0008C0160916B0570916C0580916D05909109
:1003F0006E050E9429279B01AC01C801B7010E942C
:100400004D2820E030E04AE754E40E9490269B010A
:10041000AC01C601B5010E94C3257B018C0120E01F
:1004200030E04AE754EC0E94892688235CF40F2EC2
:10043000F0E0EF2EF0E0FF2EFAE70F2FF4EC1F2F85
:10044000F02D14C0C801B70120E030E04AE754E4C1
:100450000E944228181654F40F2EF0E0EF2EF0E020
:10046000FF2EFAE70F2FF4E41F2FF02DE0921A056C
:10047000F0921B0500931C0510931D05C401B301E8
:100480002DEC3CEC4CE05FE30E944D28A801970165
:100490000E94C3257B018C0120E030E44CE155EC47
:1004A0000E94892688235CF40F2EF0E0EF2EF0E402
:1004B000FF2EFCE10F2FF5EC1F2FF02D14C0C8010B
:1004C000B70120E030E44CE155E40E9442281816C0
:1004D00054F40F2EF0E0EF2EF0E4FF2EFCE10F2F8E
:1004E000F5E41F2FF02DC801B7010E943E011F91B6
:1004F0000F91FF90EF90DF90CF90BF90AF909F90C3
:100500008F907F906F900895AF92BF92CF92DF92BD
:10051000EF92FF920F931F935B016C0123E333E390
:1005200043EB5EE30E944D287B018C0160916B05DB
:1005300070916C0580916D0590916E050E94292740
:100540009B01AC01C801B7010E944D2820E030E0BA
:100550004AE754E40E94902620911E0530911F0521
:1005600040912005509121050E94C3257B018C01FB
:1005700020E030E04AE754EC0E94892688235CF4AE
:100580000F2EF0E0EF2EF0E0FF2EFAE70F2FF4EC45
:100590001F2FF02D14C0C801B70120E030E04AE75A
:1005A00054E40E944228181654F40F2EF0E0EF2E67
:1005B000F0E0FF2EFAE70F2FF4E41F2FF02DE0926A
:1005C0001E05F0921F050093200510932105C6011A
:1005D000B50126E636E646E25FE30E944D28A80113
:1005E00097010E94C3251F910F91FF90EF90DF901C
:1005F000CF90BF90AF9008956F927F928F929F920D
:10060000AF92BF92CF92DF92EF92FF920F931F9320
:100610003B014C012AE037ED43E25DE30E944D28A7
:100620007B018C0160916B0570916C0580916D056B
:1006300090916E050E9429279B01AC01C801B7016A
:100640000E944D2820E030E04AE754E40E949026C2
:100650002091CE053091CF054091D0055091D10524
:100660000E94C3255B016C0120E030E040E050E0D7
:100670000E94892688235CF40F2EF0E0AF2EF0E074
:10068000BF2EF0E0CF2EF0E0DF2EF02D14C0C6011B
:10069000B50120E030E048E452E40E9442281816F8
:1006A00054F40F2EF0E0AF2EF0E0BF2EF8E4CF2E82
:1006B000F2E4DF2EF02DA092CE05B092CF05C092CD
:1006C000D005D092D105C401B30120E030E040E470
:1006D00050E40E944D287B018C01C401B3012AE043
:1006E00037ED43EA5EE30E944D289B01AC01C8014F
:1006F000B7010E94C325A60195010E94C3255B0195
:100700006C0120E030E040E050E00E948926882320
:100710005CF40F2EF0E0AF2EF0E0BF2EF0E0CF2E15
:10072000F0E0DF2EF02D14C0C601B50120E030E06E
:100730004CE052E40E944228181654F40F2EF0E0C8
:10074000AF2EF0E0BF2EFCE0CF2EF2E4DF2EF02D36
:100750006091CE057091CF058091D0059091D10523
:1007600026E636E646E65FE30E944D287B018C01D3
:10077000C601B5012DEC3CEC4CEC5DE30E944D282C
:100780009B01AC01C801B7010E94C3256093CE054F
:100790007093CF058093D0059093D1050E94F826E1
:1007A000CB011F910F91FF90EF90DF90CF90BF9002
:1007B000AF909F908F907F906F900895AF92BF926F
:1007C000CF92DF92EF92FF920F931F935B016C0128
:1007D0002091A3043091A4044091A5045091A60453
:1007E0000E944D287B018C0160916B0570916C0516
:1007F00080916D0590916E050E9429279B01AC01A7
:10080000C801B7010E944D2820E030E04AE754E4D7
:100810000E949026209126053091270540912805B9
:10082000509129050E94C3257B018C0120E030E016
:100830004AE754EC0E94892688235CF40F2EF0E0EE
:10084000EF2EF0E0FF2EFAE70F2FF4EC1F2FF02D24
:1008500014C0C801B70120E030E04AE754E40E9428
:100860004228181654F40F2EF0E0EF2EF0E0FF2E81
:10087000FAE70F2FF4E41F2FF02DE0922605F092F7
:1008800027050093280510932905C601B50120917D
:100890009F043091A0044091A1045091A2040E94B1
:1008A0004D28A80197010E94C3257B018C0120E0FF
:1008B00030EC4AE555EC0E94892688235CF40F2E23
:1008C000F0E0EF2EF0ECFF2EFAE50F2FF5EC1F2FE6
:1008D000F02D14C0C801B70120E030EC4AE555E422
:1008E0000E944228181654F40F2EF0E0EF2EF0EC80
:1008F000FF2EFAE50F2FF5E41F2FF02DC801B701E9
:100900002091990430919A0440919B0450919C0449
:100910000E944D281F910F91FF90EF90DF90CF9094
:10092000BF90AF900895EF92FF920F931F93CF93D4
:10093000DF93C091C904D091CA04CE01855A964074
:100940008B5F984048F56091E1047091E20488273C
:1009500077FD8095982F0E942B272DEC3CEC4CE4E2
:100960005FE30E944D287B018C01BE0180E090E096
:100970000E9429272DEC3CEC4CEC5DE30E944D28B5
:100980009B01AC01C801B7010E94C3250E94F82653
:100990007093E2046093E104C091CB04D091CC0445
:1009A000CE01855A96408B5F984048F56091E304EC
:1009B0007091E404882777FD8095982F0E942B275B
:1009C0002DEC3CEC4CE45FE30E944D287B018C0154
:1009D000BE0180E090E00E9429272DEC3CEC4CEC1D
:1009E0005DE30E944D289B01AC01C801B7010E9444
:1009F000C3250E94F8267093E4046093E304C09139
:100A0000CD04D091CE04CE01855A96408B5F98409C
:100A100048F56091E5047091E604882777FD80959C
:100A2000982F0E942B2723E333E343E75FE30E94E1
:100A30004D287B018C01BE0180E090E00E942927B7
:100A40002DEC3CEC4CEC5CE30E944D289B01AC018E
:100A5000C801B7010E94C3250E94F8267093E604DE
:100A60006093E5046091E5047091E604685E73406C
:100A7000882777FD8095982F0E942B2720E030E073
:100A800040E05EE30E944D280E94F8267093F20435
:100A90006093F104DF91CF911F910F91FF90EF9040
:100AA00008951F920F920FB60F9211242F933F9328
:100AB0004F935F938F939F93409184005091850053
:100AC0004A9B08C081E08093C4055093BF054093C2
:100AD000BE0518C08091C4058130A1F41092C405F0
:100AE0002091BE053091BF054217530720F4CA017B
:100AF000805C934601C0CA01821B930B9093CA0489
:100B00008093C9044B9B08C081E08093C505509336
:100B1000C1054093C00515C08091C505813089F499
:100B20001092C5058091C0059091C10548175907DD
:100B300010F4405C5346481B590B5093CC0440932F
:100B4000CB049F918F915F914F913F912F910F9087
:100B50000FBE0F901F9018951F920F920FB60F9215
:100B600011242F933F938F939F93809184009091B2
:100B700085001D9B05C09093C3058093C2050FC0DF
:100B80002091C2053091C3058217930710F4805C51
:100B90009346821B930B9093CE048093CD049F9138
:100BA0008F913F912F910F900FBE0F901F9018952E
:100BB000AF92BF92CF92DF92EF92FF920F931F936B
:100BC000E090BF04F090C0040027F7FC0095102FC0
:100BD0006091AF047091B0048091B1049091B2041F
:100BE00028E233E240E050E00E942929685D7C421F
:100BF00086449040A80197010E94892959016A0101
:100C00006091B3047091B4048091B5049091B604DE
:100C100028E233E240E050E00E942929685D7C42EE
:100C200086449040A80197010E948929A20EB31E14
:100C3000C41ED51E8FE1A81681EDB8068FEFC80639
:100C40008FEFD8062CF420E938EE4FEF5FEF1AC093
:100C500082EEA8168EE2B80680E0C80680E0D806CC
:100C60002CF020E737E140E050E00CC0C601B501B0
:100C700022E030E040E050E00E948929C901DA0119
:100C80009C01AD01B901CA011F910F91FF90EF9036
:100C9000DF90CF90BF90AF900895AF92BF92CF9268
:100CA000DF92EF92FF920F931F93E090BF04F090BA
:100CB000C0040027F7FC0095102F6091AF047091DD
:100CC000B0048091B1049091B20428E233E240E094
:100CD00050E00E942929685D7C4286449040A8012A
:100CE00097010E94892959016A016091B3047091AA
:100CF000B4048091B5049091B60428E233E240E058
:100D000050E00E942929685D7C4286449040A801F9
:100D100097010E948929A21AB30AC40AD50A8FE151
:100D2000A81681EDB8068FEFC8068FEFD8062CF411
:100D300020E938EE4FEF5FEF1AC082EEA8168EE280
:100D4000B80680E0C80680E0D8062CF020E737E13E
:100D500040E050E00CC0C601B50122E030E040E0C8
:100D600050E00E948929C901DA019C01AD01B90155
:100D7000CA011F910F91FF90EF90DF90CF90BF902D
:100D8000AF900895AF92BF92CF92DF92EF92FF9211
:100D90000F931F935B016C016091DB047091DC0485
:100DA000882777FD8095982F0E942B277B018C0147
:100DB000C601B50124EA3DE843EE5DE30E944D28FB
:100DC0009B01AC01C801B7010E94C3250E94F8260F
:100DD00020918F0430919004621773074CF040917A
:100DE0009104509192049B01461757070CF49A0105
:100DF00083E0283E38071CF488EE93E007C0C90161
:100E000027E0813D920714F080ED97E090938A04EB
:100E100080938904880F991F90938900809388009C
:100E20001F910F91FF90EF90DF90CF90BF90AF9008
:100E30000895AF92BF92CF92DF92EF92FF920F93FD
:100E40001F935B016C016091E1047091E2048827BB
:100E500077FD8095982F0E942B277B018C01C6017E
:100E6000B50124EA3DE843EE5DE30E944D289B0175
:100E7000AC01C801B7010E94C3250E94F826209149
:100E80008F0430919004621773074CF040919104E5
:100E9000509192049B01461757070CF49A0183E086
:100EA000283E38071CF488EE93E007C0C90127E00C
:100EB000813D920714F080ED97E090938A0480932F
:100EC0008904880F991F90938900809388001F914F
:100ED0000F91FF90EF90DF90CF90BF90AF9008956B
:100EE000AF92BF92CF92DF92EF92FF920F931F9338
:100EF0005B016C016091DD047091DE04882777FD51
:100F00008095982F0E942B277B018C01C601B5018B
:100F100024EA3DE843EE5DE30E944D289B01AC01CD
:100F2000C801B7010E94C3250E94F82620919304AE
:100F300030919404621773074CF0409195045091DE
:100F400096049B01461757070CF49A0183E0283E4C
:100F500038071CF488EE93E007C0C90127E0813D03
:100F6000920714F080ED97E090938C0480938B04AB
:100F7000880F991F90938B0080938A001F910F9187
:100F8000FF90EF90DF90CF90BF90AF900895609169
:100F9000E9047091EA048091EB049091EC040E94C2
:100FA000C2066091ED047091EE048091EF0490917F
:100FB000F0040E94700708956F927F928F929F9223
:100FC000AF92BF92CF92DF92EF92FF920F931F9357
:100FD00080919704833061F486ED96E0A0E0B0E064
:100FE0008093120590931305A0931405B0931505F3
:100FF000609112057091130580911405909115056B
:101000002091C1043091C2044091C3045091C404A2
:10101000621B730B840B950B0E942B270E94D5013A
:101020006093E9047093EA048093EB049093EC04DA
:10103000609116057091170580911805909119051A
:101040002091C5043091C6044091C7045091C80452
:10105000621B730B840B950B0E942B270E9484024A
:101060003B014C01609112057091130580911405AC
:10107000909115050E942B275B016C012AE939E943
:1010800049E95EE30E944D287B018C0120E030E0BD
:1010900040E050E00E944228181654F0C601B50105
:1010A0002AE939E949E95EEB0E944D287B018C0170
:1010B000C401B301A80197010E94C3256093ED0408
:1010C0007093EE048093EF049093F0040E94C7079E
:1010D00060919D0470919E04675E7F4F882777FD25
:1010E0008095982F2091B7053091B8054091B905AA
:1010F0005091BA05621B730B840B950B0E942B2732
:101100000E94FC0249969093F2048093F1041F918F
:101110000F91FF90EF90DF90CF90BF90AF909F9096
:101120008F907F906F900895AF92BF92CF92DF9291
:10113000EF92FF920F931F935B016C016091E304A8
:101140007091E404882777FD8095982F0E942B27C3
:101150007B018C01C601B50124EA3DE843EE5DE365
:101160000E944D289B01AC01C801B7010E94C32514
:101170000E94F8262091930430919404621773071B
:101180004CF040919504509196049B0146175707E7
:101190000CF49A0183E0283E38071CF488EE93E0B3
:1011A00007C0C90127E0813D920714F080ED97E068
:1011B00090938C0480938B04880F991F90938B00DD
:1011C00080938A001F910F91FF90EF90DF90CF9056
:1011D000BF90AF9008956091E9047091EA04809106
:1011E000EB049091EC040E9419076091ED0470915A
:1011F000EE048091EF049091F0040E949408089509
:10120000AF92BF92CF92DF92EF92FF920F931F9314
:101210006091E1047091E204882777FD8095982F12
:101220000E942B277B018C016091DB047091DC0410
:10123000882777FD8095982F0E942B279B01AC0172
:10124000C801B7010E94C2257B018C0120E030E07B
:1012500040E050E00E944228181624F017FB109539
:1012600017F91095C801B70120E030E048E453E4D5
:101270000E94892687FD0AC00F2EF0E0EF2EF0E0D5
:10128000FF2EF8E40F2FF3E41F2FF02D60E070E045
:1012900088E493E4A80197010E94C2255B016C01D8
:1012A0006091C1047091C2048091C3049091C40400
:1012B00090958095709561957F4F8F4F9F4F0E94BD
:1012C0002B270E94D5017B018C01C601B50120E0CE
:1012D00030E048E453E40E949026A80197010E9460
:1012E0004D286093E9047093EA048093EB04909393
:1012F000EC046091E3047091E404882777FD809505
:10130000982F0E942B277B018C016091DD04709146
:10131000DE04882777FD8095982F0E942B279B015C
:10132000AC01C801B7010E94C2257B018C0120E0FD
:1013300030E040E050E00E944228181624F017FBED
:10134000109517F91095C801B70120E030E048E486
:1013500053E40E94892687FD0AC00F2EF0E0EF2E8D
:10136000F0E0FF2EF8E40F2FF3E41F2FF02D60E0E4
:1013700070E088E493E4A80197010E94C2255B0114
:101380006C016091C5047091C6048091C70490916E
:10139000C80490958095709561957F4F8F4F9F4FB2
:1013A0000E942B270E9484027B018C01C601B5019B
:1013B00020E030E048E453E40E949026A801970121
:1013C0000E944D286093ED047093EE048093EF0427
:1013D0009093F0040E94EB081F910F91FF90EF9003
:1013E000DF90CF90BF90AF9008952F923F924F9291
:1013F0005F926F927F928F929F92AF92BF92CF92A5
:10140000DF92EF92FF920F931F93809197048330A6
:1014100061F486ED96E0A0E0B0E080931205909331
:101420001305A0931405B09315056091E104709124
:10143000E204882777FD8095982F0E942B277B0157
:101440008C016091DB047091DC04882777FD809526
:10145000982F0E942B279B01AC01C801B7010E9465
:10146000C2257B018C0120E030E040E050E00E948A
:101470004228181624F017FB109517F91095C8018B
:10148000B70120E030E048EC53E40E94892687FD54
:101490000AC00F2EF0E0EF2EF0E0FF2EF8EC0F2F39
:1014A000F3E41F2FF02D60E070E088EC93E4A801D6
:1014B00097010E94C2255B016C0160911205709139
:1014C000130580911405909115052091C104309168
:1014D000C2044091C3045091C404621B730B840B7B
:1014E000950B0E942B270E94D5017B018C01C60120
:1014F000B50120E030E048EC53E40E949026A801BA
:1015000097010E944D286093E9047093EA04809348
:10151000EB049093EC046091E3047091E404882759
:1015200077FD8095982F0E942B277B018C0160917D
:10153000DD047091DE04882777FD8095982F0E9446
:101540002B279B01AC01C801B7010E94C2255B019A
:101550006C0120E030E040E050E00E944228181684
:1015600024F0D7FAD094D7F8D094C601B50120E082
:1015700030E048EC53E40E94892687FD0AC00F2E14
:10158000F0E0AF2EF0E0BF2EF8ECCF2EF3E4DF2E2C
:10159000F02D6091160570911705809118059091B6
:1015A00019052091C5043091C6044091C70450919B
:1015B000C804621B730B840B950B0E942B270E949F
:1015C00084021B012C01609112057091130580911A
:1015D0001405909115050E942B273B014C012AE927
:1015E00039E949E95EE30E944D287B018C0120E046
:1015F00030E040E050E00E944228181654F0C40148
:10160000B3012AE939E949E95EEB0E944D287B01E3
:101610008C0160E070E088EC93E4A60195010E94E3
:10162000C22520E030E048EC53E40E949026A2015D
:1016300091010E944D28A80197010E94C325609343
:10164000ED047093EE048093EF049093F0040E94F5
:10165000EB0860919D0470919E04675E7F4F882720
:1016600077FD8095982F2091B7053091B80540916E
:10167000B9055091BA05621B730B840B950B0E9440
:101680002B270E94FC0249969093F2048093F10468
:101690001F910F91FF90EF90DF90CF90BF90AF9090
:1016A0009F908F907F906F905F904F903F902F9082
:1016B00008951F920F920FB60F9211241092B2004C
:1016C000289A0F900FBE0F901F9018951F920F929F
:1016D0000FB60F92112428980F900FBE0F901F90F5
:1016E00018958091DA048230C1F0833028F4882381
:1016F00051F0813049F50CC08630C9F08730F1F0E7
:10170000853011F50FC088E696E060E071E013C007
:1017100088E696E06CE071E00EC088E696E06BE14A
:1017200071E009C088E696E06CE271E004C088E6EA
:1017300096E06BE371E00E94B524089588E696E098
:1017400064E471E00E94B52408950F931F9308E6A6
:1017500016E0C80160E571E00E949624C80164E5C6
:1017600071E00E9496244091B7055091B8056091B0
:10177000B9057091BA05C8012AE030E00E94A2259F
:10178000C80169E571E00E9496244091F1045091EE
:10179000F204662757FD6095762FC8012AE030E0F5
:1017A0000E94A225C8016FE571E00E949624609115
:1017B000C1047091C2048091C3049091C40424E6D2
:1017C00030E040E050E00E948929C801BA01A90137
:1017D0002AE030E00E94A225C80165E671E00E947F
:1017E00096246091C5047091C6048091C7049091BD
:1017F000C80424E630E040E050E00E948929C80196
:10180000BA01A9012AE030E00E94A225C8016BE6D6
:1018100071E00E94B5241F910F9108950F931F93BB
:1018200008E616E0C80160E771E00E949624C8014E
:1018300064E771E00E9496246091990570919A0581
:1018400080919B0590919C052AE030E040E050E0BB
:101850000E948929C801BA01A9012AE030E00E944A
:10186000A225C80169E771E00E94962460919D0558
:1018700070919E0580919F059091A0052AE030E02F
:1018800040E050E00E948929C801BA01A9012AE07C
:1018900030E00E94A225C8016FE771E00E94962403
:1018A0006091F3047091F4048091F5049091F60432
:1018B00020E030E048EC52E40E9490260E94F82696
:1018C000AB01BC01C8012AE030E00E94A225C8019A
:1018D00065E871E00E9496246091F7047091F80425
:1018E0008091F9049091FA040E94F826AB01BC01A2
:1018F000C8012AE030E00E94A225C8016BE871E02F
:101900000E9496248091A1059091A20520918905BD
:1019100030918A05821B930B64E670E00E94542983
:10192000AB01662757FD6095762FC8012AE030E0AD
:101930000E94A225C80161E971E00E94962460918D
:10194000AD057091AE058091AF059091B00524E68C
:1019500030E040E050E00E948929C801BA01A901A5
:101960002AE030E00E94A225C80167E971E00E94E8
:1019700096246091FC047091FD048091FE04909186
:10198000FF0424E630E040E050E00E948929C801CD
:10199000BA01A9012AE030E00E94A225C8016DE940
:1019A00071E00E949624609100057091010580917C
:1019B00002059091030524E630E040E050E00E94EB
:1019C0008929C801BA01A9012AE030E00E94A225B4
:1019D000C80163EA71E00E9496244091780550E0C6
:1019E00060E070E0C8012AE030E00E94A225C80152
:1019F00069EA71E00E94962440916F05509170054C
:101A00006091710570917205C8012AE030E00E9472
:101A1000A225C8016FEA71E00E9496246091B10589
:101A20007091B2058091B3059091B4050E94F8269B
:101A3000AB01BC01C8012AE030E00E94A225C80128
:101A400065EB71E00E9496246091E9047091EA04CC
:101A50008091EB049091EC0420E030E048EC52E4FB
:101A60000E9490260E94F826AB01BC01C8012AE022
:101A700030E00E94A225C8016BE671E00E94B52407
:101A80001F910F910895F999FECFF999FECF89E042
:101A900090E092BD81BDF89A80B58093770588E685
:101AA00096E06BEB71E00E9496244091770550E040
:101AB00060E070E088E696E02AE030E00E94B7251A
:101AC000F999FECFF999FECF12BC11BCF89A80B5F6
:101AD0008093E80488E696E065EC71E00E94962425
:101AE0004091E80450E060E070E088E696E022E093
:101AF00030E00E94B725F999FECFF999FECF8BE02F
:101B000090E092BD81BDF89A80B58093980488E6F4
:101B100096E06EEC71E00E9496244091980450E0AB
:101B200060E070E088E696E02AE030E00E94B725A9
:101B30000895EF92FF920F931F9308E616E0C801F5
:101B400069ED71E00E94962473EEE72E71E0F72EA6
:101B5000C801B7010E94962440918D0550918E05D1
:101B600060918F0570919005C8012AE030E00E94D5
:101B7000A225C801B7010E94962440919105509179
:101B800092056091930570919405C8012AE030E0B8
:101B90000E94A225C801B7010E9496244091950594
:101BA000509196056091970570919805C8012AE0BB
:101BB00030E00E94B725C80165EE71E00E949624CE
:101BC000C801B7010E9496244091A5055091A60531
:101BD0006091A7057091A805C8012AE030E00E9435
:101BE000A225C801B7010E9496244091A9055091F1
:101BF000AA056091AB057091AC05C8012AE030E000
:101C00000E94A225C801B7010E9496244091AD050B
:101C10005091AE056091AF057091B005C8012AE002
:101C200030E00E94B7251F910F91FF90EF9008952B
:101C3000823079F0833018F48130C9F505C08330E3
:101C4000D1F08430A1F52BC088E696E06EEE71E00D
:101C500004C088E696E06AEF71E00E949624409105
:101C6000780550E060E070E088E696E02AE030E039
:101C70000E94B725089588E696E06BE072E00E9426
:101C800096244091780550E060E070E088E696E0A8
:101C90002AE030E00E94B7250E94990D089588E659
:101CA00096E06CE172E00E94B5240E94990D0895BF
:101CB0004F925F926F927F928F929F92AF92BF925C
:101CC000CF92DF92EF92FF920F931F93CF93DF9308
:101CD0002C016115710509F04EC0F999FECF8EE017
:101CE00090E069E271E00E94B200962E872E782E75
:101CF000692EF999FECF82E190E069E271E00E94DD
:101D0000B200D62EC72EB82EA92EF999FECF8CE0A0
:101D100090E069E271E00E94D8007C0100E010E0F0
:101D2000692D782D872D962D2AE030E040E050E097
:101D30000E942929D2016D937D938D939C931397D3
:101D40006D2D7C2D8B2D9A2D0E942929F201648303
:101D5000758386839783C801B70124E630E040E0AD
:101D600050E00E942929D20118966D937D938D939E
:101D70009C931B9799C0EB01F3E0CC0FDD1FFA9504
:101D8000E1F7660F771FC60FD71F2E96F999FECF82
:101D9000CE0169E271E00E94B2005B016C017E013C
:101DA0000027F7FC0095102F84E090E0A0E0B0E061
:101DB000E80EF91E0A1F1B1FF999FECFC70169E241
:101DC00071E00E94B2003B014C01F999FECF84E022
:101DD00090E0A0E0B0E0E80EF91E0A1F1B1FC7014B
:101DE00069E271E00E94D8007C01C601B5012AE0D9
:101DF00030E040E050E00E9429295B016C01D201F3
:101E00006D937D938D939C931397C401B3010E94AE
:101E100029293B014C01F2016483758386839783F2
:101E200000E010E0C801B70124E630E040E050E0F7
:101E30000E942929D20118966D937D938D939C93CE
:101E40001B9780911105813059F0D601C501815F42
:101E5000984DAF4FBF4F8F519E44A040B04020F5EA
:101E600081E0809311058091810590918205A09178
:101E70008305B09184058A0D9B1DAC1DBD1DF2012B
:101E800080839183A283B383809185059091860599
:101E9000A0918705B0918805860D971DA81DB91DD5
:101EA00084839583A683B783C201DF91CF911F916D
:101EB0000F91FF90EF90DF90CF90BF90AF909F90E9
:101EC0008F907F906F905F904F90089541E351E025
:101ED0000E94140108954F925F926F927F928F92A9
:101EE0009F92AF92BF92CF92DF92EF92FF920F93A9
:101EF0001F93DF93CF93CDB7DEB72C970FB6F8942F
:101F0000DEBF0FBECDBFC982DA82EB82FC820D83B9
:101F10001E832F83388749875A876B877C8769811F
:101F20007A818B819C812AE030E040E050E00E9481
:101F30008929122F032FF42EE52E6D817E818F814A
:101F400098852AE030E040E050E00E948929922EF6
:101F5000832E742E652E69857A858B859C8524E673
:101F600030E040E050E00E948929522E432EA11417
:101F7000B104E9F4F999FECF8EE090E0412F502FA3
:101F80006F2D7E2D21E331E00E94EE00F999FECF06
:101F900082E190E0492D582D672D762D21E331E027
:101FA0000E94EE00F999FECF8CE090E03CC0650104
:101FB000B3E0CC0CDD1CBA95E1F7AA0CBB1CCA0C33
:101FC000DB1C8EE090E0C80ED91EF999FECFC60149
:101FD000412F502F6F2D7E2D21E331E00E94EE0026
:101FE000F999FECF76010027F7FC0095102F84E0C9
:101FF00090E0A0E0B0E0E80EF91E0A1F1B1FC70129
:10200000492D582D672D762D21E331E00E94EE00F9
:10201000F999FECF84E090E0A0E0B0E0E80EF91E70
:102020000A1F1B1FC701652D742D0E94660F2C9679
:102030000FB6F894DEBF0FBECDBFCF91DF911F91D9
:102040000F91FF90EF90DF90CF90BF90AF909F9057
:102050008F907F906F905F904F900895AF92BF9256
:10206000CF92DF92EF92FF920F931F93DF93CF9364
:10207000CDB7DEB72C970FB6F894DEBF0FBECDBF3D
:10208000A1E8B5E0E9E9F5E08CE001900D9281501E
:10209000E1F7CE010196C0908105D0908205E090D5
:1020A0008305F090840500918505109186052091A7
:1020B0008705309188054091890550918A05609186
:1020C0008B0570918C05AA24BB240E946B0F81E0C4
:1020D000809378052C960FB6F894DEBF0FBECDBF67
:1020E000CF91DF911F910F91FF90EF90DF90CF90F4
:1020F000BF90AF900895EF92FF920F931F9320919E
:10210000A1053091A2058091890590918A05281B2F
:10211000390B80910E0590910F05821793077CF47F
:1021200030930F0520930E05F999FECFC90164E69F
:1021300070E00E94542985E090E00E94660FE090D4
:10214000F304F090F4040091F5041091F60460910A
:10215000100570E0882777FD8095982F0E942B2727
:102160009B01AC01C801B7010E944228181694F4E3
:10217000C801B7010E94FD26862F60931005F999CA
:10218000FECF64E60E944829682F87E090E070E067
:102190000E94660F1F910F91FF90EF90089586EDBA
:1021A00093E069E271E00E94D800F999FECF84368D
:1021B00091050CF068C0F999FECFF999FECF1FBACE
:1021C00087EE93E092BD81BD10BC0FB6F894FA9AE9
:1021D000F99A0FBEF999FECFF999FECF1FBA86EE94
:1021E00093E092BD81BD10BC0FB6F894FA9AF99AAB
:1021F0000FBEF999FECF81E090E06AEF70E00E9497
:10220000660FF999FECF84EE93E068EC70E00E94CF
:10221000660FF999FECF86ED93E06CED75E00E94B4
:10222000660FF999FECF88ED93E06CED75E00E94A2
:10223000660FF999FECF8AED93E060E074E00E94AA
:10224000660FF999FECF8CED93E06CE474E00E9488
:10225000660FF999FECF8EED93E06CE677E00E9471
:10226000660FF999FECF80EE93E06CE474E00E9473
:10227000660FF999FECF82EE93E06CE677E00E945C
:10228000660FF999FECF0895F999FECF6091B505D3
:102290007091B60581E090E00E94660FF999FECF3B
:1022A0006091BF047091C00484EE93E00E94660FB9
:1022B000F999FECF6091DB047091DC0486ED93E028
:1022C0000E94660FF999FECF6091DD047091DE04E3
:1022D00088ED93E00E94660FF999FECF6091850426
:1022E000709186048AED93E00E94660FF999FECF03
:1022F00060918F04709190048CED93E00E94660FC2
:10230000F999FECF60919104709192048EED93E063
:102310000E94660FF999FECF609193047091940426
:1023200080EE93E00E94660FF999FECF60919504CC
:102330007091960482EE93E00E94660FF999FECFA9
:10234000089587E061E00E9404220895282F80917B
:1023500084009091850080529E44C8F3222349F066
:1023600084E061E00E94E42184E061E00E940422B4
:10237000089584E060E00E94042284E060E00E940E
:10238000E421089590915805913009F006C180919B
:102390005905833009F497C0823109F4A4C0823012
:1023A00009F0FBC080919704882309F0F6C0809162
:1023B0002A0580935F0580912B05809360058091AD
:1023C0002C058093610580912D0580936205809195
:1023D0005F0590916005A0916105B09162058093C1
:1023E000540590935505A0935605B09357058091D9
:1023F0002E0580935F0580912F0580936005809165
:10240000300580936105809131058093620580914C
:102410005F0590916005A0916105B0916205809380
:102420009D0590939E05A0939F05B093A005809174
:10243000320580935F05809133058093600580911C
:102440003405809361058091350580936205809104
:102450005F0590916005A0916105B0916205809340
:10246000990590939A05A0939B05B0939C05809144
:102470003A0580935F0580913B05809360058091CC
:102480003C058093610580913D05809362056091D4
:102490005F057091600580916105909162052AE069
:1024A00030E040E050E00E9489292093A10530935C
:1024B000A2054093A3055093A4058091FB0481607D
:1024C0008093FB04089580912E05833028F01092AC
:1024D00097048CE061E004C0909397048CE060E086
:1024E0000E940422089580919704882309F055C022
:1024F00080913E0580935F0580913F058093600544
:10250000809140058093610580914105809362052B
:1025100060915F0570916005809161059091620501
:102520000E942B276093F3047093F4048093F504C6
:102530009093F60420E030E040EF52E40E944228FD
:10254000882334F18091420580935F058091430593
:1025500080936005809144058093610580914505D5
:102560008093620560915F057091600580916105BF
:102570009091620528EE33E040E050E00E94892906
:102580002093FC043093FD044093FE045093FF0419
:102590008091FB0482608093FB040895EF92FF9288
:1025A0000F931F9381E00E94A61118E8E12EF12CF1
:1025B00080E89CE0F701918380830AE810E0F8014D
:1025C0009183808360E971E080E090E00E94622165
:1025D00080EF9AE0F70191838083F80191838083F3
:1025E00068EC70E080E090E00E94622188EB9BE064
:1025F000F70191838083F8019183808380E00E94BA
:10260000A6111F910F91FF90EF900895CF93DF9344
:1026100080E280936B008CE080936D0084E0809377
:1026200068008091680081608093680081E090E09C
:10263000909388048093870408C00E94930464E107
:1026400070E080E090E00E9462218091E10490912E
:10265000E204845893403CF48091E3049091E404B4
:102660008458934054F3C0E0D0E064E170E080E02F
:1026700090E00E9462210E9493042196C436D10505
:10268000A1F72091E1043091E2043093DC0420931F
:10269000DB044091E3045091E4045093DE04409342
:1026A000DD048091E5049091E60490938604809384
:1026B0008504285E33401CF0485E534034F488E6BD
:1026C00096E061E572E00E94B5248091DB04909170
:1026D000DC0423E0863B92071CF486EB93E006C003
:1026E00028E08330920714F082E098E09093DC04B5
:1026F0008093DB048091DD049091DE0423E0863B2F
:1027000092071CF486EB93E006C028E08330920722
:1027100014F082E098E09093DE048093DD046091F1
:1027200085047091860483E0663B78071CF426EBF1
:1027300033E007C09B0188E06330780714F022E0A3
:1027400038E0309386042093850422533040309340
:10275000E0042093DF04265B3340B901882777FD2E
:102760008095982F0E942B2720E030E040E05EE328
:102770000E944D280E94F826709388046093870475
:102780008091E5049091E604845F9140A4F488E68A
:1027900096E062E672E00E9496244091E504509132
:1027A000E604662757FD6095762F88E696E02AE0D6
:1027B00030E00E94B725DF91CF91089584E00E9418
:1027C0005122019711F081E0089585E00E94512285
:1027D000019711F083E0089582E008950E94DE13CE
:1027E0008093BB058093BC050895EF92FF920F93F1
:1027F0001F93CF93DF9383E00E94C621AA2797FD02
:10280000A095BA2FBC01CD010E942B276093BB0479
:102810007093BC048093BD049093BE04C0E0D0E0EC
:102820006091BB047091BC048091BD049091BE0482
:1028300026E636E646E65FE30E944D287B018C01E2
:1028400083E00E94C621AA2797FDA095BA2FBC015C
:10285000CD010E942B272DEC3CEC4CEC5DE30E945B
:102860004D289B01AC01C801B7010E94C3256093AC
:10287000BB047093BC048093BD049093BE04219666
:10288000C035D10569F60E94F8267093B6056093AD
:10289000B505DF91CF911F910F91FF90EF900895B3
:1028A000EF92FF920F931F9382E00E94C621AA2706
:1028B00097FDA095BA2FBC01CD010E942B272AE0DD
:1028C00037ED43E25CE30E944D287B018C0160916F
:1028D000B7047091B8048091B9049091BA040E9431
:1028E0002B2724EA30E74DE75FE30E944D289B0148
:1028F000AC01C801B7010E94C3250E94F8269B01C4
:10290000AC016093B7047093B8048093B9049093BA
:10291000BA048091C1049091C204A091C304B09103
:10292000C40488519C4FAF4FBF4F815D9740A0407A
:10293000B040F0F48FEF91E0A0E0B0E0821B930B89
:10294000A40BB50B181619061A061B062CF48FEFEC
:1029500091E0821B930B03C0C9018F5F91408832C5
:10296000910514F488E290E09093C0048093BF0432
:102970001F910F91FF90EF900895EF92FF920F93A8
:102980001F9380E00E94C621AA2797FDA095BA2F29
:102990008093AF049093B004A093B104B093B204B9
:1029A00081E00E94C621AA2797FDA095BA2F8093A7
:1029B000B3049093B404A093B504B093B6040E94FA
:1029C000D8056093C1047093C2048093C3049093AC
:1029D000C4040E944D066093C5047093C60480939E
:1029E000C7049093C80480E090E0A0E8BFE3809320
:1029F000990490939A04A0939B04B0939C0483E061
:102A00000E94C621AA2797FDA095BA2FBC01CD012F
:102A10000E942B272DEC3CEC4CEC5DE30E944D28F2
:102A20007B018C016091BB047091BC048091BD045A
:102A30009091BE0426E636E646E65FE30E944D2806
:102A40009B01AC01C801B7010E94C3256093BB0480
:102A50007093BC048093BD049093BE040E94F8263A
:102A60002091B5053091B605621B730B882777FD61
:102A70008095982F6093B7057093B8058093B9053A
:102A80009093BA050E942B277B018C0120E030E057
:102A900040E451E40E94892688235CF40F2EF0E084
:102AA000EF2EF0E0FF2EF0E40F2FF1E41F2FF02DBA
:102AB00014C0C801B70120E030E048EC51E40E94A6
:102AC0004228181654F40F2EF0E0EF2EF0E0FF2EFF
:102AD000F8EC0F2FF1E41F2FF02DC801B70120E013
:102AE00030E040E451E40E94C22520E030E040E5BF
:102AF00051E40E94902620E030E040E05FE30E9435
:102B00004D2820E030E040E05FE30E94C325609361
:102B1000990470939A0480939B0490939C041F9152
:102B20000F91FF90EF9008950E94F5130E94BD143D
:102B30000E9450140895BF92CF92DF92EF92FF92BD
:102B40000F931F93DF93CF93CDB7DEB72C970FB6BC
:102B5000F894DEBF0FBECDBFF82E88E696E06FE694
:102B600072E00E9496244F2D50E060E070E088E60D
:102B700096E02AE030E00E94B7258E010F5F1F4FDC
:102B8000C80160E070E00E94580E88E696E06AE7AF
:102B900072E00E94962449815A816B817C8188E68B
:102BA00096E02AE030E00E94A22588E696E063EEF7
:102BB00071E00E9496244D815E816F81788588E660
:102BC00096E02AE030E00E94A22588E696E063EED7
:102BD00071E00E94962449855A856B857C8588E63C
:102BE00096E02AE030E00E94B72581E0C82ED12C83
:102BF000EF2CFF24B02E012F43C08B2D902FB60158
:102C00000E94580E88E696E062E872E00E949624E0
:102C100088E696E0B6010E948A2588E696E063EE93
:102C200071E00E94962449815A816B817C8188E6FB
:102C300096E02AE030E00E94A22588E696E063EE66
:102C400071E00E9496244D815E816F81788588E6CF
:102C500096E02AE030E00E94A22588E696E063EE46
:102C600071E00E94962449855A856B857C8588E6AB
:102C700096E02AE030E00E94B7250894C11CD11CE0
:102C8000EC14FD040CF0B9CF2C960FB6F894DEBF0F
:102C90000FBECDBFCF91DF911F910F91FF90EF90AD
:102CA000DF90CF90BF9008950F931F9308E616E032
:102CB000C80167E872E00E9496246091E104709177
:102CC000E204C8010E948A25C8016AE872E00E94F5
:102CD00096246091E3047091E404C8010E948A255F
:102CE000C8016EE872E00E9496246091E50470913C
:102CF000E604C8010E9492251F910F910895AF929A
:102D0000BF92CF92DF92EF92FF920F931F935C01DD
:102D10006B01FB016081718182819381F5012081CA
:102D2000318142815381621B730B840B950B0E948E
:102D30002B2720917D0530917E0540917F05509194
:102D400080050E944D280E94F826909580957095E8
:102D500061957F4F8F4F9F4F0E942B277B018C01E6
:102D6000F6016481758186819781F5012481358121
:102D700046815781621B730B840B950B0E942B2796
:102D80009B01AC01C801B7010E94362620EA3CE055
:102D900043EB55E40E944D2820E030EA4CE056E435
:102DA0000E94C3250E94F8269B01AC0197FF04C036
:102DB000205633474F4F5F4FB901CA011F910F9102
:102DC000FF90EF90DF90CF90BF90AF90089589E98A
:102DD00095E065EA75E00E947F16609308057093A0
:102DE000090580930A0590930B0508956F927F92D1
:102DF0008F929F92AF92BF92CF92DF92EF92FF920B
:102E00000F931F933C014B01FB0160817181828113
:102E100093810E942B277B018C01F30160817181DA
:102E2000828193810E942B279B01AC01C801B701CD
:102E30000E94C2255B016C01F40164817581868169
:102E400097810E942B277B018C01F301648175819E
:102E5000868197810E942B279B01AC01C801B70195
:102E60000E94C2252091790530917A0540917B0519
:102E700050917C050E944D287B018C01C601B50153
:102E8000A60195010E944D285B016C01C801B701A4
:102E9000A80197010E944D289B01AC01C601B50114
:102EA0000E94C3250E94B42828EC32E646E35CE386
:102EB0000E944D280E94F8269B01AC01CA011F9177
:102EC0000F91FF90EF90DF90CF90BF90AF909F90C9
:102ED0008F907F906F9008958DE895E065EA75E09A
:102EE0000E94F616609373057093740580937505C0
:102EF000909376056091A5057091A6058091A70530
:102F00009091A80597FF07C0909580957095619561
:102F10007F4F8F4F9F4F0E942B2720E836E948E1D3
:102F20005BE40E94902625E33AEF4EE85CE30E94C2
:102F30004D280E948D269B01AC016093790570930A
:102F40007A0580937B0590937C0560E070E080E8D3
:102F50009FE30E94902660937D0570937E05809389
:102F60007F05909380050E94E716089510928404CF
:102F70008091DA04873099F4A5EAB5E0E9E9F5E053
:102F80008CE001900D928150E1F7ADE8B5E0E9E900
:102F9000F5E08CE001900D928150E1F709C0ADE8B9
:102FA000B5E0E9E9F5E08CE001900D928150E1F7A0
:102FB0000E946C1708950F931F93DF93CF93CDB7A3
:102FC000DEB72C970FB6F894DEBF0FBECDBFADE8CD
:102FD000B5E0E9E9F5E08CE001900D928150E1F770
:102FE000609178058E010F5F1F4FC80170E00E944D
:102FF000580EA5EAB5E0F8018CE001900D928150E1
:10300000E1F78091890590918A05A0918B05B09197
:103010008C052091AD053091AE054091AF055091E2
:10302000B005820F931FA41FB51F8093AD05909329
:10303000AE05A093AF05B093B00583E00E94180ED3
:103040000E946C172C960FB6F894DEBF0FBECDBF52
:10305000CF91DF911F910F91089510927805F99902
:10306000FECFF999FECF1FBA8AE090E092BD81BDF4
:1030700010BC0FB6F894FA9AF99A0FBE0E94DB17AB
:103080008091E80483FF11C08091A1059091A20571
:10309000A091A305B091A4058093AD059093AE05D2
:1030A000A093AF05B093B0050895F999FECF86E1DE
:1030B00090E069E271E00E94D800AA2797FDA095F0
:1030C000BA2FBC01CD0124E630E040E050E00E9480
:1030D00029292091890530918A0540918B055091CD
:1030E0008C05260F371F481F591F2093AD053093BD
:1030F000AE054093AF055093B00508958093DA0470
:1031000091E090938404863011F40E942D180E945F
:10311000710B0895823031F0833041F0813049F4F1
:1031200080E001C085E00E947E18089585E00E943D
:103130007E1808958091E704813071F488E696E066
:1031400063E373E00E94B5248091DA04853050F483
:1031500086E00E947E18089588E696E069E473E0B0
:103160000E94B5240895982F8091E704891719F1DA
:103170009093E704992319F40E94471912C0809193
:10318000DA048530B0F4913061F484E061E00E94AB
:10319000E42184E061E00E94042286E00E947E181F
:1031A00008C084E060E00E94042284E060E00E94A5
:1031B000E4210E949A1808952091E5043091E604D4
:1031C0008091DF049091E0044091BD0528173907F4
:1031D000ECF4842F8F5F8093BD05893031F488E64D
:1031E00096E060E673E00E94B5248091BD058B30C7
:1031F00030F081E00E94B3188AE08093BD0589E138
:1032000090E09093F2048093F10408954423A1F098
:10321000842F81508093BD05882331F488E696E0A1
:103220006AE773E00E94B5248091BD05882321F4EC
:103230000E94B3181092BD0508951F930E94DE13DB
:10324000182F8091BC05811701F18091E704882334
:1032500019F080E00E94B318812F0E948A18109301
:10326000BC0580E090E0A0E0B0E080932205909360
:103270002305A0932405B0932505809326059093FC
:103280002705A0932805B09329051F910895109252
:10329000BC050E941D1908951F938091DA048630A1
:1032A00011F487E043C0853009F06AC08091780549
:1032B0008F5F8093780590917705981708F039C053
:1032C000F999FECFF999FECF86EE93E092BD81BDCC
:1032D000F89A10B5112319F188E696E069E873E0D1
:1032E0000E94B52484E00E94180E81E08093780546
:1032F00082E00E94180E84E00E94180EF999FECF19
:10330000F999FECF1FBA86EE93E092BD81BD1150B0
:1033100010BD0FB6F894FA9AF99A0FBE1BC088E652
:1033200096E066EA73E00E94B52486E00E947E186B
:1033300027C088E696E069EB73E00E9496244091EE
:10334000780550E060E070E088E696E02AE030E042
:103350000E94B725F999FECF20917805F999FECF03
:103360001FBA8AE090E092BD81BD20BD0FB6F894EF
:10337000FA9AF99A0FBE82E00E94180E0E94DB179B
:103380001F9108952F923F924F925F926F927F927A
:103390008F929F92AF92BF92CF92DF92EF92FF9265
:1033A0000F931F93DF93CF93CDB7DEB72C970FB654
:1033B000F894DEBF0FBECDBFF999FECFF999FECFCD
:1033C0008AE090E092BD81BDF89A80B5809378053F
:1033D000F999FECFF999FECF89E090E092BD81BDC9
:1033E000F89A80B580937705F999FECF81E090E057
:1033F00069E271E00E94D800382E292E8093B5052D
:103400009093B605F999FECF84EE93E069E271E0FE
:103410000E94D8002C019093C0048093BF04F999B6
:10342000FECF86ED93E069E271E00E94D8008C0146
:103430009093DC048093DB04F999FECF88ED93E050
:1034400069E271E00E94D8007C019093DE048093D1
:10345000DD04F999FECF8AED93E069E271E00E9404
:10346000D8006C019093860480938504F999FECF6F
:103470008CED93E069E271E00E94D8005C019093CA
:10348000900480938F04F999FECF8EED93E069E26A
:1034900071E00E94D8004C019093920480939104B3
:1034A000F999FECF80EE93E069E271E00E94D800C6
:1034B0003C019093940480939304F999FECF82EE9B
:1034C00093E069E271E00E94D8009C01F999FECF77
:1034D00043E0063B14071CF486EB93E007C0C801E9
:1034E00048E00330140714F082E098E09093DC0485
:1034F0008093DB0486EBE81683E0F8061CF486EB89
:1035000093E007C0C70148E08330940714F082E0DD
:1035100098E09093DE048093DD0486EBC81683E088
:10352000D8061CF486EB93E007C0C60148E0833060
:10353000940714F082E098E09093860480938504C9
:1035400086EBA81683E0B8061CF486EB93E007C070
:10355000C50148E08330940714F082E098E090932E
:10356000900480938F0486EB881683E098061CF401
:1035700086EB93E007C0C40148E08330940714F061
:1035800082E098E0909392048093910486EB681611
:1035900083E078061CF486EB93E007C0C30148E0A3
:1035A0008330940714F082E098E090939404809321
:1035B000930483E0263B38071CF486EB93E007C0B6
:1035C000C90128E08330920714F082E098E09093DC
:1035D00096048093950446E9441651041CF486E948
:1035E00090E007C0C20122E08130920714F080E031
:1035F00092E09093C0048093BF04832D922D9C0190
:1036000042E02130340714F020E032E037FF02C0FE
:1036100020E030E03093B6052093B5058E010F5FB2
:103620001F4FC80160E070E00E94580EA1E8B5E0AD
:10363000F8018CE001900D928150E1F70E94DB17B8
:1036400081E0809384042C960FB6F894DEBF0FBE01
:10365000CDBFCF91DF911F910F91FF90EF90DF9041
:10366000CF90BF90AF909F908F907F906F905F9022
:103670004F903F902F900895AF92BF92CF92DF92DC
:10368000EF92FF920F931F9380918404882389F017
:103690001092120510921305109214051092150540
:1036A0001092160510921705109218051092190520
:1036B000C2C19091FB0491FF04C082E098279093CF
:1036C000FB049091FB0490FF04C081E09827909345
:1036D000FB0489E995E065EA75E00E947F16609336
:1036E000000570930105809302059093030589E915
:1036F00095E065EA75E00E94F6165B016C01609347
:103700006F057093700580937105909372052091F9
:10371000000530910105409102055091030580910B
:10372000FC049091FD04A091FE04B091FF04281BBD
:10373000390B4A0B5B0B209304053093050540932E
:103740000605509307058091DA04873009F051C0CF
:1037500084E1A816B104C104D104CCF4205B394B38
:103760004F4F5F4FCA01B9010E942B277B018C018B
:10377000C601B5010E942B2720E030E040EA51E469
:103780000E94902620E030EA4CE056E420C088E217
:10379000A816B104C104D10464F5CA01B9010E949C
:1037A0002B277B018C0168E270E080E090E06A19D1
:1037B0007B098C099D090E942B2720E030E040EA1C
:1037C00051E40E94902620E030EA4CE056EC0E9442
:1037D0004D289B01AC01C801B7010E94C3250E947E
:1037E000F826609304057093050580930605909371
:1037F00007058091040590910505A0910605B091FB
:103800000705813526E4920720E0A20720E0B207F1
:1038100064F0805A9C48A040B04080930405909387
:103820000505A0930605B0930705809104059091C6
:103830000505A0910605B0910705803B29EB92078D
:103840002FEFA2072FEFB20764F480569347AF4FD4
:10385000BF4F8093040590930505A0930605B09390
:10386000070560910405709105058091060590910A
:1038700007050E942B270E94DE030E94F826609312
:1038800012057093130580931405909315056091AC
:10389000AD057091AE052091A1053091A205621B86
:1038A000730B70930D0560930C05882777FD809549
:1038B000982F0E942B275B016C012091A704309167
:1038C000A8044091A9045091AA040E944D280E9486
:1038D000F826653F21E0720720E0820720E092078A
:1038E00024F064EF71E080E090E064322AEF720728
:1038F0002FEF82072FEF920724F464E27AEF8FEF25
:103900009FEF6093160570931705809318059093A9
:103910001905C601B5012091AB043091AC0440916A
:10392000AD045091AE040E944D280E94F8266031EB
:1039300071058105910524F06FE070E080E090E072
:10394000613F2FEF72072FEF82072FEF920724F4CA
:1039500061EF7FEF8FEF9FEF70939E0460939D0464
:103960008091DA04873009F466C020916F053091A8
:1039700070054091710550917205121613061406D8
:1039800015060CF449C088E696E061ED73E00E94EC
:1039900096244091990550919A0560919B057091EC
:1039A0009C0588E696E00E94582588E696E06AEE37
:1039B00073E00E94962440919D0550919E05609170
:1039C0009F057091A00588E696E00E94582588E63C
:1039D00096E06DEE73E00E9496244091A50550910B
:1039E000A6056091A7057091A80588E696E00E945B
:1039F000582588E696E06AEE73E00E94962440918E
:103A0000A9055091AA056091AB057091AC0588E6B7
:103A100096E00E947F250FC08091980490E0A0E07E
:103A2000B0E0281739074A075B072CF481E00E94B1
:103A3000180E0E944C191F910F91FF90EF90DF908C
:103A4000CF90BF90AF9008958F929F92AF92BF9208
:103A5000CF92DF92EF92FF920F931F93CF93DF935A
:103A600088E696E00E94D623082F10E00115110584
:103A700009F4CAC063E070E080E090E00E94622137
:103A8000C0E0D0E075E0972E67E0862E56E0A52EC8
:103A900048E0C42E32E0B32EDD24D39423E0E22E9E
:103AA00094E0F92E88E696E00E94EA23382F809170
:103AB000D605843009F445C0853050F48130D9F002
:103AC000813098F08230F9F0833009F098C02AC034
:103AD000863009F454C0863008F442C0873009F4B7
:103AE00069C0883009F08BC06AC0353B09F087C0D7
:103AF000D092D60584C0323619F4B092D6057FC074
:103B00001092D6057CC03093580590915205930FC2
:103B10009093520580915305890F80935305E0924D
:103B2000D6056DC03093590590915205930F90932F
:103B3000520580915305890F80935305F092D60565
:103B40005EC030935A0590915205930F90935205A1
:103B500080915305890F809353059092D6054FC0ED
:103B600030935B0590915205930F9093520580918D
:103B70005305890F80935305A092D60540C020912C
:103B80005C05E22FF0E0E65DFA4F3083909152053C
:103B9000930F9093520580915305890F809353059D
:103BA0002F5F20935C0580915A05281740F1809281
:103BB000D60525C030935D05C092D60520C0309350
:103BC0005E059091520580915D05981781F4809172
:103BD0005305831761F40E94C2110E94542160931F
:103BE000D7057093D8058093D9059093DA05109284
:103BF000D60510925C05109252051092530521963D
:103C0000C017D1070CF44ECF0E9454212091D70544
:103C10003091D8054091D9055091DA05621B730B9C
:103C2000840B950B615D77408040904078F18CE08B
:103C300060E00E94042281E0809397041092FB04CC
:103C40000E9454212091D7053091D8054091D90583
:103C50005091DA05621B730B840B950B615177420F
:103C60008040904098F083E0809397040E94542114
:103C70006093D7057093D8058093D9059093DA05A2
:103C800088E696E068EF73E00E94B524DF91CF915B
:103C90001F910F91FF90EF90DF90CF90BF90AF906A
:103CA0009F908F900895CF93DF9388E696E060E130
:103CB00073E00E94B52488E696E067E074E00E9415
:103CC000B5241092FB0481E0809397042CC00E94DD
:103CD000241D8CE060E00E94042269E170E080E035
:103CE00090E00E9462218CE061E00E94042269E180
:103CF00070E080E090E00E9462212196C531D105FC
:103D000034F380919704813031F488E696E064E1E1
:103D100074E00E94B52480919704813039F4809139
:103D2000FB04882319F4C0E0D0E0E8CFDF91CF9105
:103D300008950E94542120916305309164054091BB
:103D4000650550916605621B730B840B950B6093A0
:103D50006B0570936C0580936D0590936E056431CF
:103D600071058105910508F434C10E9454216093C6
:103D700063057093640580936505909366050E94C2
:103D80001D190E9493040E94DC180E94BD140E9419
:103D90005421209167053091680540916905509143
:103DA0006A05621B730B840B950B653671058105E3
:103DB000910558F10E94542160936705709368053E
:103DC0008093690590936A050E94241D8091FB04ED
:103DD00080FF02C00E940E0C80918404882379F039
:103DE0008091990590919A05A0919B05B0919C05B1
:103DF000181619061A061B0614F40E94B6170E941C
:103E0000A50B0E9450140E947B108091DA0481302F
:103E100019F40E940009AFC0823009F093C080916C
:103E2000E1049091E2042091DB043091DC04821BD8
:103E3000930B9C01A3E0220F331FAA95E1F7280FF3
:103E4000391FC901AA2797FDA095BA2F8D3A2DE0F9
:103E5000920720E0A20720E0B20724F08CEA9DE060
:103E6000A0E0B0E09C01AD01243582EF38078FEF70
:103E700048078FEF580724F424E532EF4FEF5FEF48
:103E800020931205309313054093140550931505A4
:103E90006091E3047091E4048091DD049091DE046C
:103EA000681B790BCB01F3E0880F991FFA95E1F7B6
:103EB000860F971F9C01442737FD4095542F253FBF
:103EC00081E0380780E0480780E0580724F024EFBD
:103ED00031E040E050E0DA01C90184322AEF920774
:103EE0002FEFA2072FEFB20724F484E29AEFAFEF8F
:103EF000BFEF8093160590931705A0931805B09314
:103F000019058CED95E09C01629FC001639F900DA7
:103F1000729F900D112468EE73E00E945429CB012A
:103F20006031710514F08FE090E03FEF813F93071F
:103F300014F481EF9FEF90939E0480939D040E9460
:103F4000DC0719C0853028F00E943C1B0E94F5094F
:103F500012C0882381F48091E1049091E20490934F
:103F60008A04809389048091E3049091E4049093FF
:103F70008C0480938B041092FB048091DA048230CD
:103F800088F08091F1049091F2048D33910514F042
:103F90008CE390E097FF02C080E090E09093F20401
:103FA0008093F1048091F1049091F20420918704B0
:103FB00030918804820F931F83589F4F8093B300E2
:103FC000E3E0880F991FEA95E1F790938E048093C0
:103FD0008D0408958CE061E00E94E42188E696E07B
:103FE00040E056E960E070E00E94DD22089588E636
:103FF00096E060E374E00E94B5240E94CE1280E255
:1040000080936B008CE080936D00E8E6F0E084E044
:10401000808380818160808381E090E09093880438
:10402000809387040E94A1110E94EA1F0E94C21976
:10403000809177050E949B150E94471908958CE096
:1040400061E00E94E42188E696E040E056E960E005
:1040500070E00E94DD220E94531E08951F9388E69F
:1040600096E06DE374E00E94B5240E94A1110E94C5
:1040700006130E9454160E94CE120E941F200E9416
:104080002E100E94DB170E94CE12809177050E94AD
:104090009B150E94CE1268EE73E080E090E00E94D3
:1040A00062210E94CE1216C088E696E06DE474E0AC
:1040B0000E94B5240E94CE120E94241D10E00E948E
:1040C000BD1464E170E080E090E00E9462211F5F17
:1040D0001233A9F786E00E945122892B29F30E940E
:1040E0002E100E9494150E9444110E94471988E6E0
:1040F00096E060E173E00E94B52488E696E060E611
:1041000074E00E94B5241F91089588E696E06FE65A
:1041100074E00E94B52482E060E00E94E42183E024
:1041200060E00E94E42184E060E00E94E42185E0F8
:1041300060E00E94E42186E060E00E94E42187E0E4
:1041400061E00E94E42188E061E00E94E42189E0CE
:1041500061E00E94E4218AE061E00E94E4218BE0BA
:1041600061E00E94E4218CE061E00E94E4218DE0A6
:1041700060E00E94E42186E061E00E9404220E9447
:10418000A1110E94EE1382EA809380008AE180935D
:10419000810088EB9BE09093890080938800909346
:1041A0008B0080938A0080E49CE990938700809341
:1041B000860092E09093B00085E08093B1008DE797
:1041C0008093B30080916F00806280936F00909322
:1041D00070000E9494150E94430D0E94CF1086E04B
:1041E0000E945122892B19F40E942E2008950E94CA
:1041F000F71F089588E696E040E056E960E070E039
:104200000E94DD220E94852008950E948C210E9438
:10421000FA200E94991EFDCF1F920F920FB60F92A7
:1042200011242F933F938F939F93AF93BF938091CC
:10423000DF059091E005A091E105B091E205309194
:10424000E3050196A11DB11D232F2D5F2D3720F011
:104250002D570196A11DB11D2093E3058093DF0525
:104260009093E005A093E105B093E2058091DB0512
:104270009091DC05A091DD05B091DE050196A11DB0
:10428000B11D8093DB059093DC05A093DD05B09311
:10429000DE05BF91AF919F918F913F912F910F902C
:1042A0000FBE0F901F9018958FB7F8942091DF05DF
:1042B0003091E0054091E1055091E2058FBFB901D1
:1042C000CA010895EF92FF920F931F937B018C0117
:1042D0008FB7F8944091DF055091E0056091E105BA
:1042E0007091E2058FBF2FB7F8948091DF05909110
:1042F000E005A091E105B091E2052FBF841B950B6D
:10430000A60BB70BE816F9060A071B0760F71F9103
:104310000F91FF90EF900895789484B5826084BDEA
:1043200084B5816084BD85B5826085BD85B58160B9
:1043300085BDEEE6F0E0808181608083E1E8F0E019
:10434000808182608083808181608083E0E8F0E00A
:10435000808181608083E1EBF0E0808184608083F4
:10436000E0EBF0E0808181608083EAE7F0E080812B
:10437000846080838081826080838081816080838B
:104380008081806880831092C10008958F70909121
:10439000CF049295990F990F907C982B90937C0065
:1043A00080917A00806480937A0080917A0086FD03
:1043B000FCCF2091780040917900942F80E030E08C
:1043C000282B392BC9010895282F30E0C9018B51C2
:1043D0009F4FFC0194912F523F4FF9018491882304
:1043E00091F0E82FF0E0EE0FFF1FED54FF4FA59185
:1043F000B491662329F48C91909589238C93089528
:104400008C91892B8C930895482F50E0CA018750D6
:104410009F4FFC012491CA018B519F4FFC01949145
:104420004F525F4FFA0134913323D1F1222331F1FE
:10443000233021F4809180008F7705C0243031F43F
:10444000809180008F7D8093800018C0213019F406
:1044500084B58F7704C0223021F484B58F7D84BD6C
:104460000DC0263021F48091B0008F7705C0273031
:1044700029F48091B0008F7D8093B000E32FF0E0AD
:10448000EE0FFF1FE354FF4FA591B491662329F46B
:104490008C91909589238C9308958C91892B8C9382
:1044A0000895682F70E0CB0187509F4FFC01249145
:1044B000CB018B519F4FFC0144916F527F4FFB0109
:1044C0009491992319F420E030E038C0222331F18F
:1044D000233021F4809180008F7705C0243031F49F
:1044E000809180008F7D8093800018C0213019F466
:1044F00084B58F7704C0223021F484B58F7D84BDCC
:104500000DC0263021F48091B0008F7705C0273090
:1045100029F48091B0008F7D8093B000892F90E0C6
:10452000880F991F89539F4FFC01A591B4918C91DD
:1045300020E030E0842311F021E030E0C90108954B
:104540001F920F920FB60F9211242F933F934F9308
:104550005F936F937F938F939F93AF93BF93EF93EB
:10456000FF934091C600E0916406F0916506CF018B
:10457000019660E870E00E9454299C0180916606D3
:10458000909167062817390739F0EC51FA4F4083AC
:104590003093650620936406FF91EF91BF91AF9130
:1045A0009F918F917F916F915F914F913F912F914B
:1045B0000F900FBE0F901F9018955F926F927F9291
:1045C0008F929F92AF92BF92CF92DF92EF92FF9223
:1045D0000F931F93CF93DF93EC013A014B014134CA
:1045E00082E458078FE0680780E078070CF07FC00E
:1045F00060E874E88EE190E0A40193010E948929AB
:104600002150304040405040CA01B90122E030E022
:1046100040E050E00E94892959016A01A6019501F4
:10462000209530954095509594E0220F331F441FFC
:10463000551F9A95D1F760E074E284EF90E00E94F4
:104640008929CA01B9012FEF30E040E050E00E9413
:104650002929A40193010E948929C90181509F4FF2
:10466000181619061CF4522E5A9403C0552453945C
:10467000521A60E079E08DE390E0A40193010E947A
:1046800089292150304040405040CA01B90122E000
:1046900030E040E050E00E94892920953095409517
:1046A000509583E0220F331F441F551F8A95D1F781
:1046B00060E074E284EF90E00E948929CA01B901A8
:1046C0002FEF30E040E050E00E942929A40193013F
:1046D0000E948929C90181509F4F181619061CF4A0
:1046E000822F815002C081E0821B851500F5E8858C
:1046F000F98581E090E00A8802C0880F991F0A942A
:10470000E2F7808360E079E08DE390E0A40193011B
:104710000E9489292150304040405040CA01B901CF
:1047200022E030E040E050E00E94892904C0E885A2
:10473000F98510829501EC81FD813083EE81FF8146
:104740002083EA85FB85208141E050E0CA010E8488
:1047500002C0880F991F0A94E2F7282B2083EA856C
:10476000FB852081CA010F8402C0880F991F0A941B
:10477000E2F7282B2083EA85FB858081088802C028
:10478000440F551F0A94E2F7842B8083DF91CF9169
:104790001F910F91FF90EF90DF90CF90BF90AF905F
:1047A0009F908F907F906F905F900895DC0112969C
:1047B000ED91FC911397E058FF4F819191918058B2
:1047C0009F4F20813181821B930B60E870E00E9433
:1047D00054290895CF93DF93DC011296ED91FC915B
:1047E0001397EF01CE57DF4F48815981E058FF4FB3
:1047F00080819181E058F0408417950719F42FEFDC
:104800003FEF0CC0E40FF51F2081CA01019660E85C
:1048100070E00E9454299983888330E0C901DF91B8
:10482000CF910895FC01A085B18521898C9190E0FC
:10483000022E02C0959587950A94E2F780FFF6CF85
:104840000484F585E02D6083089584ED94E09093D1
:1048500069068093680684EE95E090936B068093DA
:104860006A0685EC90E090936D0680936C0684EC6C
:1048700090E090936F0680936E0680EC90E09093AA
:1048800071068093700681EC90E09093730680939C
:10489000720686EC90E0909375068093740684E02F
:1048A0008093760683E08093770687E0809378068E
:1048B00085E08093790681E080937A0608950F93CE
:1048C0001F93CF93DF938C01EB0109C02196D80190
:1048D000ED91FC910190F081E02DC801099568816E
:1048E0006623A1F7DF91CF911F910F910895EF9269
:1048F000FF920F931F93CF93DF938C017B01EA010B
:104900000CC0D7016D917D01D801ED91FC91019012
:10491000F081E02DC80109952197209791F7DF914B
:10492000CF911F910F91FF90EF900895DC01ED91D1
:10493000FC910280F381E02D099508950F931F9358
:104940008C01DC01ED91FC910190F081E02D6DE096
:104950000995D801ED91FC910190F081E02DC801FD
:104960006AE009951F910F9108950F931F938C0191
:104970000E949624C8010E949E241F910F910895C1
:104980002F923F924F925F926F927F928F929F925F
:10499000AF92BF92CF92DF92EF92FF920F931F934D
:1049A000DF93CF93CDB7DEB7A0970FB6F894DEBFF5
:1049B0000FBECDBF1C016A017B0141155105610588
:1049C000710549F4DC01ED91FC910190F081E02D3D
:1049D00060E3099554C0882499245401422E55243B
:1049E0006624772401E010E00C0F1D1F080D191D2F
:1049F000C701B601A30192010E946729F8016083F3
:104A00000894811C911CA11CB11CC701B601A30113
:104A100092010E946729C901DA016C017D01C1146C
:104A2000D104E104F104F1F681E0E82EF12CEC0E62
:104A3000FD1EE80CF91C3E010894611C711CD50197
:104A4000C4010197A109B1096C01C818D90814C0A3
:104A5000F601EE0DFF1D60816A3010F4605D01C04B
:104A6000695CD101ED91FC910190F081E02DC101D3
:104A700009950894E108F1086E147F0449F7A0969F
:104A80000FB6F894DEBF0FBECDBFCF91DF911F915F
:104A90000F91FF90EF90DF90CF90BF90AF909F90DD
:104AA0008F907F906F905F904F903F902F900895E0
:104AB000EF92FF920F931F93CF93DF93EC017A0154
:104AC0008B0177FF0FC0E881F9810190F081E02D23
:104AD0006DE2099510950095F094E094E11CF11CAD
:104AE000011D111DCE01B801A7012AE00E94C024BA
:104AF000DF91CF911F910F91FF90EF9008950F9349
:104B00001F938C010E945825C8010E949E241F916A
:104B10000F910895AB01662757FD6095762F0E948F
:104B2000582508950F931F938C01AB01662757FDFD
:104B30006095762F0E945825C8010E949E241F91DF
:104B40000F910895DC012115310541F4ED91FC919F
:104B50000190F081E02D642F099508952A303105E8
:104B600019F40E94582508950E94C02408950F93B7
:104B70001F938C010E94A225C8010E949E241F91B0
:104B80000F9108955058BB27AA270ED030C2F0D1FC
:104B900030F0F5D120F031F49F3F11F41EF4C0C184
:104BA0000EF4E095E7FBB6C1E92F43D280F3BA17C4
:104BB000620773078407950718F071F49EF55BC2CE
:104BC0000EF4E0950B2EBA2FA02D0B01B901900128
:104BD0000C01CA01A0011124FF27591B99F0593F6C
:104BE00050F4503E68F11A16F040A22F232F342FB4
:104BF0004427585FF3CF469537952795A795F04002
:104C00005395C9F77EF41F16BA0B620B730B840B16
:104C1000BAF09150A1F0FF0FBB1F661F771F881FCE
:104C2000C2F70EC0BA0F621F731F841F48F4879526
:104C300077956795B795F7959E3F08F0B3CF939515
:104C4000880F08F09927EE0F97958795089590D1D2
:104C500058F080E891E009F49EEF91D128F040E807
:104C600051E059F45EEF09C05BC105C2E92FE0785D
:104C7000E0D168F3092E052AC1F326173707480744
:104C8000590738F00E2E07F8E02569F0E025E064BA
:104C90000AC0EF6307F8009407FADB01B9019D0130
:104CA000DC01CA01AD01EF934AD0A1D10AD05F91D6
:104CB000552331F02BED3FE049E450FD49EC63CF43
:104CC0000895DF93DD27B92FBF7740E85FE316161D
:104CD000170648075B0710F4D92FD8D19F938F93FD
:104CE0007F936F938BD2E8E6F0E01DD180D12F91B6
:104CF0003F914F915F91DDD1DD2349F09058A2EAB9
:104D00002AED3FE049EC5FE3D0785D274DDFDF918E
:104D10006EC1DCD008F481E0089539D1E39578C103
:104D20000CD065C12CD140F023D130F021F45F3F8D
:104D300019F0F0C05111A0C1F3C07BD198F39923B1
:104D4000C9F35523B1F3951B550BBB27AA2762174F
:104D50007307840738F09F5F5F4F220F331F441F94
:104D6000AA1FA9F333D00E2E3AF0E0E830D09150CC
:104D70005040E695001CCAF729D0FE2F27D0660FB9
:104D8000771F881FBB1F261737074807AB07B0E8F8
:104D900009F0BB0B802DBF01FF2793585F4F2AF00E
:104DA0009E3F510568F0B6C067C15F3FECF3983E87
:104DB000DCF3869577956795B795F7959F5FC9F76B
:104DC000880F911D9695879597F90895E1E0660FF4
:104DD000771F881FBB1F621773078407BA0720F06D
:104DE000621B730B840BBA0BEE1F88F7E0950895D6
:104DF00004D06894B11140C1089523D188F09F5721
:104E000090F0B92F9927B751A0F0D1F0660F771F16
:104E1000881F991F1AF0BA95C9F712C0B13081F0F6
:104E20002AD1B1E0089527C1672F782F8827B85F6E
:104E300039F0B93FCCF3869577956795B395D9F757
:104E40003EF490958095709561957F4F8F4F9F4F61
:104E50000895E89409C097FB3EF49095809570956D
:104E600061957F4F8F4F9F4F9923A9F0F92F96E9B6
:104E7000BB279395F695879577956795B795F1112B
:104E8000F8CFFAF4BB0F11F460FF1BC06F5F7F4FC8
:104E90008F4F9F4F16C0882311F096E911C07723DA
:104EA00021F09EE8872F762F05C0662371F096E8E3
:104EB000862F70E060E02AF09A95660F771F881FB2
:104EC000DAF7880F9695879597F90895990F000856
:104ED000550FAA0BE0E8FEEF16161706E807F907CC
:104EE000C0F012161306E407F50798F0621B730B67
:104EF000840B950B39F40A2661F0232B242B252BE8
:104F000021F408950A2609F4A140A6958FEF811D8A
:104F1000811D089597F99F6780E870E060E008952B
:104F20009FEF80EC0895DF93CF931F930F93FF9231
:104F3000EF92DF927B018C01689405C0DA2EEF01BD
:104F4000B8D0FE01E894A5912591359145915591F0
:104F5000AEF3EF0129DEFE019701A801DA9479F79B
:104F6000DF90EF90FF900F911F91CF91DF91089507
:104F700000240A9416161706180609060895002438
:104F80000A9412161306140605060895C9CF59D0BF
:104F9000E8F3E894EFEFBB273FE048EC5FE76B3DB9
:104FA00073078407950708F1FF279F57B25A6A4D88
:104FB0007F40894CF04032F4BE556542704F8643C5
:104FC000FF4F0894EE1F915030F0BB0F661F771F04
:104FD000881FFF1FEBCF9EE7882332F0BB0F661FB1
:104FE000771F881F9A95C1F79395E0950AC1092EFE
:104FF0000394000C11F4882352F0BB0F40F4BF2B34
:1050000011F460FF04C06F5F7F4F8F4F9F4F089573
:10501000EF93E0FF06C0A2EA2AED3FE049EC5FEB28
:10502000C3DDE5DF0F90039401FC9058E5E9F0E063
:10503000FFC057FD9058440F551F59F05F3F71F066
:105040004795880F97FB991F61F09F3F79F08795EF
:105050000895121613061406551FF2CF4695F1DF78
:1050600008C0161617061806991FF1CF8695710508
:10507000610508940895E894BB2766277727CB013C
:1050800097F9089523DF08F48FEF08959B01AC0191
:1050900060E070E080E89FE343CE0BD0A8CF68DFEC
:1050A00028F06DDF18F0952309F034CF39CF1124A3
:1050B000E3CFBFDFA0F3959FD1F3950F50E0551FCD
:1050C000629FF001729FBB27F00DB11D639FAA275D
:1050D000F00DB11DAA1F649F6627B00DA11D661FAC
:1050E000829F2227B00DA11D621F739FB00DA11DCD
:1050F000621F839FA00D611D221F749F3327A00D87
:10510000611D231F849F600D211D822F762F6A2F22
:1051100011249F5750408AF0E1F088234AF0EE0FA7
:10512000FF1FBB1F661F771F881F91505040A9F7B4
:105130009E3F510570F0EECE9FCF5F3FECF3983E5F
:10514000DCF3869577956795B795F795E7959F5F1B
:10515000C1F7FE2B880F911D9695879597F90895B5
:1051600011F40EF4DDCE4DC06CDFD0F39923D9F3EA
:10517000CEF39F57550B87FF54D056959795B0E0C7
:1051800020F4660F771F881FBB1F1F930F93002407
:105190009001A0018001F001A0E80E0F1F1F0A1E60
:1051A000511D601B710B8009B50B48F4600F711F16
:1051B000801DB51F0E1B1F0B0A0A510907C02E0FB9
:1051C0003F1F4A1F0E0F1F1F0A1E511D660F771F1C
:1051D000881FBB1FA695F795E795F8F606171707E2
:1051E00008065B07211D311D411D0F911F91B9015B
:1051F000842F9158880F9695879508959B01AC014F
:105200004CCF9F3F49F0915028F48695779567954C
:10521000B7959F5F80389F4F880F9695879597F930
:10522000089591505040660F771F881FD2F7089558
:105230009F938F937F936F93FF93EF939B01AC01A9
:105240002CDFEF91FF916FDE2F913F914F915F9196
:1052500024CF629FD001739FF001829FE00DF11D6A
:10526000649FE00DF11D929FF00D839FF00D749FE0
:10527000F00D659FF00D9927729FB00DE11DF91F8C
:10528000639FB00DE11DF91FBD01CF0111240895E9
:10529000991B79E004C0991F961708F0961B881F88
:1052A0007A95C9F78095089597FB092E07260AD0AD
:1052B00077FD04D049D006D000201AF4709561958E
:1052C0007F4F0895F6F7909581959F4F0895A1E23D
:1052D0001A2EAA1BBB1BFD010DC0AA1FBB1FEE1F70
:1052E000FF1FA217B307E407F50720F0A21BB30BBB
:1052F000E40BF50B661F771F881F991F1A9469F737
:1053000060957095809590959B01AC01BD01CF0192
:10531000089597FB092E05260ED057FD04D0D7DF40
:105320000AD0001C38F450954095309521953F4F98
:105330004F4F5F4F0895F6F7909580957095619562
:105340007F4F8F4F9F4F0895AA1BBB1B51E107C092
:10535000AA1FBB1FA617B70710F0A61BB70B881F05
:10536000991F5A95A9F780959095BC01CD01089594
:10537000EE0FFF1F0590F491E02D0994F894FFCFF4
:105380002323307C204D414E55414C002323317C5A
:105390002053544142494C495A45002323327C2032
:1053A000464C592042592057495245002323357C09
:1053B000204155544F50494C4F54002323367C20F4
:1053C00052544C002323377C204C4F495445520003
:1053D0002B2B2B004153503A002C5448483A002CB8
:1053E000524C4C3A002C5043483A002C2A2A2A00AE
:1053F000212121004C41543A002C4C4F4E3A002CB4
:105400005350443A002C4352543A002C414C543AE5
:10541000002C414C483A002C4352533A002C424550
:10542000523A002C57504E3A002C4453543A002C18
:105430004254563A002C5253503A0077705F746FC2
:1054400074616C20006F7074696F6E7320007770E8
:105450005F7261646975732000707265765F575082
:105460003A200009006E6578745F57503A00526523
:1054700061636865642057503A004E6F7720676F0C
:10548000696E6720746F2057503A004C6F616465F5
:105490006420575020696E6465783A004C6F6F70D5
:1054A000656420575020496E646578007761797093
:1054B0006F696E74202300646562756767696E6743
:1054C000202D20496E6974204C6F636174696F6E82
:1054D00000526164696F205472696D206572726F49
:1054E00072004E6F2054686F74746C653A200077B8
:1054F000705F746F74616C3A2000686F6D653A205C
:1055000009007770202300523A0009453A000954F7
:105510003A0052656164696E6720726164696F2048
:105520006C696D6974733A00004D6F766520737411
:1055300069636B7320746F3A2075707065722072A6
:105540006967687420616E64206C6F776572204CA7
:105550006566742E00546F20436F6E74696E7565B6
:105560002C20686F6C642074686520737469636BA9
:1055700020696E2074686520636F726E65722066A4
:105580006F722032207365636F6E64732E002E007D
:10559000200072657365745F776179706F696E74EE
:1055A0005F696E646578004C6F7720426174746542
:1055B0007279002A2A2A2A4641494C5341464520FD
:1055C0004F4E2A2A2A2A2A2A002A2A2A2A464149CA
:1055D0004C53414645204F46462A2A2A2A2A2A0069
:1055E0002A2A2A204641494C5341464520444554E5
:1055F0004543544544202A2A2A002A4641494C530F
:10560000414645204F46462A004C6F6F70696E67D1
:105610002C20676F696E6720746F20776179706FD7
:10562000696E74203100446F6E652C20486561649A
:10563000696E6720686F6D65006D6F76696E6720B3
:105640006F6E20746F20776179706F696E743A2085
:105650000077705F64697374616E63652065727250
:105660006F722C206C6F633A20002C200020206E7B
:105670006578745F575020006770734661696C7578
:1056800072652E2E2E20005761697420666F72207D
:10569000475053005374696C6C2057616974696E8C
:1056A000673A204E6F2056616C6964204669780025
:1056B000537461727475703A204169720053746159
:1056C000727475703A2047726F756E640052656D22
:1056D0006F76652053616665747920466C6167005A
:1056E000526561647920746F20464C592E20004920
:1056F0006E6974204172647570696C6F7420322E0B
:10570000352E300001F7030100DC05DC05F703C48A
:1057100004FB071104E506010F0000803F1900B4E7
:10572000C8363F5C8FC23D0000C03F713DAA3FFFBD
:10573000010000FF010000FF0100000080FF43287E
:1057400000FF010000FF010000B80BB80BEE0701DD
:0A5750000000000012245F247724FB
:00000001FF
