:100000000C9488000C94B0000C94B0000C94B000D8
:100010000C94B0000C94B0000C94B0000C944F03FE
:100020000C94B0000C94B0000C9442030C94B000FB
:100030000C94B0000C94B0000C94B0000C94B00080
:100040000C9412140C94B0000C9419160C94B0007B
:100050000C94B0000C943E010C94B0000C94B000D1
:100060000C94B0000C94B000084AD73B3BCE016E14
:1000700084BCBFFDC12F3D6C74319ABD56833DDAFF
:100080003D00C77F11BED9E4BB4C3E916BAAAABE0E
:10009000000000803F05A84CCDB2D44EB93836A937
:1000A000020C50B9918688083CA6AAAA2ABE000074
:1000B00000803F00000000240027002A000000000C
:1000C00000250028002B0000000000230026002946
:1000D00000040404040404040402020202020203F1
:1000E00003030303030102040810204080010204FB
:1000F000081020010204081020000000070002017F
:1001000000000304060000000000000000009E172D
:1001100011241FBECFEFD8E0DEBFCDBF11E0A0E0BD
:10012000B1E0E6E5FBE302C005900D92AC3CB107FF
:10013000D9F713E0ACECB1E001C01D92A030B107DB
:10014000E1F711E0C0E1D1E004C02297FE010E9476
:10015000A51DCE30D107C9F70E940B140C94A91D20
:100160000C940000BF92CF92DF92EF92FF920F9318
:100170001F937B018C01FB010995B82EC8010196E4
:10018000F7010995C82EC8010296F7010995D82EE6
:10019000C8010396F7010995982F6B2D7C2D8D2DA5
:1001A0001F910F91FF90EF90DF90CF90BF90089537
:1001B000DF92EF92FF920F931F937B018C01FB0163
:1001C0000995D82EC8010196F7010995982F8D2D14
:1001D0001F910F91FF90EF90DF900895BF92CF9203
:1001E000DF92EF92FF920F931F93D52EC62EB72E5C
:1001F00079018C01642FF9010995C80101966D2DD3
:10020000F7010995C80102966C2DF7010995C801FF
:1002100003966B2DF70109951F910F91FF90EF90B9
:10022000DF90CF90BF900895DF92EF92FF920F93EF
:100230001F93D72E7A018C01FA010995C801019606
:100240006D2DF70109951F910F91FF90EF90DF90B1
:1002500008959C01F999FECF32BD21BDF89A80B571
:1002600008959C01F999FECF1FBA32BD21BD60BD32
:100270000FB6F894FA9AF99A0FBE08951F920F924A
:100280000FB60F9211248F9381E08093F2018F912A
:100290000F900FBE0F901F901895EF92FF920F9343
:1002A0001F936091A7017091A8018091A90190917D
:1002B000AA0120E030E84FEF53E40E94B31920E098
:1002C00030E044EB52E40E943E1C7B018C016091C3
:1002D000F3017091F401882777FD8095982F0E9493
:1002E0001C1B9B01AC01C801B7010E94811A0E942E
:1002F000E91ACB011F910F91FF90EF900895EF92B3
:10030000FF920F931F936091AB017091AC018091AC
:10031000AD019091AE0120E030E84FEF53E40E9430
:10032000B31920E030E044EB52E40E943E1C7B0114
:100330008C016091F3017091F401882777FD80951D
:10034000982F0E941C1B9B01AC01C801B7010E94A1
:10035000811A0E94E91ACB011F910F91FF90EF9033
:1003600008950F931F930E947F018C010E944D01FD
:10037000800F911F2FEF873892071CF424EC3FEF7A
:100380000BC08A3791051CF02CE330E005C062E019
:1003900070E00E943F1D9B01C9011F910F910895BC
:1003A0000F931F930E944D018C010E947F019801C1
:1003B000281B390BC9013FEF873893071CF424EC45
:1003C0003FEF0BC08A3791051CF02CE330E005C0ED
:1003D00062E070E00E943F1D9B01C9011F910F91D7
:1003E0000895EF92FF920F931F930E94B1019C0119
:1003F0001816190624F48B3091055CF506C0882781
:100400009927821B930B0B9724F560E070E88FEF20
:1004100093E42091AF013091B0014091B10150912E
:10042000B2010E94B3197B018C0120E030E040E072
:1004300050E00E94331C18161CF4C801B70103C019
:10044000C801B70190580E94E91A7093F4016093B3
:10045000F3011F910F91FF90EF900895EF92FF929B
:100460000F931F938091F201813009F006C1109221
:10047000F20120917800909179008091F101823011
:10048000B9F1833030F4882359F0813009F0DBC0B2
:100490001BC0833009F45EC0853009F0D4C08AC027
:1004A000792F60E030E0622B732B882777FD8095F1
:1004B000982F0E941C1B6093A7017093A801809342
:1004C000A9019093AA01BFC0792F60E030E0622BB0
:1004D000732B882777FD8095982F0E941C1B6093B3
:1004E000AB017093AC018093AD019093AE01ABC0B2
:1004F000792F60E030E0622B732B882777FD8095A1
:10050000982F0E941C1B24EA30E74DE75FE30E940E
:100510003E1C7B018C016091AF017091B001809114
:10052000B1019091B2012AE037ED43E25CE30E9411
:100530003E1C9B01AC01C801B7010E94B419609335
:10054000AF017093B0018093B1019093B2010E940A
:10055000F10179C0792F60E030E0622B732B88279E
:1005600077FD8095982F0E941C1B23E333E343E71C
:100570005FE30E943E1C7B018C016091B30170918E
:10058000B4018091B5019091B6012DEC3CEC4CE4A6
:100590005DE30E943E1C9B01AC01C801B7010E94B3
:1005A000B4196093B3017093B4018093B501909333
:1005B000B60149C0792F60E030E0622B732B8827A9
:1005C00077FD8095982F0E941C1B24EA30E74DE7A9
:1005D0005FE30E943E1C7B018C016091B70170912A
:1005E000B8018091B9019091BA012AE037ED43E258
:1005F0005CE30E943E1C9B01AC01C801B7010E9454
:10060000B4196093B7017093B8018093B9019093C6
:10061000BA0120E030EA4BE950E40E943E1C27E991
:1006200036E946E95EE30E94811A20E030E04AE7BD
:1006300054E40E94811A60931E0270931F028093FB
:100640002002909321028091F1018F5F8093F1014C
:10065000863010F01092F1018091A6018295880FEA
:10066000880F807C9091F1019770892B80937C009A
:1006700080917A00806480937A001F910F91FF909F
:10068000EF9008951F920F920FB60F9211241092BF
:10069000B200289A0F900FBE0F901F9018951F92CE
:1006A0000F920FB60F92112428980F900FBE0F9043
:1006B0001F9018959C0170E0861797070CF58091A4
:1006C00030028823E9F481E08093300220910D020A
:1006D0002F5F8091BD01821708F420E020930D0266
:1006E000F999FECFF999FECF1FBA8AE090E092BD4A
:1006F00081BD20BD0FB6F894FA9AF99A0FBE0895FD
:100700006217730714F4109230020895CF93DF93A9
:100710009C018091BF019091C0012817390709F40D
:100720004AC03093C0012093BF01E90143E0CC0FE0
:10073000DD1F4A95E1F7220F331FC20FD31F2E96FC
:10074000F999FECFCE0169E271E00E94B2000E94E9
:100750001C1B20E034E244E759E40E94811A6093B4
:100760001002709311028093120290931302249648
:10077000F999FECFCE0169E271E00E94B2000E94B9
:100780001C1B20E034E244E759E40E94811A609384
:100790001402709315028093160290931702F99930
:1007A000FECFCE01049669E271E00E94D8009093DA
:1007B000190280931802DF91CF910895CF93DF93B0
:1007C0008DEE92E060E071E00E940F186091BD0133
:1007D0008DEE92E070E00E941819C0E0D0E055C0A4
:1007E000CE010E9486038DEE92E0BE010E94101998
:1007F0008DEE92E06AE071E00E940F1860911002A5
:1008000070911102809112029091130220E034E263
:1008100044E759E40E943E1C0E94E91AAB01BC0166
:100820008DEE92E00E94E9188DEE92E061E171E0B8
:100830000E940F18609114027091150280911602A7
:100840009091170220E034E244E759E40E943E1CF4
:100850000E94E91AAB01BC018DEE92E00E94E918FA
:100860008DEE92E068E171E00E940F18609118022D
:10087000709119028DEE92E00E94DB1868EC70E036
:1008800080E090E00E94741421968091BD0190E078
:100890008C179D070CF0A4CF80E090E00E948603A7
:1008A00068EB7BE080E090E00E947414DF91CF91D0
:1008B0000895F999FECFF999FECF6091B301709137
:1008C000B4018091B5019091B6010E94E91A70932C
:1008D000F6016093F5018CE090E069E271E00E941E
:1008E000D80090930F0280930E020895F999FECFDD
:1008F00012BC11BCF89A80B580930802F999FECF1A
:1009000083E090E092BD81BDF89A80B58093BB01F1
:10091000F999FECF84E090E092BD81BDF89A80B550
:100920008093BC0185E090E069E271E00E94D8000C
:1009300090930A028093090287E090E069E271E0F7
:100940000E94D80090930C0280930B02F999FECF7D
:1009500089E090E092BD81BDF89A80B58093BD0199
:10096000F999FECF8BE090E092BD81BDF89A80B5F9
:100970008093BE010895EF92FF920F931F93809191
:10098000A4019091A501892B09F058C0E090D801ED
:10099000F090D9010091DA011091DB016091090218
:1009A00070910A02882777FD8095982F0E941C1B62
:1009B0009B01AC01C801B7010E94331C181694F4C6
:1009C000C801B7010E94E91A9B0170930A02609363
:1009D0000902F999FECF85E090E0B90141E351E0C9
:1009E0000E941401E090DC01F090DD010091DE0135
:1009F0001091DF0160910B0270910C02882777FD46
:100A00008095982F0E941C1B9B01AC01C801B70167
:100A10000E94331C181694F4C801B7010E94E91A09
:100A20009B0170930C0260930B02F999FECF87E053
:100A300090E0B90141E351E00E9414011F910F9130
:100A4000FF90EF90089584E00E944515019711F002
:100A500080E0089585E00E944515019711F082E03D
:100A6000089581E00895EF92FF920F931F937B0109
:100A70008C010E942305882321F4EE24FF2400E04A
:100A800010E0B701C8011F910F91FF90EF900895FA
:100A9000AF92BF92CF92DF92EF92FF920F931F938C
:100AA0007B01AA2797FDA095BA2FBC01CD010E941A
:100AB0001C1B5B016C0126E636E646E25FE30E9402
:100AC0003E1C0E94E91A7093430260934202002781
:100AD000F7FC0095102FC801B7010E941C1B20E0F5
:100AE00030E04AE754E40E94811A9B01AC01C60140
:100AF000B5010E943E1C23E333E343EB5EE30E9417
:100B00003E1C20913E0230913F02409140025091A4
:100B100041020E94B4197B018C0120E030E040E2E8
:100B200051EC0E947A1A88235CF40F2EF0E0EF2E2D
:100B3000F0E0FF2EF0E20F2FF1EC1F2FF02D14C08C
:100B4000C801B70120E030E040E251E40E94331CCC
:100B5000181654F40F2EF0E0EF2EF0E0FF2EF0E226
:100B60000F2FF1E41F2FF02DE0923E02F0923F0292
:100B70000093400210934102C801B7010E9433055F
:100B80007B018C0160933E0270933F028093400290
:100B9000909341026091420270914302882777FD51
:100BA0008095982F0E941C1BA80197010E94B419E0
:100BB0000E94E91A6A31710514F069E170E08FEF63
:100BC000673E780714F467EE7FEF709343026093FB
:100BD0004202CB011F910F91FF90EF90DF90CF90D9
:100BE000BF90AF900895AF92BF92CF92DF92EF92F5
:100BF000FF920F931F937A01AA2797FDA095BA2F12
:100C0000BC01CD010E941C1B5B016C0123E333E39B
:100C100043EB5EE30E943E1C0E94E91A7093490276
:100C2000609348020027F7FC0095102FC801B70118
:100C30000E941C1B20E030E04AE754E40E94811A25
:100C40009B01AC01C601B5010E943E1C23E333E3C6
:100C500043EB5EE30E943E1C20914402309145022A
:100C600040914602509147020E94B4197B018C01C9
:100C700020E030E040E251EC0E947A1A88235CF4D4
:100C80000F2EF0E0EF2EF0E0FF2EF0E20F2FF1EC50
:100C90001F2FF02D14C0C801B70120E030E040E262
:100CA00051E40E94331C181654F40F2EF0E0EF2E7E
:100CB000F0E0FF2EF0E20F2FF1E41F2FF02DE09275
:100CC0004402F09245020093460210934702C80185
:100CD000B7010E9433057B018C016093440270933D
:100CE00045028093460290934702609148027091BA
:100CF0004902882777FD8095982F0E941C1BA80128
:100D000097010E94B4190E94E91A6A31710514F022
:100D100069E170E08FEF673E780714F467EE7FEFCC
:100D20007093490260934802CB011F910F91FF908D
:100D3000EF90DF90CF90BF90AF900895AF92BF92A9
:100D4000CF92DF92EF92FF920F931F93CF93DF9397
:100D5000EC017A01861B970BBC019C01220F331F0B
:100D6000280F391F3093530220935202882777FDB2
:100D70008095982F0E941C1B5B016C010027F7FCDB
:100D80000095102FC801B7010E941C1B20E030E025
:100D90004AE754E40E94811A9B01AC01C601B501E7
:100DA0000E943E1C20914A0230914B0240914C021D
:100DB00050914D020E94B4197B018C0120E030E07B
:100DC00040E050E00E947A1A88235CF40F2EF0E095
:100DD000EF2EF0E0FF2EF0E00F2FF0E01F2FF02DB0
:100DE00014C0C801B70120E030E04CE852E40E9492
:100DF000331C181654F40F2EF0E0EF2EF0E0FF2E07
:100E0000FCE80F2FF2E41F2FF02DE0924A02F0923F
:100E10004B0200934C0210934D02C801B7010E948F
:100E200033057B018C0160934A0270934B028093DF
:100E30004C0290934D0260915202709153028827A8
:100E400077FD8095982F0E941C1BA80197010E9496
:100E5000B4190E94E91A882777FD8095982F0E947F
:100E60001C1B7B018C01BE01882777FD8095982F84
:100E70000E941C1B20E030E040E450E40E943E1C35
:100E80009B01AC01C801B7010E94B4190E94E91A84
:100E90006635710514F065E570E0EB0177FF02C07F
:100EA000C0E0D0E0D0935302C093520260914E0252
:100EB00070914F02809150029091510226E636E6E1
:100EC00046E65FE30E943E1C7B018C01BE01882741
:100ED00077FD8095982F0E941C1B2DEC3CEC4CEC70
:100EE0005DE30E943E1C9B01AC01C801B7010E945A
:100EF000B41960934E0270934F0280935002909306
:100F000051020E94EE1ADC01CB01DF91CF911F91BB
:100F10000F91FF90EF90DF90CF90BF90AF9008952A
:100F20002F923F924F925F926F927F928F929F92F9
:100F3000AF92BF92CF92DF92EF92FF920F931F93E7
:100F40005B016C0119012A010E943E1C20915C0288
:100F500030915D0240915E0250915F020E94B4198F
:100F60007B018C0120E030E040E251EC0E947A1AD3
:100F700088235CF40F2EF0E0EF2EF0E0FF2EF0E27D
:100F80000F2FF1EC1F2FF02D14C0C801B70120E086
:100F900030E040E251E40E94331C181654F40F2E46
:100FA000F0E0EF2EF0E0FF2EF0E20F2FF1E41F2F24
:100FB000F02DE0925C02F0925D0200935E021093CD
:100FC0005F02C801B7010E9433057B018C01609369
:100FD0005C0270935D0280935E0290935F02C60193
:100FE000B50123E333E343E35FE30E943E1C5B016F
:100FF0006C01C801B7012DEC3CEC4CEC5DE30E94A8
:101000003E1C3B014C01C601B501A40193010E94A5
:10101000B4197B018C01209154023091550240910A
:101020005602509157020E94B319A20191010E94E9
:10103000811A5B016C01609358027093590280938E
:101040005A0290935B02E0925402F0925502009390
:10105000560210935702C801B70123E333E343E379
:101060005FE30E943E1CA40193010E94B4197B011E
:101070008C01C601B50120E030E040E050E00E9464
:101080003E1C9B01AC01C801B7010E94B4197B0151
:101090008C0120E030E04CE052EC0E947A1A882368
:1010A0001CF46DED7FEF11C0C801B70120E030E006
:1010B0004CE052E40E94331C18161CF463E270E00A
:1010C00004C0C801B7010E94E91ACB011F910F911A
:1010D000FF90EF90DF90CF90BF90AF909F908F9058
:1010E0007F906F905F904F903F902F9008950E9457
:1010F0002305882331F560910E0270910F0280E084
:1011000090E00E941A1B9B01AC016091D801709184
:10111000D9018091DA019091DB010E94B3190E94FC
:10112000E91AAC01CB01DA01B7FF04C080E090E01E
:10113000A0E0B0E0382F292F8093FE019093FF01AB
:101140000DC00E942305823029F43091FE012091C8
:10115000FF0104C03091180220911902832F922FB1
:1011600008950E946614209132023091330240911A
:10117000340250913502621B730B840B950B6B3F4D
:1011800071058105910508F47FC18DE061E00E9441
:10119000F81480913102843008F407C18DEE92E09A
:1011A0006FE171E00E940F188DEE92E063E271E052
:1011B0000E940F186091D0017091D1018091D201ED
:1011C0009091D30120E034E244E759E40E943E1CB0
:1011D0000E94E91AAB01BC018DEE92E00E94E91871
:1011E0008DEE92E068E271E00E940F186091D401E8
:1011F0007091D5018091D6019091D70120E034E221
:1012000044E759E40E943E1C0E94E91AAB01BC016C
:101210008DEE92E00E94E9188DEE92E06EE271E0B0
:101220000E940F184091DC015091DD016091DE01B8
:101230007091DF018DEE92E00E94AF198DEE92E089
:1012400064E371E00E940F184091E4015091E501C0
:101250006091E6017091E7018DEE92E00E94AF1976
:101260008DEE92E06AE371E00E940F1860910E0229
:1012700070910F0280E090E00E941A1B9B01AC016C
:101280006091D8017091D9018091DA019091DB01D0
:101290000E94B3190E94E91AAC01CB01DA01AC013A
:1012A000BD0177FF04C040E050E060E070E08DEEEB
:1012B00092E00E94E9188DEE92E060E471E00E94F5
:1012C0000F180E947708BC018DEE92E00E94D5189D
:1012D0008DEE92E066E471E00E940F184091E0010B
:1012E0005091E1016091E2017091E3018DEE92E095
:1012F0000E94AF198DEE92E06CE471E00E940F182D
:1013000060910602709107028DEE92E00E94D5185E
:101310008DEE92E062E571E00E940F186091BF01CE
:101320007091C0018DEE92E00E9410198DEE92E056
:1013300068E571E00E940F18609104027091050247
:101340008DEE92E00E94D5188DEE92E06EE571E090
:101350000E940F1840911E0250911F0260912002BE
:10136000709121028DEE92E00E94AF198DEE92E015
:1013700064E671E00E940F186091FA017091FB0120
:101380008DEE92E00E9410198DEE92E06AE671E017
:101390000E942E181092310210921A0210921B0213
:1013A00010921C0210921D0261C08F5F8093310267
:1013B0008DEE92E06FE671E00E940F188DEE92E0E4
:1013C00063E771E00E940F186091B3017091B4015E
:1013D0008091B5019091B6010E94E91A9B01AC0180
:1013E0008091F5019091F601281B390B8DEE92E06A
:1013F000B9010E9410198DEE92E068E771E00E9439
:101400000F186091F9018DEE92E070E00E941019C2
:101410008DEE92E06EE771E00E940F180E94B1011C
:10142000BC018DEE92E00E9410198DEE92E064E80E
:1014300071E00E940F180E94D001BC018DEE92E075
:101440000E9410198DEE92E06AE871E00E940F1878
:101450000E942305682F8DEE92E070E00E94101923
:101460008DEE92E06AE671E00E942E180E946614EA
:10147000609332027093330280933402909335026A
:101480008DE060E00E94F81408956091D801709199
:10149000D9018091DA019091DB010E94EE1A7093DC
:1014A0000F0260930E026091B3017091B4018091BC
:1014B000B5019091B6010E94E91A9B017093F60163
:1014C0006093F50110920D02F999FECFF999FECFC4
:1014D0001FBA8AE090E092BD81BD10BC0FB6F894AF
:1014E000FA9AF99A0FBEF999FECF81E090E0B9011E
:1014F00041E351E00E941401F999FECF60910E0280
:1015000070910F028CE090E041E351E00E941401E1
:10151000F999FECF6091D0017091D1018091D201F3
:101520009091D30120E034E244E759E40E943E1C4C
:101530000E94E91AAB01BC018EE090E021E331E0AA
:101540000E94EE00F999FECF6091D4017091D5010F
:101550008091D6019091D70120E034E244E759E42C
:101560000E943E1C0E94E91AAB01BC0182E190E09E
:1015700021E331E00E94EE000895CF92DF92EF92D6
:10158000FF920F931F93CF93DF9384E061E00E945B
:10159000D81484E061E00E94F814C0E0D0E074E365
:1015A000C72E78E0D72E08EB1BE06CE3E62E6FE049
:1015B000F62EC130D10591F0C230D1051CF4209730
:1015C00041F026C0C230D10591F0C330D10501F5FC
:1015D00017C0F0928900E092880004C0D092890080
:1015E000C092880010938B0000938A0011C0109362
:1015F000890000938800F0928B00E0928A0008C076
:101600001093890000938800D0928B00C0928A00CA
:1016100060E273E080E090E00E9474142196C43090
:10162000D10539F688EB9BE0909389008093880080
:1016300090938B0080938A0084E060E00E94F8140D
:1016400084E060E00E94D814DF91CF911F910F9148
:10165000FF90EF90DF90CF9008958AE060E00E94C5
:10166000F8148AE061E00E94D81489E060E00E94EA
:10167000F81489E061E00E94D81482EA8093800027
:101680008AE18093810088EB9BE0909389008093AE
:10169000880090938B0080938A0080E49CE990936B
:1016A000870080938600EFE6F0E08081806280838F
:1016B00092E09093B00085E08093B1008AE8809337
:1016C000B300909370007894089583E061E028E877
:1016D00033E140E050E00E9494159B01672B21F418
:1016E0002091360230913702309337022093360230
:1016F0008091020290910302281B390BC9010895C1
:1017000082E061E028E833E140E050E00E94941577
:101710009B01672B21F420913802309139023093DC
:101720003902209338028091000290910102281B17
:10173000390BC90108956F927F928F929F92AF9259
:10174000BF92CF92DF92EF92FF920F931F93CF93AE
:10175000DF930E9466142091E9013091EA01EB01C8
:10176000C21BD30BC531D10508F412C28091A4016C
:101770009091A501892B09F0A9C00E94B1017C2E8E
:101780006D2E2091FA013091FB01281B390B8091BD
:10179000BB01992787FD9095A901481B590BCA01E8
:1017A00060E0AE010E94F3054C01A090FC01B090F6
:1017B000FD010E94B1019C011816190634F4B9010B
:1017C000882777FD8095982F08C066277727681BA4
:1017D000790B882777FD8095982F0E941C1B2AE99A
:1017E00039E949E95EE30E943E1C6B017C010E94DD
:1017F000D00100271127081B190B8091BC019927E4
:1018000087FD9095081B190BB501882777FD8095FA
:10181000982F0E941C1BA70196010E94B4190E94D8
:10182000E91AC801860F971F672D762D0E9448057B
:101830007C018AE590E0881999099C01442737FDCD
:101840004095542F253B31054105510524F024EBEB
:1018500030E040E050E0CA01B90157FF04C060E049
:1018600070E080E090E024E130E040E050E00E9451
:10187000201D60557B4F70938900609388008AE536
:1018800090E08E199F099C01442737FD4095542F05
:10189000253B31054105510524F024EB30E040E0C3
:1018A00050E0CA01B90157FF04C060E070E080E079
:1018B00090E024E130E040E050E00E94201D6055BF
:1018C0007B4F70938B0060938A00C0C00E94800B96
:1018D000181619061CF40E94800B05C00E94800B8C
:1018E000909581959F4F4A9784F40E94650B181636
:1018F00019061CF40E94650B05C00E94650B9095AB
:1019000081959F4F4A970CF4E1C00E94800B7C01A7
:101910000E94B101CC24DD24C81AD90A8091BB01F0
:10192000992787FD9095C81AD90A0027F7FC0095DA
:10193000102FC801B7010E941C1B20E030E040E0DE
:101940005FE30E943E1C0E94E91AC601860F971FA2
:1019500060E0AE010E94F3055C010E94650B7C0112
:101960000E94D001CC24DD24C81AD90A8091BC0180
:10197000992787FD9095C81AD90A0027F7FC00958A
:10198000102FC801B7010E941C1B20E030E040E08E
:101990005FE30E943E1C0E94E91AC601860F971F52
:1019A000BE010E9448057C018AE590E08A199B09E6
:1019B0009C01442737FD4095542F253B31054105B7
:1019C000510524F024EB30E040E050E0CA01B901B9
:1019D00057FF04C060E070E080E090E024E130E078
:1019E00040E050E00E94201D60557B4F70938900BD
:1019F000609388008AE590E08E199F099C01442736
:101A000037FD4095542F253B31054105510524F004
:101A100024EB30E040E050E0CA01B90157FF04C0B8
:101A200060E070E080E090E024E130E040E050E0F1
:101A30000E94201D60557B4F70938B0060938A003D
:101A400084E190E09093F8018093F7010091F70111
:101A50001091F8016091B3017091B4018091B501CA
:101A60009091B6010E94E91A9B01AC018091F501A9
:101A70009091F601281B390BC801B901AE010E94F3
:101A80009E068093F901282F30E040E050E0253693
:101A900031054105510524F024E630E040E050E0F6
:101AA00084E690E0A0E0B0E0821B930BA40BB50BA2
:101AB00087578093B3000E9466146093E901709386
:101AC000EA018093EB019093EC0162C00E94B101A6
:101AD000909581959F4F60E0AE010E94F3058C01C7
:101AE0000E94D001909581959F4FBE010E944805AC
:101AF0007C018AE590E0801B910B9C01442737FD17
:101B00004095542F253B31054105510524F024EB28
:101B100030E040E050E0CA01B90157FF04C060E086
:101B200070E080E090E024E130E040E050E00E948E
:101B3000201D60557B4F70938900609388008AE573
:101B400090E08E199F099C01442737FD4095542F42
:101B5000253B31054105510524F024EB30E040E000
:101B600050E0CA01B90157FF04C060E070E080E0B6
:101B700090E024E130E040E050E00E94201D6055FC
:101B80007B4F70938B0060938A0083E090E05ACF84
:101B9000DF91CF911F910F91FF90EF90DF90CF9049
:101BA000BF90AF909F908F907F906F9008952F92ED
:101BB0003F924F925F926F927F928F929F92AF92DD
:101BC000BF92CF92DF92EF92FF920F931F93DF931A
:101BD000CF9300D000D0CDB7DEB73B014C01190147
:101BE0002A01C801B701A40193010E94B31925E39A
:101BF0003AEF4EE85CE30E943E1C20E030E040E01B
:101C00005FE30E943E1C0E94A11C9B01AC010E944C
:101C10003E1C69837A838B839C83C401B30125E3D3
:101C20003AEF4EE85CE30E943E1C0E947E1A3B01A4
:101C30004C01C801B70125E33AEF4EE85CE30E948E
:101C40003E1C0E947E1A9B01AC01C401B3010E949C
:101C50003E1C3B014C01C601B501A20191010E944D
:101C6000B31925E33AEF4EE85CE30E943E1C20E006
:101C700030E040E05FE30E943E1C0E94A11C7B011B
:101C80008C01C401B301A80197010E943E1CA80168
:101C900097010E943E1C9B01AC0169817A818B8176
:101CA0009C810E94B4197B018C010E94AB1C5B01DA
:101CB0006C0160E070E080E89FE3A80197010E945A
:101CC000B3190E94AB1C9B01AC01C601B5010E9477
:101CD000271A9B01AC010E94B41920E73DE642ECB3
:101CE0005AE40E943E1C0E94EE1ACB010F900F9006
:101CF0000F900F90CF91DF911F910F91FF90EF9078
:101D0000DF90CF90BF90AF909F908F907F906F901B
:101D10005F904F903F902F900895AF92BF92CF92D7
:101D2000DF92EF92FF920F931F936091D001709119
:101D3000D1018091D2019091D3012091D4013091B1
:101D4000D5014091D6015091D701E0901002F0905A
:101D500011020091120210911302A0901402B0908F
:101D60001502C0901602D09017020E94D70D9093D2
:101D70000502809304021F910F91FF90EF90DF9076
:101D8000CF90BF90AF9008952F923F924F925F9265
:101D90006F927F928F929F92AF92BF92CF92DF927B
:101DA000EF92FF920F931F93DF93CF93CDB7DEB7E0
:101DB00028970FB6F894DEBF0FBECDBF19012A01D8
:101DC00025E33AEF4EE85CE30E943E1C3B014C01E8
:101DD000C801B70125E33AEF4EE85CE30E943E1CE0
:101DE0007B018C01C601B501A20191010E94B319CA
:101DF00025E33AEF4EE85CE30E943E1C5B016C0178
:101E0000C6010E94A11C1B012C01B701C8010E9440
:101E10007E1A6D837E838F839887C201B1012D81E5
:101E20003E814F8158850E943E1C1B012C01B3014D
:101E3000C4010E947E1A69837A838B839C83B701D5
:101E4000C8010E94A11C7B018C01B301C4010E9446
:101E5000A11C3B014C01B501C6010E947E1A5B0129
:101E60006C0169817A818B819C81A80197010E9414
:101E70003E1C7B018C01C401B3012D813E814F8149
:101E800058850E943E1CA60195010E943E1C9B01A4
:101E9000AC01C801B7010E94B3199B01AC01B101AB
:101EA000C2010E94271A21EE3EE245E652E40E945A
:101EB0003E1C7B018C0120E030E040E85FE30E94A3
:101EC0007A1A181654F0C801B70120E030E044EB4C
:101ED00053E40E94B4197B018C01C801B7010E9430
:101EE000E91ACB0128960FB6F894DEBF0FBECDBF1E
:101EF000CF91DF911F910F91FF90EF90DF90CF90E6
:101F0000BF90AF909F908F907F906F905F904F9019
:101F10003F902F9008952F923F924F925F926F9231
:101F20007F928F929F92AF92BF92CF92DF92EF9269
:101F3000FF920F931F938091E80180FFBAC08E7FBC
:101F40008093E8010E9466143B014C012090ED0152
:101F50003090EE014090EF015090F0010E94230577
:101F6000813081F480910D0290E00E9486030E94EE
:101F70008D0E80910402909105026091BE010E9435
:101F80005A0306C080E090E00E9486030E948D0EF6
:101F90006091D0017091D1018091D2019091D301D3
:101FA0002091D4013091D5014091D6015091D701B3
:101FB000E0901002F09011020091120210911302B1
:101FC000A0901402B0901502C0901602D090170293
:101FD0000E94C40E7C0190930702809306026091D8
:101FE000E0017091E1018091E2019091E3010E9492
:101FF000E91AE61AF70A0027F7FC0095102FC80126
:10200000B7010E941C1B7B018C0120E030E044E3FF
:1020100053E40E94331C181654F4C801B70120E0A1
:1020200030E044EB53E40E94B3197B018C01C801FA
:10203000B70120E030E044E353EC0E947A1A882391
:1020400054F4C801B70120E030E044EB53E40E94AF
:10205000B4197B018C01C801B7010E94E91A8827D5
:1020600077FD8095982F0E941C1B7B018C016218C4
:10207000730884089508C401B3010E941A1B20E06C
:1020800030E04AE754E40E94811A9B01AC01C80188
:10209000B7010E9490079093FB018093FA010E9480
:1020A00066146093ED017093EE018093EF019093BD
:1020B000F0018091E80181FF75C08D7F8093E80178
:1020C0000E9477088C0160910E0270910F0280E0EF
:1020D00090E00E941A1B9B01AC016091D8017091A5
:1020E000D9018091DA019091DB010E94B3190E941D
:1020F000E91AAC01CB01DA01B7FF04C080E090E03F
:10210000A0E0B0E0B801681B790B1616170614F4AE
:1021100060E070E09B018FEF663F780714F426EFD4
:102120003FEF255F3F4FC901880F991F2B5030406B
:102130008B30910514F08AE090E09093F801809341
:10214000F701B901882777FD8095982F0E941C1B05
:1021500020E030E040EC5FE30E943E1C7B018C01FC
:1021600020E030E040E651EC0E947A1A88231CF40B
:1021700062EF7FEF11C0C801B70120E030E040E01E
:1021800050E00E94331C18161CF460E070E004C09C
:10219000C801B7010E94E91A7093FD016093FC0128
:1021A0000E94BB041F910F91FF90EF90DF90CF90A2
:1021B000BF90AF909F908F907F906F905F904F9067
:1021C0003F902F9008951F93182F8DEE92E00E945C
:1021D0004F171817D0F71F9108956F927F928F9223
:1021E0009F92AF92BF92CF92DF92EF92FF920F93A6
:1021F0001F93DF93CF93CDB7DEB7A8970FB6F894B0
:10220000DEBF0FBECDBF8DEE92E00E944F1783332D
:1022100008F4DFC110E04E010894811C911CF1E02C
:102220006F2E712CCFC1113099F0113020F0123087
:1022300009F0C8C11AC081E00E94E3108DEE92E05F
:102240000E946317853B910509F0BCC111E0BAC13A
:1022500081E00E94E3108DEE92E00E9463178236C7
:10226000910509F0AEC112E0ADC184E00E94E31017
:102270008DEE92E00E946317E82E8DEE92E00E94B0
:102280006317F82E8DEE92E00E946317182F8DEEE3
:1022900092E00E946317909122029E0D40912302CA
:1022A000392F3F0D232F210F940F930F920F280FDB
:1022B00020932202920F9093230254016401C401DF
:1022C000810F911D8C0114C081E00E94E3108DEEFE
:1022D00092E00E946317F60181936F0190912202B0
:1022E000980F9093220280912302890F80932302FA
:1022F000C016D10649F781E00E94E3108DEE92E00E
:102300000E946317182F8DEE92E00E9463171093BE
:102310002202112309F444C110932302F1E0EF16C5
:1023200009F03EC123E0F21609F4B0C082E1F816CC
:1023300009F4BFC092E0F91609F032C18981809397
:10234000CC018A818093CD018B818093CE018C81D9
:102350008093CF018091CC019091CD01A091CE01CD
:10236000B091CF018093240290932502A09326027E
:10237000B09327028D818093CC018E818093CD0113
:102380008F818093CE0188858093CF016091CC01AD
:102390007091CD018091CE019091CF010E941C1BC4
:1023A00020E836E948E15BE40E94811A6093D40199
:1023B0007093D5018093D6019093D701898580933E
:1023C000CC018A858093CD018B858093CE018C854D
:1023D0008093CF016091CC017091CD018091CE01AD
:1023E0009091CF010E941C1B20E836E948E15BE494
:1023F0000E94811A6093D0017093D1018093D20121
:102400009093D3018D858093CC018E858093CD01EF
:102410008F858093CE0188898093CF018091CC01F4
:102420009091CD01A091CE01B091CF01809328026F
:1024300090932902A0932A02B0932B02898980935A
:10244000CC018A898093CD018B898093CE018C89C0
:102450008093CF016091CC017091CD018091CE012C
:102460009091CF010E941C1B20E030E04AE754E429
:102470000E94811A6093D8017093D9018093DA0188
:102480009093DB018091E801816084C08D8183306D
:1024900038F01092A5011092A4018CE061E006C012
:1024A0007092A5016092A4018CE060E00E94F81493
:1024B00077C089898093CC018A898093CD018B89EB
:1024C0008093CE018C898093CF016091CC01709173
:1024D000CD018091CE019091CF010E941C1B20E084
:1024E00030E048EC52E40E94811A0E94E91A60939D
:1024F0002C0270932D0280932E0290932F028D89CF
:102500008093CC018E898093CD018F898093CE01F9
:10251000888D8093CF016091CC017091CD01809125
:10252000CE019091CF010E941C1B20E030E048ECCE
:1025300052E40E94811A6093DC017093DD01809364
:10254000DE019093DF01898D8093CC018A8D809389
:10255000CD018B8D8093CE018C8D8093CF016091C6
:10256000CC017091CD018091CE019091CF010E945C
:102570001C1B20E030E543EC57E40E94811A609375
:10258000E0017093E1018093E2019093E301809177
:10259000E80182608093E80103C0F50111925F01B8
:1025A000AC14BD04D1F710922202109223020E94B3
:1025B000661460933A0270933B0280933C029093BE
:1025C0003D0210E08DEE92E00E944F17882309F043
:1025D0002ACE0E94661420913A0230913B0240912B
:1025E0003C0250913D02621B730B840B950B615DA5
:1025F00077408040904050F08CE060E00E94F814FA
:1026000081E090E09093A5018093A401A8960FB675
:10261000F894DEBF0FBECDBFCF91DF911F910F9118
:10262000FF90EF90DF90CF90BF90AF909F908F90F2
:102630007F906F9008950E94ED108CE061E00E9401
:10264000F81469E170E080E090E00E9474148CE07E
:1026500060E00E94F81469E170E080E090E00E9480
:1026600074148091A4019091A501892B21F70895FC
:102670000E948B0F0E949B0B0E942E020E94ED1065
:102680000E94B1088091A4019091A501892B21F0AD
:102690000E94800B0E94650B08958CE061E00E940F
:1026A000D8148DEE92E040E056E960E070E00E94C0
:1026B000561608958CE061E00E94D8148DEE92E0E9
:1026C00040E056E960E070E00E9456160E941B133D
:1026D0000895CF93DF938DE061E00E94D81482E0EB
:1026E00060E00E94D81483E060E00E94D81484E087
:1026F00060E00E94D81485E060E00E94D81486E073
:1027000061E00E94F81486E060E00E94D81487E03F
:1027100061E00E94D81487E060E00E94F81488E02D
:1027200061E00E94D8148BE061E00E94D8140E94FE
:102730002D0B88EB9BE09093890080938800909309
:102740008B0080938A008DEE8093B3001092A601D7
:1027500080917A00886880937A0080917A00806402
:1027600080937A0082E061E020E23EE440E050E0C5
:102770000E949415709301026093000283E061E06F
:1027800020E23EE440E050E00E9494157093030282
:102790006093020286E00E944515892B29F560EDC1
:1027A00077E080E090E00E9474140E945A130E9427
:1027B0001B130E94BD0A0E9476040CC00E94BD0A31
:1027C000C0E0D0E00E94ED100E942E022196C93296
:1027D000D105C1F786E00E944515892B79F30E9447
:1027E000450A10920D0206C00E944D130E94760405
:1027F0000E9459048DEE92E060E971E00E942E186B
:102800008DEE92E061E971E00E942E180E94DE03D5
:10281000DF91CF9108950E949E140E9469130E9437
:102820003813FDCF1F920F920FB60F9211242F93E2
:102830003F934F935F936F937F938F939F93AF9348
:10284000BF932091640230916502409166025091DD
:10285000670270916802DA01C9010296A11DB11DDB
:10286000672F6A5F6D3730F06D57DA01C901039643
:10287000A11DB11D6093680280936402909365026C
:10288000A0936602B093670280916002909161020A
:10289000A0916202B09163020196A11DB11D8093C7
:1028A000600290936102A0936202B0936302BF91B1
:1028B000AF919F918F917F916F915F914F913F91D8
:1028C0002F910F900FBE0F901F9018958FB7F8940F
:1028D0002091640230916502409166025091670236
:1028E0008FBFB901CA010895EF92FF920F931F9312
:1028F0007B018C018FB7F89440916402509165027E
:1029000060916602709167028FBF2FB7F894809133
:10291000640290916502A0916602B09167022FBF98
:10292000841B950BA60BB70BE816F9060A071B07C5
:1029300060F71F910F91FF90EF900895789484B500
:10294000826084BD84B5816084BD85B5826085BDAB
:1029500085B5816085BDEEE6F0E080818160808391
:10296000E1E8F0E080818260808380818160808303
:10297000E0E8F0E0808181608083E1EBF0E080813D
:1029800084608083E0EBF0E0808181608083EAE70F
:10299000F0E0808184608083808182608083808198
:1029A000816080838081806880831092C100089557
:1029B000282F30E0C9018B519F4FFC0194912F5279
:1029C0003F4FF9018491882391F0E82FF0E0EE0F5A
:1029D000FF1FED54FF4FA591B491662329F48C910C
:1029E000909589238C9308958C91892B8C930895CD
:1029F000482F50E0CA0187509F4FFC012491CA0123
:102A00008B519F4FFC0194914F525F4FFA013491CB
:102A10003323D1F1222331F1233021F4809180003E
:102A20008F7705C0243031F4809180008F7D8093B2
:102A3000800018C0213019F484B58F7704C022308B
:102A400021F484B58F7D84BD0DC0263021F48091A2
:102A5000B0008F7705C0273029F48091B0008F7DBA
:102A60008093B000E32FF0E0EE0FFF1FE354FF4F21
:102A7000A591B491662329F48C91909589238C9328
:102A800008958C91892B8C930895682F70E0CB0169
:102A900087509F4FFC012491CB018B519F4FFC012C
:102AA00044916F527F4FFB019491992319F420E0D8
:102AB00030E038C0222331F1233021F480918000AE
:102AC0008F7705C0243031F4809180008F7D809312
:102AD000800018C0213019F484B58F7704C02230EB
:102AE00021F484B58F7D84BD0DC0263021F4809102
:102AF000B0008F7705C0273029F48091B0008F7D1A
:102B00008093B000892F90E0880F991F89539F4FC1
:102B1000FC01A591B4918C9120E030E0842311F068
:102B200021E030E0C9010895DF92EF92FF920F9308
:102B30001F93A82FB0E0CD018B519F4FFC01D49083
:102B4000AF52BF4FFD018491662311F490E001C0A4
:102B50009D2D79018A0143E0EE0CFF1C001F111F1F
:102B60004A95D1F734E016950795F794E7943A958E
:102B7000D1F7682F70E0660F771F69537F4F20E011
:102B800030E040E050E0FB01A591B4910AC02E1561
:102B90003F054007510709F440C02F5F3F4F4F4F9B
:102BA0005F4F8C918D21891791F30AC02E153F0537
:102BB0004007510791F12F5F3F4F4F4F5F4F03C0C9
:102BC000FB01A591B4918C918D21891779F720E0B3
:102BD00030E040E050E0FB01A591B49104C02F5FCC
:102BE0003F4F4F4F5F4F8C918D218917C1F3CA0121
:102BF000B9012AE030E040E050E00E94201D9B0136
:102C0000AC01205F3F4F4F4F5F4F83E05695479594
:102C1000379527958A95D1F704C020E030E040E051
:102C200050E0B901CA011F910F91FF90EF90DF9022
:102C300008951F920F920FB60F9211242F933F9376
:102C40004F935F936F937F938F939F93AF93BF93B4
:102C5000EF93FF934091C600E091E902F091EA0200
:102C6000CF01019660E870E00E943F1D9C018091B9
:102C7000EB029091EC022817390739F0E759FD4F24
:102C800040833093EA022093E902FF91EF91BF91D4
:102C9000AF919F918F917F916F915F914F913F91F4
:102CA0002F910F900FBE0F901F9018955F926F920B
:102CB0007F928F929F92AF92BF92CF92DF92EF92CC
:102CC000FF920F931F93CF93DF93EC013A014B01D7
:102CD000413281EA580787E0680780E078070CF006
:102CE0007FC060E472E48FE090E0A40193010E9451
:102CF000741D2150304040405040CA01B90122E0CB
:102D000030E040E050E00E94741D59016A01A601C4
:102D10009501209530954095509594E0220F331FF2
:102D2000441F551F9A95D1F760E072E18AE790E061
:102D30000E94741DCA01B9012FEF30E040E050E05D
:102D40000E94201DA40193010E94741DC90181509D
:102D50009F4F181619061CF4522E5A9403C055247E
:102D60005394521A60E874E88EE190E0A401930154
:102D70000E94741D2150304040405040CA01B901AA
:102D800022E030E040E050E00E94741D2095309534
:102D90004095509583E0220F331F441F551F8A959D
:102DA000D1F760E072E18AE790E00E94741DCA01E9
:102DB000B9012FEF30E040E050E00E94201DA40157
:102DC00093010E94741DC90181509F4F1816190666
:102DD0001CF4822F815002C081E0821B851500F512
:102DE000E885F98581E090E00A8802C0880F991F84
:102DF0000A94E2F7808360E874E88EE190E0A40131
:102E000093010E94741D2150304040405040CA013F
:102E1000B90122E030E040E050E00E94741D04C09F
:102E2000E885F98510829501EC81FD813083EE8182
:102E3000FF812083EA85FB85208141E050E0CA01C3
:102E40000E8402C0880F991F0A94E2F7282B208372
:102E5000EA85FB852081CA010F8402C0880F991F73
:102E60000A94E2F7282B2083EA85FB858081088875
:102E700002C0440F551F0A94E2F7842B8083DF9130
:102E8000CF911F910F91FF90EF90DF90CF90BF9067
:102E9000AF909F908F907F906F905F900895DC012E
:102EA0001296ED91FC911397E058FF4F819191910B
:102EB00080589F4F20813181821B930B60E870E026
:102EC0000E943F1D0895CF93DF93DC011296ED9190
:102ED000FC911397EF01CE57DF4F48815981E0589D
:102EE000FF4F80819181E058F0408417950719F4D5
:102EF0002FEF3FEF0CC0E40FF51F2081CA010196B0
:102F000060E870E00E943F1D9983888330E0C9012A
:102F1000DF91CF910895FC01A085B18521898C9125
:102F200090E0022E02C0959587950A94E2F780FF03
:102F3000F6CF0484F585E02D6083089585EC91E05B
:102F40009093EE028093ED0289E692E09093F00276
:102F50008093EF0285EC90E09093F2028093F1026F
:102F600084EC90E09093F4028093F30280EC90E084
:102F70009093F6028093F50281EC90E09093F80232
:102F80008093F70286EC90E09093FA028093F90226
:102F900084E08093FB0283E08093FC0287E08093CF
:102FA000FD0285E08093FE0281E08093FF02089598
:102FB0000F931F93CF93DF938C01EB0109C02196F0
:102FC000D801ED91FC910190F081E02DC8010995A7
:102FD00068816623A1F7DF91CF911F910F9108952A
:102FE000EF92FF920F931F93CF93DF938C017B019E
:102FF000EA010CC0D7016D917D01D801ED91FC91E2
:103000000190F081E02DC80109952197209791F753
:10301000DF91CF911F910F91FF90EF900895DC0108
:10302000ED91FC910280F381E02D099508950F93B5
:103030001F938C01DC01ED91FC910190F081E02D5A
:103040006DE00995D801ED91FC910190F081E02DA2
:10305000C8016AE009951F910F9108950F931F937E
:103060008C010E940F18C8010E9417181F910F9120
:1030700008952F923F924F925F926F927F928F921C
:103080009F92AF92BF92CF92DF92EF92FF920F93F7
:103090001F93DF93CF93CDB7DEB7A0970FB6F89409
:1030A000DEBF0FBECDBF1C016A017B01411551057A
:1030B0006105710549F4DC01ED91FC910190F0810D
:1030C000E02D60E3099554C0882499245401422ED0
:1030D00055246624772401E010E00C0F1D1F080D15
:1030E000191DC701B601A30192010E94521DF801EA
:1030F00060830894811C911CA11CB11CC701B601FE
:10310000A30192010E94521DC901DA016C017D01E7
:10311000C114D104E104F104F1F681E0E82EF12CB0
:10312000EC0EFD1EE80CF91C3E010894611C711C9C
:10313000D501C4010197A109B1096C01C818D908CA
:1031400014C0F601EE0DFF1D60816A3010F4605D61
:1031500001C0695CD101ED91FC910190F081E02DFD
:10316000C10109950894E108F1086E147F0449F73C
:10317000A0960FB6F894DEBF0FBECDBFCF91DF9102
:103180001F910F91FF90EF90DF90CF90BF90AF9085
:103190009F908F907F906F905F904F903F902F9077
:1031A00008952AE00E9439180895AB0160E070E0AC
:1031B0000E94D11808950F931F938C01AB0160E01A
:1031C00070E00E94D118C8010E9417181F910F913A
:1031D0000895EF92FF920F931F93CF93DF93EC012B
:1031E0007A018B0177FF0FC0E881F9810190F081AE
:1031F000E02D6DE2099510950095F094E094E11CA6
:10320000F11C011D111DCE01B801A7012AE00E9489
:103210003918DF91CF911F910F91FF90EF90089592
:10322000AB01662757FD6095762F0E94E918089537
:103230000F931F938C01AB01662757FD6095762F86
:103240000E94E918C8010E9417181F910F91089554
:103250009F92AF92BF92CF92DF92EF92FF920F9325
:103260001F93CF93DF93EC017A018B01922ECB0158
:10327000BA0120E030E040E050E00E947A1A882352
:1032800064F4E881F9810190F081E02DCE016DE2D6
:10329000099517FB109517F9109520E030E040E0F4
:1032A0005FE3AA240BC0CA01B90120E030E040E28C
:1032B00051E40E94811A9B01AC01A394A91498F3D4
:1032C000C801B7010E94B4195B016C010E94EE1A9B
:1032D0007B018C01CE01B801A7010E94D118992071
:1032E00029F0CE0162EA71E00E940F18C801B7010F
:1032F0000E941A1B9B01AC01C601B5010E94B319C3
:1033000020C020E030E040E251E40E943E1C7B01FE
:103310008C010E94E91A5B016C01CC24B7FCC094BB
:10332000DC2CCE01B601A5010E94E918C601B50149
:103330000E941C1B9B01AC01C801B7010E94B3197C
:103340009A949920F1F6DF91CF911F910F91FF9000
:10335000EF90DF90CF90BF90AF909F90089522E0C4
:103360000E94281908955058BB27AA270ED030C2B2
:10337000F0D130F0F5D120F031F49F3F11F41EF47C
:10338000C0C10EF4E095E7FBB6C1E92F43D280F34C
:10339000BA17620773078407950718F071F49EF552
:1033A0005BC20EF4E0950B2EBA2FA02D0B01B901D4
:1033B00090010C01CA01A0011124FF27591B99F0AB
:1033C000593F50F4503E68F11A16F040A22F232FB7
:1033D000342F4427585FF3CF469537952795A79507
:1033E000F0405395C9F77EF41F16BA0B620B730BAE
:1033F000840BBAF09150A1F0FF0FBB1F661F771F1F
:10340000881FC2F70EC0BA0F621F731F841F48F4D3
:10341000879577956795B795F7959E3F08F0B3CF59
:103420009395880F08F09927EE0F97958795089543
:1034300090D158F080E891E009F49EEF91D128F006
:1034400040E851E059F45EEF09C05BC105C2E92FC5
:10345000E078E0D168F3092E052AC1F32617370773
:103460004807590738F00E2E07F8E02569F0E025E7
:10347000E0640AC0EF6307F8009407FADB01B901C2
:103480009D01DC01CA01AD01EF934AD0A1D10AD060
:103490005F91552331F02BED3FE049E450FD49ECBD
:1034A00063CF0895DF93DD27B92FBF7740E85FE34F
:1034B0001616170648075B0710F4D92FD8D19F932B
:1034C0008F937F936F9391D2E8E6F0E01DD180D186
:1034D0002F913F914F915F91DDD1DD2349F09058BD
:1034E000A2EA2AED3FE049EC5FE3D0785D274DDFAB
:1034F000DF916EC1DCD008F481E0089539D1E39505
:1035000078C10CD065C12CD140F023D130F021F42A
:103510005F3F19F0F0C05111A0C1F3C07BD198F307
:103520009923C9F35523B1F3951B550BBB27AA2744
:1035300062177307840738F09F5F5F4F220F331FB6
:10354000441FAA1FA9F333D00E2E3AF0E0E830D082
:1035500091505040E695001CCAF729D0FE2F27D085
:10356000660F771F881FBB1F261737074807AB0753
:10357000B0E809F0BB0B802DBF01FF2793585F4FC8
:103580002AF09E3F510568F0B6C067C15F3FECF37B
:10359000983EDCF3869577956795B795F7959F5F8D
:1035A000C9F7880F911D9695879597F90895E1E0E1
:1035B000660F771F881FBB1F621773078407BA0740
:1035C00020F0621B730B840BBA0BEE1F88F7E0959B
:1035D000089504D06894B11140C1089523D188F0B2
:1035E0009F5790F0B92F9927B751A0F0D1F0660FEF
:1035F000771F881F991F1AF0BA95C9F712C0B1300A
:1036000081F02AD1B1E0089527C1672F782F88274C
:10361000B85F39F0B93FCCF3869577956795B39548
:10362000D9F73EF490958095709561957F4F8F4FB7
:103630009F4F0895E89409C097FB3EF490958095BC
:10364000709561957F4F8F4F9F4F9923A9F0F92F68
:1036500096E9BB279395F695879577956795B795E6
:10366000F111F8CFFAF4BB0F11F460FF1BC06F5FCC
:103670007F4F8F4F9F4F16C0882311F096E911C0DE
:10368000772321F09EE8872F762F05C0662371F0FF
:1036900096E8862F70E060E02AF09A95660F771F13
:1036A000881FDAF7880F9695879597F90895990FEF
:1036B0000008550FAA0BE0E8FEEF16161706E807FC
:1036C000F907C0F012161306E407F50798F0621B1D
:1036D000730B840B950B39F40A2661F0232B242BF2
:1036E000252B21F408950A2609F4A140A6958FEF11
:1036F000811D811D089597F99F6780E870E060E063
:1037000008959FEF80EC0895DF93CF931F930F935D
:10371000FF92EF92DF927B018C01689405C0DA2E54
:10372000EF01B8D0FE01E894A5912591359145911E
:103730005591AEF3EF0129DEFE019701A801DA945D
:1037400079F7DF90EF90FF900F911F91CF91DF916C
:10375000089500240A9416161706180609060895F7
:1037600000240A9412161306140605060895C9CFFC
:1037700059D0E8F3E894EFEFBB273FE048EC5FE770
:103780006B3D73078407950708F1FF279F57B25ACF
:103790006A4D7F40894CF04032F4BE556542704F0F
:1037A0008643FF4F0894EE1F915030F0BB0F661F09
:1037B000771F881FFF1FEBCF9EE7882332F0BB0FD8
:1037C000661F771F881F9A95C1F79395E09510C1E2
:1037D000092E0394000C11F4882352F0BB0F40F41F
:1037E000BF2B11F460FF04C06F5F7F4F8F4F9F4F5F
:1037F0000895EF93E0FF06C0A2EA2AED3FE049EC0E
:103800005FEBC3DDE5DF0F90039401FC9058E5E921
:10381000F0E005C157FD9058440F551F59F05F3F28
:1038200071F04795880F97FB991F61F09F3F79F0E2
:1038300087950895121613061406551FF2CF469564
:10384000F1DF08C0161617061806991FF1CF8695E6
:103850007105610508940895E894BB2766277727CA
:10386000CB0197F9089523DF08F48FEF08959B01AA
:10387000AC0160E070E080E89FE343CE0BD0A8CFBE
:1038800068DF28F06DDF18F0952309F034CF39CFC9
:103890001124E3CFBFDFA0F3959FD1F3950F50E044
:1038A000551F629FF001729FBB27F00DB11D639FF2
:1038B000AA27F00DB11DAA1F649F6627B00DA11D98
:1038C000661F829F2227B00DA11D621F739FB00D3E
:1038D000A11D621F839FA00D611D221F749F3327AE
:1038E000A00D611D231F849F600D211D822F762F47
:1038F0006A2F11249F5750408AF0E1F088234AF044
:10390000EE0FFF1FBB1F661F771F881F915050408F
:10391000A9F79E3F510570F0EECE9FCF5F3FECF3CD
:10392000983EDCF3869577956795B795F795E7957B
:103930009F5FC1F7FE2B880F911D9695879597F98C
:1039400008959F9315DF0F9007FCEE5F52CF11F49F
:103950000EF4D7CE4DC066DFD0F39923D9F3CEF362
:103960009F57550B87FF54D056959795B0E020F49C
:10397000660F771F881FBB1F1F930F9300249001B2
:10398000A0018001F001A0E80E0F1F1F0A1E511DAB
:10399000601B710B8009B50B48F4600F711F801D0F
:1039A000B51F0E1B1F0B0A0A510907C02E0F3F1F20
:1039B0004A1F0E0F1F1F0A1E511D660F771F881FFB
:1039C000BB1FA695F795E795F8F6061717070806A3
:1039D0005B07211D311D411D0F911F91B901842FDE
:1039E0009158880F9695879508959B01AC0146CF15
:1039F0009F3F49F0915028F4869577956795B79544
:103A00009F5F80389F4F880F9695879597F9089507
:103A100091505040660F771F881FD2F708959F93EB
:103A20008F937F936F93FF93EF939B01AC0126DFFE
:103A3000EF91FF9169DE2F913F914F915F911ECFE2
:103A4000629FD001739FF001829FE00DF11D649F82
:103A5000E00DF11D929FF00D839FF00D749FF00D0E
:103A6000659FF00D9927729FB00DE11DF91F639FAF
:103A7000B00DE11DF91FBD01CF011124089597FB81
:103A8000092E07260AD077FD04D049D006D00020A1
:103A90001AF4709561957F4F0895F6F7909581958A
:103AA0009F4F0895A1E21A2EAA1BBB1BFD010DC05A
:103AB000AA1FBB1FEE1FFF1FA217B307E407F507DE
:103AC00020F0A21BB30BE40BF50B661F771F881FBA
:103AD000991F1A9469F760957095809590959B0150
:103AE000AC01BD01CF01089597FB092E05260ED02C
:103AF00057FD04D0D7DF0AD0001C38F4509540950C
:103B0000309521953F4F4F4F5F4F0895F6F79095B1
:103B10008095709561957F4F8F4F9F4F0895AA1B99
:103B2000BB1B51E107C0AA1FBB1FA617B70710F0A8
:103B3000A61BB70B881F991F5A95A9F780959095DA
:103B4000BC01CD010895EE0FFF1F0590F491E02D0B
:063B50000994F894FFCF78
:103B560023206F662057503A2000204C61743A208B
:103B660000204C6F6E3A200020416C743A200021F0
:103B76002121004C41543A002C4C4F4E3A002C5314
:103B860050443A002C4352543A002C414C543A00CB
:103B96002C414C483A002C4352533A002C42455291
:103BA6003A002C57504E3A002C4453543A002C42BB
:103BB60054563A002C5253503A002C2A2A2A002BEB
:103BC6002B2B004153503A002C5448483A002C52B3
:103BD6004C4C3A002C5043483A002C5354543A006B
:103BE600004172647570696C6F7421212120563210
:103BF60033002E000100010080FF430080FF4300D8
:103C060080FF430080FF430080FF430C040314E75A
:0C3C160003000000008B17D817F0170007
:00000001FF
