:100000000C9488000C94B0000C94B0000C944A0539
:100010000C94B0000C94EF040C94B0000C946C0B96
:100020000C94B0000C94B0000C945F0B0C94B000D6
:100030000C94B0000C94B0000C94B0000C94B00080
:100040000C9469200C94B0000C94FD210C94B00029
:100050000C94B0000C94B0000C94B0000C94B00060
:100060000C94B0000C94B000084AD73B3BCE016E14
:1000700084BCBFFDC12F3D6C74319ABD56833DDAFF
:100080003D00C77F11BED9E4BB4C3E916BAAAABE0E
:10009000000000803F05A84CCDB2D44EB93836A937
:1000A000020C50B9918688083CA6AAAA2ABE000074
:1000B00000803F00000000240027002A000000000C
:1000C00000250028002B0000000000230026002946
:1000D00000040404040404040402020202020203F1
:1000E00003030303030102040810204080010204FB
:1000F000081020010204081020000000070002017F
:10010000000003040600000000000000000082233D
:1001100011241FBECFEFD8E0DEBFCDBF14E0A0E0BA
:10012000B1E0EAE3F2E502C005900D92A43BB1070D
:10013000D9F716E0A4EBB4E001C01D92A135B107D8
:10014000E1F711E0C0E1D1E004C02297FE010E9476
:100150001729CE30D107C9F70E9462200C941B29C1
:100160000C940000BF92CF92DF92EF92FF920F9318
:100170001F937B018C01FB010995B82EC8010196E4
:10018000F7010995C82EC8010296F7010995D82EE6
:10019000C8010396F7010995982F6B2D7C2D8D2DA5
:1001A0001F910F91FF90EF90DF90CF90BF90089537
:1001B000DF92EF92FF920F931F937B018C01FB0163
:1001C0000995D82EC8010196F7010995982F8D2D14
:1001D0001F910F91FF90EF90DF900895BF92CF9203
:1001E000DF92EF92FF920F931F93D52EC62EB72E5C
:1001F00079018C01642FF9010995C80101966D2DD3
:10020000F7010995C80102966C2DF7010995C801FF
:1002100003966B2DF70109951F910F91FF90EF90B9
:10022000DF90CF90BF900895DF92EF92FF920F93EF
:100230001F93D72E7A018C01FA010995C801019606
:100240006D2DF70109951F910F91FF90EF90DF90B1
:1002500008959C01F999FECF32BD21BDF89A80B571
:1002600008959C01F999FECF1FBA32BD21BD60BD32
:100270000FB6F894FA9AF99A0FBE08956F927F928A
:100280008F929F92AF92BF92CF92DF92EF92FF92A6
:100290000F931F933B014C01A090F404B090F50420
:1002A000C090F604D090F704A60195010E94AA27F9
:1002B0007B018C016091410570914205809143055D
:1002C000909144050E9486269B01AC01C801B701AC
:1002D0000E94AA2720E030E04AE754E40E94ED257E
:1002E0009B01AC01C601B5010E9420257B018C0158
:1002F00020E030E04AE754EC0E94E62588235CF4D5
:100300000F2EF0E0EF2EF0E0FF2EFAE70F2FF4ECC7
:100310001F2FF02D14C0C801B70120E030E04AE7DC
:1003200054E40E949F27181654F40F2EF0E0EF2E8D
:10033000F0E0FF2EFAE70F2FF4E41F2FF02DE092EC
:10034000F404F092F5040093F6041093F704C4014A
:10035000B3012BE734E14EE25FE30E94AA27A80134
:1003600097010E9420257B018C0120E030E84BEBB7
:1003700055EC0E94E62588235CF40F2EF0E0EF2E6A
:10038000F0E8FF2EFBEB0F2FF5EC1F2FF02D14C024
:10039000C801B70120E030E84BEB55E40E949F27ED
:1003A000181654F40F2EF0E0EF2EF0E8FF2EFBEBC2
:1003B0000F2FF5E41F2FF02DB701C8011F910F91EA
:1003C000FF90EF90DF90CF90BF90AF909F908F9075
:1003D0007F906F900895AF92BF92CF92DF92EF928D
:1003E000FF920F931F935B016C0120E030E040E02F
:1003F00050E00E94AA277B018C0160914105709119
:10040000420580914305909144050E9486269B01F8
:10041000AC01C801B7010E94AA2720E030E04AE7FA
:1004200054E40E94ED252091F8043091F9044091A4
:10043000FA045091FB040E9420257B018C0120E0EE
:1004400030E04AE754EC0E94E62588235CF40F2E46
:10045000F0E0EF2EF0E0FF2EFAE70F2FF4EC1F2F65
:10046000F02D14C0C801B70120E030E04AE754E4A1
:100470000E949F27181654F40F2EF0E0EF2EF0E0A4
:10048000FF2EFAE70F2FF4E41F2FF02DE092F8046F
:10049000F092F9040093FA041093FB04C601B5012D
:1004A00026E636E646E25FE30E94AA27A801970106
:1004B0000E9420251F910F91FF90EF90DF90CF9029
:1004C000BF90AF9008956F927F928F929F92AF925C
:1004D000BF92CF92DF92EF92FF920F931F933B0157
:1004E0004C0120E030E040E050E00E94AA277B0170
:1004F0008C01609141057091420580914305909176
:1005000044050E9486269B01AC01C801B7010E94E8
:10051000AA2720E030E04AE754E40E94ED2520912C
:10052000A8053091A9054091AA055091AB050E94FC
:1005300020255B016C0120E030E040E050E00E94AB
:10054000E62588235CF40F2EF0E0AF2EF0E0BF2EFE
:10055000F0E0CF2EF0E0DF2EF02D14C0C601B50183
:1005600020E030E048E452E40E949F27181654F43B
:100570000F2EF0E0AF2EF0E0BF2EF8E4CF2EF2E425
:10058000DF2EF02DA092A805B092A905C092AA0571
:10059000D092AB05C401B30120E030E040E450E468
:1005A0000E94AA277B018C01C401B3012DEC3CEC15
:1005B0004CEC5DE30E94AA279B01AC01C801B70186
:1005C0000E942025A60195010E9420255B016C0157
:1005D00020E030E040E050E00E94E62588235CF413
:1005E0000F2EF0E0AF2EF0E0BF2EF0E0CF2EF0E0C7
:1005F000DF2EF02D14C0C601B50120E030E048E840
:1006000051E40E949F27181654F40F2EF0E0AF2EED
:10061000F0E0BF2EF8E8CF2EF1E4DF2EF02D609150
:10062000A8057091A9058091AA059091AB0526E6D1
:1006300036E646E65FE30E94AA277B018C01C601ED
:10064000B5012DEC3CEC4CEC5DE30E94AA279B012C
:10065000AC01C801B7010E9420256093A8057093E2
:10066000A9058093AA059093AB050E945526CB015E
:100670001F910F91FF90EF90DF90CF90BF90AF90C0
:100680009F908F907F906F900895AF92BF92CF927E
:10069000DF92EF92FF920F931F935B016C01209109
:1006A0007D0430917E0440917F04509180040E942B
:1006B000AA277B018C0160914105709142058091D0
:1006C0004305909144050E9486269B01AC01C80118
:1006D000B7010E94AA2720E030E04AE754E40E94D4
:1006E000ED252091000530910105409102055091C2
:1006F00003050E9420257B018C0120E030E04AEFB9
:1007000053EC0E94E62588235CF40F2EF0E0EF2ED8
:10071000F0E0FF2EFAEF0F2FF3EC1F2FF02D14C097
:10072000C801B70120E030E04AEF53E40E949F2760
:10073000181654F40F2EF0E0EF2EF0E0FF2EFAEF33
:100740000F2FF3E41F2FF02DE0920005F09201052A
:100750000093020510930305C601B50120917904A9
:1007600030917A0440917B0450917C040E94AA2726
:10077000A80197010E9420255B016C01E0909C0577
:10078000F0909D0500919E0510919F05A80197018D
:100790000E949F2718168CF4C801B70120E030E0B2
:1007A0004CE852E40E9420257B018C01A6019501B2
:1007B0000E94E62588239CF410C0C801B70120E000
:1007C00030E04CE852E40E941F257B018C01A60119
:1007D00095010E949F27181614F457016801A092F2
:1007E0009C05B0929D05C0929E05D0929F05E09019
:1007F0009C05F0909D0500919E0510919F05B70105
:10080000C80120E030E04AE755EC0E94E625882345
:100810002CF4EE24FF240AE715EC0EC0B701C80142
:1008200020E030E04AE755E40E949F27181624F4A0
:10083000EE24FF240AE715E4C701D80180939C0544
:1008400090939D05A0939E05B0939F05B701C801A5
:100850001F910F91FF90EF90DF90CF90BF90AF90DE
:100860000895EF92FF920F931F93CF93DF93C09160
:10087000A304D091A404CE01855A96408B5F984082
:1008800048F560915D0470915E04882777FD80953E
:10089000982F0E9488262DEC3CEC4CE45FE30E94EC
:1008A000AA277B018C01BE0180E090E00E94862691
:1008B0002DEC3CEC4CEC5DE30E94AA279B01AC01C3
:1008C000C801B7010E9420250E94552670935E043E
:1008D00060935D04C091A504D091A604CE01855A11
:1008E00096408B5F984048F560915F04709160047A
:1008F000882777FD8095982F0E9488262DEC3CEC68
:100900004CE45FE30E94AA277B018C01BE0180E0DA
:1009100090E00E9486262DEC3CEC4CEC5DE30E94BE
:10092000AA279B01AC01C801B7010E9420250E94A3
:1009300055267093600460935F04C091A704D09122
:10094000A804CE01855A96408B5F984048F5609187
:10095000610470916204882777FD8095982F0E942A
:10096000882623E333E343E75FE30E94AA277B0162
:100970008C01BE0180E090E00E9486262DEC3CECCC
:100980004CEC5CE30E94AA279B01AC01C801B701B3
:100990000E9420250E945526709362046093610492
:1009A0006091610470916204685E7340882777FDEE
:1009B0008095982F0E94882620E030E040E05EE39A
:1009C0000E94AA270E9455267093C8046093C7040A
:1009D000DF91CF911F910F91FF90EF9008951F929B
:1009E0000F920FB60F9211242F933F934F935F9363
:1009F0008F939F9340918400509185004A9B08C03B
:100A000081E080939A05509395054093940518C012
:100A100080919A058130A1F410929A052091940555
:100A2000309195054217530720F4CA01805C934624
:100A300001C0CA01821B930B9093A4048093A3046A
:100A40004B9B08C081E080939B0550939705409392
:100A5000960515C080919B05813089F410929B0505
:100A600080919605909197054817590710F4405CBE
:100A70005346481B590B5093A6044093A5049F91DD
:100A80008F915F914F913F912F910F900FBE0F90DB
:100A90001F9018951F920F920FB60F9211242F934B
:100AA0003F938F939F9380918400909185001D9B2D
:100AB00005C090939905809398050FC020919805E3
:100AC000309199058217930710F4805C9346821B3E
:100AD000930B9093A8048093A7049F918F913F91CB
:100AE0002F910F900FBE0F901F901895AF92BF924D
:100AF000CF92DF92EF92FF920F931F93E0909904B1
:100B0000F0909A040027F7FC0095102F60918D0457
:100B100070918E0480918F049091900428E233E2CA
:100B200040E050E00E948628685D7C428644904008
:100B3000A80197010E94E628AA24BB246501A21AF5
:100B4000B30AC40AD50A6091890470918A0480911D
:100B50008B0490918C0428E233E240E050E00E9444
:100B60008628685D7C4286449040A80197010E94D7
:100B7000E628A21AB30AC40AD50A8FE1A81681EDA5
:100B8000B8068FEFC8068FEFD8062CF420E938EEB0
:100B90004FEF5FEF1AC082EEA8168EE2B80680E033
:100BA000C80680E0D8062CF020E737E140E050E0AE
:100BB0000CC0C601B50122E030E040E050E00E94E8
:100BC000E628C901DA019C01AD01B901CA011F91F2
:100BD0000F91FF90EF90DF90CF90BF90AF9008956E
:100BE000AF92BF92CF92DF92EF92FF920F931F933B
:100BF000E0909904F0909A040027F7FC0095102FDC
:100C000060918D0470918E0480918F049091900476
:100C100028E233E240E050E00E948628685D7C4292
:100C200086449040A80197010E94E62859016A0174
:100C30006091890470918A0480918B0490918C0456
:100C400028E233E240E050E00E948628685D7C4262
:100C500086449040A80197010E94E628A21AB30A90
:100C6000C40AD50A8FE1A81681EDB8068FEFC80631
:100C70008FEFD8062CF420E938EE4FEF5FEF1AC063
:100C800082EEA8168EE2B80680E0C80680E0D8069C
:100C90002CF020E737E140E050E00CC0C601B50180
:100CA00022E030E040E050E00E94E628C901DA018D
:100CB0009C01AD01B901CA011F910F91FF90EF9006
:100CC000DF90CF90BF90AF900895AF92BF92CF9238
:100CD000DF92EF92FF920F931F935B016C01609183
:100CE000B5047091B604882777FD8095982F0E94EF
:100CF00088267B018C01C601B50124EA3DE843EE5C
:100D00005DEB0E94AA279B01AC01C801B7010E94BC
:100D100020250E9455262091690430916A046217AB
:100D200073074CF040916B0450916C049B01461783
:100D300057070CF49A0183E0283E38071CF488EE2C
:100D400093E007C0C90127E0813D920714F080EDD0
:100D500097E09093640480936304880F991F9093A5
:100D60008900809388001F910F91FF90EF90DF9092
:100D7000CF90BF90AF900895AF92BF92CF92DF9285
:100D8000EF92FF920F931F935B016C0160915D04E2
:100D900070915E04882777FD8095982F0E948826A1
:100DA0007B018C01C601B50124EA3DE843EE5DEB11
:100DB0000E94AA279B01AC01C801B7010E9420250F
:100DC0000E9455262091690430916A0462177307C6
:100DD0004CF040916B0450916C049B0146175707EF
:100DE0000CF49A0183E0283E38071CF488EE93E067
:100DF00007C0C90127E0813D920714F080ED97E01C
:100E00009093640480936304880F991F90938900E2
:100E1000809388001F910F91FF90EF90DF90CF900B
:100E2000BF90AF900895AF92BF92CF92DF92EF92B2
:100E3000FF920F931F935B016C016091B704709157
:100E4000B804882777FD8095982F0E9488267B011B
:100E50008C01C601B50124EA3DE843EE5DEB0E943A
:100E6000AA279B01AC01C801B7010E9420250E945E
:100E7000552620916D0430916E04621773074CF073
:100E800040916F04509170049B01461757070CF472
:100E90009A0183E0283E38071CF488EE93E007C0EF
:100EA000C90127E0813D920714F080ED97E090930F
:100EB000660480936504880F991F90938B0080933C
:100EC0008A001F910F91FF90EF90DF90CF90BF901D
:100ED000AF9008956091BF047091C0048091C104E7
:100EE0009091C2040E9465066091C3047091C4048D
:100EF0008091C5049091C6040E94130708956F92D3
:100F00007F928F929F92AF92BF92CF92DF92EF9299
:100F1000FF920F931F9380917104833061F480EDF1
:100F200097E0A0E0B0E08093EC049093ED04A093F0
:100F3000EE04B093EF046091EC047091ED048091A5
:100F4000EE049091EF0420919B0430919C04409119
:100F50009D0450919E04621B730B840B950B0E94A1
:100F600088260E943E016093BF047093C004809362
:100F7000C1049093C2046091F0047091F1048091D7
:100F8000F2049091F30420919F043091A0044091C9
:100F9000A1045091A204621B730B840B950B0E9459
:100FA00088260E94EB013B014C016091EC0470919A
:100FB000ED048091EE049091EF040E9488265B017D
:100FC0006C012DEC3CEC4CEC5EE30E94AA277B010B
:100FD0008C0120E030E040E050E00E949F2718168E
:100FE00054F0C601B5012DEC3CEC4CEC5EEB0E94DC
:100FF000AA277B018C01C401B301A80197010E94BB
:1010000020256093C3047093C4048093C504909317
:10101000C6040E946A0760917704709178046F5D3E
:101020007F4F882777FD8095982F20918D053091EF
:101030008E0540918F0550919005621B730B840BB8
:10104000950B0E9488260E94630281969093C804A3
:101050008093C7041F910F91FF90EF90DF90CF9086
:10106000BF90AF909F908F907F906F900895AF92B8
:10107000BF92CF92DF92EF92FF920F931F935B018B
:101080006C0160915F0470916004882777FD809502
:10109000982F0E9488267B018C01C601B50124EAA5
:1010A0003DE843EE5DEB0E94AA279B01AC01C8011D
:1010B000B7010E9420250E94552620916D04309191
:1010C0006E04621773074CF040916F0450917004E6
:1010D0009B01461757070CF49A0183E0283E380716
:1010E0001CF488EE93E007C0C90127E0813D920718
:1010F00014F080ED97E09093660480936504880F68
:10110000991F90938B0080938A001F910F91FF90FD
:10111000EF90DF90CF90BF90AF9008956091BF04A3
:101120007091C0048091C1049091C2040E94BC06D9
:101130006091C3047091C4048091C5049091C60469
:101140000E9437080895AF92BF92CF92DF92EF923C
:10115000FF920F931F9360915D0470915E04882746
:1011600077FD8095982F0E9488267B018C016091E5
:10117000B5047091B604882777FD8095982F0E945A
:1011800088269B01AC01C801B7010E941F257B0185
:101190008C0120E030E040E050E00E949F271816CC
:1011A00024F017FB109517F91095C801B70120E03E
:1011B00030E048E453E40E94E62587FD0AC00F2E84
:1011C000F0E0EF2EF0E0FF2EF8E40F2FF3E41F2FF6
:1011D000F02D60E070E088E493E4A80197010E949C
:1011E0001F255B016C0160919B0470919C048091B0
:1011F0009D0490919E0490958095709561957F4F88
:101200008F4F9F4F0E9488260E943E017B018C01D8
:10121000C601B50120E030E048E453E40E94ED252A
:10122000A80197010E94AA276093BF047093C0048D
:101230008093C1049093C20460915F047091600434
:10124000882777FD8095982F0E9488267B018C0146
:101250006091B7047091B804882777FD8095982F26
:101260000E9488269B01AC01C801B7010E941F257E
:101270007B018C0120E030E040E050E00E949F279D
:10128000181624F017FB109517F91095C801B7012F
:1012900020E030E048E453E40E94E62587FD0AC0E0
:1012A0000F2EF0E0EF2EF0E0FF2EF8E40F2FF3E426
:1012B0001F2FF02D60E070E088E493E4A80197010F
:1012C0000E941F255B016C0160919F047091A00436
:1012D0008091A1049091A20490958095709561955C
:1012E0007F4F8F4F9F4F0E9488260E94EB017B010A
:1012F0008C01C601B50120E030E048E453E40E94CF
:10130000ED25A80197010E94AA276093C30470935A
:10131000C4048093C5049093C6040E948E081F9154
:101320000F91FF90EF90DF90CF90BF90AF90089516
:101330002F923F924F925F926F927F928F929F92E5
:10134000AF92BF92CF92DF92EF92FF920F931F93D3
:1013500080917104833061F480ED97E0A0E0B0E00B
:101360008093EC049093ED04A093EE04B093EF040B
:1013700060915D0470915E04882777FD8095982FB9
:101380000E9488267B018C016091B5047091B6049F
:10139000882777FD8095982F0E9488269B01AC01B5
:1013A000C801B7010E941F257B018C0120E030E0BD
:1013B00040E050E00E949F27181624F017FB10957C
:1013C00017F91095C801B70120E030E048EC53E46C
:1013D0000E94E62587FD0AC00F2EF0E0EF2EF0E018
:1013E000FF2EF8EC0F2FF3E41F2FF02D60E070E0DC
:1013F00088EC93E4A80197010E941F255B016C0112
:101400006091EC047091ED048091EE049091EF04F2
:1014100020919B0430919C0440919D0450919E0426
:10142000621B730B840B950B0E9488260E943E0161
:101430007B018C01C601B50120E030E048EC53E4AB
:101440000E94ED25A80197010E94AA276093BF047E
:101450007093C0048093C1049093C20460915F04B0
:1014600070916004882777FD8095982F0E948826C8
:101470007B018C016091B7047091B804882777FDD7
:101480008095982F0E9488269B01AC01C801B70166
:101490000E941F255B016C0120E030E040E050E03D
:1014A0000E949F27181624F0D7FAD094D7F8D0942A
:1014B000C601B50120E030E048EC53E40E94E62587
:1014C00087FD0AC00F2EF0E0AF2EF0E0BF2EF8EC43
:1014D000CF2EF3E4DF2EF02D6091F0047091F10433
:1014E0008091F2049091F30420919F043091A00424
:1014F0004091A1045091A204621B730B840B950BC5
:101500000E9488260E94EB011B012C016091EC04D3
:101510007091ED048091EE049091EF040E94882672
:101520003B014C012DEC3CEC4CEC5EE30E94AA2705
:101530007B018C0120E030E040E050E00E949F27DA
:10154000181654F0C401B3012DEC3CEC4CEC5EEBEE
:101550000E94AA277B018C0160E070E088EC93E494
:10156000A60195010E941F2520E030E048EC53E4DD
:101570000E94ED25A20191010E94AA27A8019701CE
:101580000E9420256093C3047093C4048093C50413
:101590009093C6040E948E0860917704709178043D
:1015A0006F5D7F4F882777FD8095982F20918D055F
:1015B00030918E0540918F0550919005621B730B01
:1015C000840B950B0E9488260E946302819690935B
:1015D000C8048093C7041F910F91FF90EF90DF9094
:1015E000CF90BF90AF909F908F907F906F905F90C3
:1015F0004F903F902F9008958091B404823088F0EE
:101600008091C7049091C8048333910514F082E35C
:1016100090E097FF02C080E090E09093C804809330
:10162000C7042091C7043091C8048091B9049091F7
:10163000BA04280F391F23583F4F2D3731051CF4AA
:101640008DE790E006C0C9012B3F310514F08AEF09
:1016500090E08093B30063E0880F991F6A95E1F7EB
:101660009093680480936704089560915B0470917F
:101670005C04625370407093BC046093BB04665B6F
:101680007340882777FD8095982F0E94882620E058
:1016900030E040E05EE30E94AA270E9455266E37A4
:1016A000710514F06DE770E077FF02C060E070E054
:1016B0007093BA046093B9040E94FC0A08951F92C3
:1016C0000F920FB60F9211241092B200289A0F9029
:1016D0000FBE0F901F9018951F920F920FB60F928A
:1016E000112428980F900FBE0F901F90189580918D
:1016F000B4048230C1F0833028F4882351F0813063
:1017000049F50CC08630C9F08730F1F0853011F50D
:101710000FC08EE396E060E071E013C08EE396E0C8
:101720006CE071E00EC08EE396E06BE171E009C001
:101730008EE396E06CE271E004C08EE396E06BE32A
:1017400071E00E94122408958EE396E064E471E053
:101750000E94122408950F931F930EE316E0C80110
:1017600060E571E00E94F323C80164E571E00E9426
:10177000F32340918D0550918E0560918F057091F6
:101780009005C8012AE030E00E94FF24C80169E505
:1017900071E00E94F3234091C7045091C80466276A
:1017A00057FD6095762FC8012AE030E00E94FF24A3
:1017B000C8016FE571E00E94F32360919B04709172
:1017C0009C0480919D0490919E0424E630E040E0CA
:1017D00050E00E94E628C801BA01A9012AE030E0E1
:1017E0000E94FF24C80165E671E00E94F323609126
:1017F0009F047091A0048091A1049091A20424E61A
:1018000030E040E050E00E94E628C801BA01A9019A
:101810002AE030E00E94FF24C8016BE671E00E94DC
:1018200012241F910F9108950F931F930EE316E05A
:10183000C80160E771E00E94F323C80164E771E02A
:101840000E94F32360916F0570917005809171057E
:10185000909172052AE030E040E050E00E94E628D6
:10186000C801BA01A9012AE030E00E94FF24C801A2
:1018700069E771E00E94F32360917305709174052C
:1018800080917505909176052AE030E040E050E0C7
:101890000E94E628C801BA01A9012AE030E00E94AE
:1018A000FF24C8016FE771E00E94F3236091C9042F
:1018B0007091CA048091CB049091CC0420E030E078
:1018C00048EC52E40E94ED250E945526AB01BC0174
:1018D000C8012AE030E00E94FF24C80165E871E0F9
:1018E0000E94F3236091CD047091CE048091CF04C7
:1018F0009091D0040E945526AB01BC01C8012AE09A
:1019000030E00E94FF24C8016BE871E00E94F323DD
:10191000809177059091780520915F053091600561
:10192000821B930B64E670E00E94B128AB0166272E
:1019300057FD6095762FC8012AE030E00E94FF2411
:10194000C80161E971E00E94F32360918305709101
:101950008405809185059091860524E630E040E07D
:1019600050E00E94E628C801BA01A9012AE030E04F
:101970000E94FF24C80167E971E00E94F32360918F
:10198000D7047091D8048091D9049091DA0424E6A8
:1019900030E040E050E00E94E628C801BA01A90109
:1019A0002AE030E00E94FF24C8016DE971E00E9446
:1019B000F3236091DB047091DC048091DD0490914D
:1019C000DE0424E630E040E050E00E94E628C80152
:1019D000BA01A9012AE030E00E94FF24C80163EAAD
:1019E00071E00E94F32340914E0550E060E070E00A
:1019F000C8012AE030E00E94FF24C80169EA71E0D2
:101A00000E94F3234091450550914605609147059A
:101A100070914805C8012AE030E00E94FF24C80107
:101A20006FEA71E00E94F323609187057091880549
:101A30008091890590918A050E945526AB01BC01D1
:101A4000C8012AE030E00E94FF24C80165EB71E084
:101A50000E94F3236091BF047091C0048091C1047F
:101A60009091C20420E030E048EC52E40E94ED2561
:101A70000E945526AB01BC01C8012AE030E00E945B
:101A8000FF24C8016BE671E00E9412241F910F91A0
:101A90000895F999FECFF999FECF89E090E092BDC3
:101AA00081BDF89A80B580934D058EE396E06BEB8F
:101AB00071E00E94F32340914D0550E060E070E03A
:101AC0008EE396E02AE030E00E941425F999FECFDB
:101AD000F999FECF12BC11BCF89A80B58093BE0470
:101AE0008EE396E065EC71E00E94F3234091BE0422
:101AF00050E060E070E08EE396E022E030E00E948B
:101B00001425F999FECFF999FECF8BE090E092BDB4
:101B100081BDF89A80B5809372048EE396E06EECF6
:101B200071E00E94F3234091720450E060E070E0A5
:101B30008EE396E02AE030E00E9414250895EF92AB
:101B4000FF920F931F930EE316E0C80169ED71E059
:101B50000E94F32373EEE72E71E0F72EC801B70160
:101B60000E94F323409163055091640560916505DF
:101B700070916605C8012AE030E00E94FF24C80188
:101B8000B7010E94F3234091670550916805609169
:101B9000690570916A05C8012AE030E00E94FF24BF
:101BA000C801B7010E94F32340916B0550916C0569
:101BB00060916D0570916E05C8012AE030E00E94C9
:101BC0001425C80165EE71E00E94F323C801B70136
:101BD0000E94F32340917B0550917C0560917D0527
:101BE00070917E05C8012AE030E00E94FF24C80100
:101BF000B7010E94F32340917F05509180056091C9
:101C0000810570918205C8012AE030E00E94FF241E
:101C1000C801B7010E94F3234091830550918405C8
:101C20006091850570918605C8012AE030E00E9428
:101C300014251F910F91FF90EF900895823079F055
:101C4000833018F48130C9F505C08330D1F0843079
:101C5000A1F52BC08EE396E06EEE71E004C08EE33A
:101C600096E06AEF71E00E94F32340914E0550E048
:101C700060E070E08EE396E02AE030E00E941425F8
:101C800008958EE396E06BE072E00E94F3234091AA
:101C90004E0550E060E070E08EE396E02AE030E030
:101CA0000E9414250E949F0D08958EE396E06CE13A
:101CB00072E00E9412240E949F0D08954F925F923D
:101CC0006F927F928F929F92AF92BF92CF92DF924C
:101CD000EF92FF920F931F93CF93DF936C016115E7
:101CE000710509F5F999FECF8EE090E069E271E0A7
:101CF0000E94B200762E672E582E492EF999FECFFB
:101D000082E190E069E271E00E94B200B62EA72E57
:101D1000982E892EF999FECF8CE090E069E271E06F
:101D20000E94D8003DC0EB01F3E0CC0FDD1FFA9517
:101D3000E1F7660F771FC60FD71F2E96F999FECFD2
:101D4000CE0169E271E00E94B200762E672E582E15
:101D5000492E7E010027F7FC0095102F84E090E0CB
:101D6000A0E0B0E0E80EF91E0A1F1B1FF999FECF94
:101D7000C70169E271E00E94B200B62EA72E982E2C
:101D8000892EF999FECF84E090E0A0E0B0E0E80E63
:101D9000F91E0A1F1B1FC70169E271E00E94D800EB
:101DA0007C0100E010E0672D762D852D942D2AE032
:101DB00030E040E050E00E948628D6016D937D938C
:101DC0008D939C9313976B2D7A2D892D982D0E94BE
:101DD0008628F6016483758386839783C801B701DB
:101DE00024E630E040E050E00E948628D6011896B4
:101DF0006D937D938D939C931B97C601DF91CF913B
:101E00001F910F91FF90EF90DF90CF90BF90AF9018
:101E10009F908F907F906F905F904F90089541E3D7
:101E200051E00E94140108954F925F926F927F9249
:101E30008F929F92AF92BF92CF92DF92EF92FF92DA
:101E40000F931F93DF93CF93CDB7DEB72C970FB6C9
:101E5000F894DEBF0FBECDBFC982DA82EB82FC826E
:101E60000D831E832F83388749875A876B877C872A
:101E700069817A818B819C812AE030E040E050E0EA
:101E80000E94E628122F032FF42EE52E6D817E810D
:101E90008F8198852AE030E040E050E00E94E628FB
:101EA000922E832E742E652E69857A858B859C856E
:101EB00024E630E040E050E00E94E628522E432E17
:101EC000A114B104E9F4F999FECF8EE090E0412F1E
:101ED000502F6F2D7E2D21E331E00E94EE00F99905
:101EE000FECF82E190E0492D582D672D762D21E31C
:101EF00031E00E94EE00F999FECF8CE090E03CC00A
:101F00006501B3E0CC0CDD1CBA95E1F7AA0CBB1C53
:101F1000CA0CDB1C8EE090E0C80ED91EF999FECFEA
:101F2000C601412F502F6F2D7E2D21E331E00E94FD
:101F3000EE00F999FECF76010027F7FC0095102FEF
:101F400084E090E0A0E0B0E0E80EF91E0A1F1B1F3D
:101F5000C701492D582D672D762D21E331E00E94D0
:101F6000EE00F999FECF84E090E0A0E0B0E0E80E4A
:101F7000F91E0A1F1B1FC701652D742D0E940F0F2C
:101F80002C960FB6F894DEBF0FBECDBFCF91DF9178
:101F90001F910F91FF90EF90DF90CF90BF90AF9087
:101FA0009F908F907F906F905F904F900895AF9229
:101FB000BF92CF92DF92EF92FF920F931F93DF9326
:101FC000CF93CDB7DEB72C970FB6F894DEBF0FBE18
:101FD000CDBFA7E5B5E0EFE6F5E08CE001900D920E
:101FE0008150E1F7CE010196C0905705D090580579
:101FF000E0905905F0905A0500915B0510915C0541
:1020000020915D0530915E0540915F05509160051E
:102010006091610570916205AA24BB240E94140F8F
:10202000A3E6B5E0E7E5F5E08CE001900D92815084
:10203000E1F781E080934E052C960FB6F894DEBF51
:102040000FBECDBFCF91DF911F910F91FF90EF9009
:10205000DF90CF90BF90AF900895EF92FF920F93D3
:102060001F93209177053091780580915F059091BD
:102070006005281B390B8091E9049091EA048217CE
:1020800093077CF43093EA042093E904F999FECF96
:10209000C90164E670E00E94B12885E090E00E94EA
:1020A0000F0FE090C904F090CA040091CB04109186
:1020B000CC046091EB0470E0882777FD8095982F21
:1020C0000E9488269B01AC01C801B7010E949F278E
:1020D000181694F4C801B7010E945A26862F6093FF
:1020E000EB04F999FECF64E60E94A528682F87E0EB
:1020F00090E070E00E940F0F1F910F91FF90EF9002
:10210000089586ED93E069E271E00E94D800F999A4
:10211000FECF843691050CF068C0F999FECFF9998D
:10212000FECF1FBA87EE93E092BD81BD10BC0FB603
:10213000F894FA9AF99A0FBEF999FECFF999FECF61
:102140001FBA86EE93E092BD81BD10BC0FB6F89425
:10215000FA9AF99A0FBEF999FECF81E090E06AEF02
:1021600070E00E940F0FF999FECF84EE93E068ECC7
:1021700070E00E940F0FF999FECF86ED93E06CEDB1
:1021800075E00E940F0FF999FECF88ED93E06CED9A
:1021900075E00E940F0FF999FECF8AED93E060E0A1
:1021A00074E00E940F0FF999FECF8CED93E06CE480
:1021B00074E00E940F0FF999FECF8EED93E06CE66C
:1021C00077E00E940F0FF999FECF80EE93E06CE468
:1021D00074E00E940F0FF999FECF82EE93E06CE657
:1021E00077E00E940F0FF999FECF0895F999FECF7D
:1021F00060918B0570918C0581E090E00E940F0F3B
:10220000F999FECF6091990470919A0484EE93E05D
:102210000E940F0FF999FECF6091B5047091B6043A
:1022200086ED93E00E940F0FF999FECF6091B704FD
:102230007091B80488ED93E00E940F0FF999FECFDA
:1022400060915B0470915C048AED93E00E940F0F33
:10225000F999FECF6091690470916A048CED93E066
:102260000E940F0FF999FECF60916B0470916C047E
:102270008EED93E00E940F0FF999FECF60916D04EF
:1022800070916E0480EE93E00E940F0FF999FECFDB
:1022900060916F047091700482EE93E00E940F0FC2
:1022A000F999FECF6091B9047091BA0484ED93E07E
:1022B0000E940F0F089587E061E00E946121089558
:1022C000282F809184009091850080529E44C8F30D
:1022D000222349F084E061E00E94412184E061E032
:1022E0000E946121089584E060E00E94612184E001
:1022F00060E00E94412108951F9310912E05113036
:1023000009F008C180912F05833009F495C082310E
:1023100009F4A6C0823009F0FDC0809171048823C1
:1023200009F0F8C08091040580933505809105057A
:1023300080933605809106058093370580910705C7
:10234000809338058091350590913605A091370529
:10235000B09138058093D3049093D404A093D5040E
:10236000B093D604809108058093350580910905C6
:102370008093360580910A058093370580910B057F
:10238000809338058091350590913605A0913705E9
:10239000B09138058093730590937405A0937505EB
:1023A000B093760580910C058093350580910D05DD
:1023B0008093360580910E058093370580910F0537
:1023C000809338058091350590913605A0913705A9
:1023D000B091380580936F0590937005A0937105B7
:1023E000B093720580911405809335058091150591
:1023F00080933605809116058093370580911705E7
:1024000080933805609135057091360580913705C8
:10241000909138052AE030E040E050E00E94E62844
:1024200020937705309378054093790550937A058A
:102430008091D10481606CC080910805833048F0A0
:10244000109271048CE061E00E9461211093D2042B
:1024500061C0109371048CE060E00E9461215AC059
:1024600080917104882309F055C0809118058093EC
:102470003505809119058093360580911A05809362
:10248000370580911B058093380560913505709163
:10249000360580913705909138050E948826609313
:1024A000C9047093CA048093CB049093CC0420E0B9
:1024B00030E040EF52E40E949F27882334F180915E
:1024C0001C058093350580911D058093360580910C
:1024D0001E058093370580911F0580933805609114
:1024E000350570913605809137059091380528EEB5
:1024F00033E040E050E00E94E6282093D704309378
:10250000D8044093D9045093DA048091D1048260B6
:102510008093D1041F910895EF92FF920F931F9320
:1025200081E00E94601118E8E12EF12C80E89CE027
:10253000F701918380830AE810E0F801918380839A
:1025400060E971E080E090E00E94BF2080EF9AE0B7
:10255000F70191838083F8019183808368EC70E0B8
:1025600080E090E00E94BF2088EB9BE0F701918320
:102570008083F8019183808380E00E9460111F9125
:102580000F91FF90EF900895CF93DF9380E28093B7
:102590006B008CE080936D0084E0809368008091F4
:1025A000680081608093680008C00E94310464E183
:1025B00070E080E090E00E94BF2080915D049091E7
:1025C0005E04845893403CF480915F0490916004D1
:1025D0008458934054F3C0E0D0E064E170E080E0C0
:1025E00090E00E94BF200E9431042196C436D1059C
:1025F000A1F720915D0430915E043093B6042093DE
:10260000B50440915F04509160045093B804409326
:10261000B704809161049091620490935C0480936C
:102620005B04285E33401CF0485E534034F48EE374
:1026300096E061E572E00E9412248091B5049091C9
:10264000B60423E0863B92071CF486EB93E006C0B9
:1026500028E08330920714F082E098E09093B6046B
:102660008093B5048091B7049091B80423E0863B31
:1026700092071CF486EB93E006C028E083309207B3
:1026800014F082E098E09093B8048093B7048091AE
:102690005B0490915C0423E0863B92071CF486EB7C
:1026A00093E006C028E08330920714F082E098E0BF
:1026B00090935C0480935B040E94350B80916104CD
:1026C00090916204845F9140A4F48EE396E062E608
:1026D00072E00E94F32340916104509162046627E6
:1026E00057FD6095762F8EE396E02AE030E00E9459
:1026F0001425DF91CF91089584E00E94AE210197C7
:1027000011F081E0089585E00E94AE21019711F05B
:1027100083E0089582E008950E947C1380939105E0
:10272000809392050895EF92FF920F931F93CF939A
:10273000DF9383E00E942321AA2797FDA095BA2F5B
:10274000BC01CD010E948826609395047093960485
:102750008093970490939804C0E0D0E06091950432
:1027600070919604809197049091980426E636E63D
:1027700046E65FE30E94AA277B018C0183E00E946A
:102780002321AA2797FDA095BA2FBC01CD010E9455
:1027900088262DEC3CEC4CEC5DE30E94AA279B01C3
:1027A000AC01C801B7010E94202560939504709385
:1027B000960480939704909398042196C035D10590
:1027C00069F60E94552670938C0560938B05DF9106
:1027D000CF911F910F91FF90EF900895EF92FF928C
:1027E0000F931F9382E00E942321AA2797FDA095B3
:1027F000BA2FBC01CD010E9488262AE037ED43E2C2
:102800005CE30E94AA277B018C0160919104709186
:10281000920480919304909194040E94882624EA63
:1028200030E74DE75FE30E94AA279B01AC01C80196
:10283000B7010E9420250E9455269B01AC016093A0
:1028400091047093920480939304909394048091E4
:102850009B0490919C04A0919D04B0919E0488518A
:102860009C4FAF4FBF4F815D9740A040B040F0F408
:102870008FEF91E0A0E0B0E0821B930BA40BB50BAF
:10288000181619061A061B062CF48FEF91E0821B0E
:10289000930B03C0C9018F5F91408832910514F4F6
:1028A00088E290E090939A04809399041F910F918D
:1028B000FF90EF900895AF92BF92CF92DF92EF9288
:1028C000FF920F931F9380E00E942321AA2797FD78
:1028D000A095BA2F8093890490938A04A0938B04C7
:1028E000B0938C0481E00E942321AA2797FDA09534
:1028F000BA2F80938D0490938E04A0938F04B0938D
:1029000090040E94760560939B0470939C048093CE
:102910009D0490939E040E94F00560939F04709321
:10292000A0048093A1049093A2040F2EF0E0AF2E98
:10293000F0E0BF2EF0E8CF2EFFE3DF2EF02DA092C7
:102940007304B0927404C0927504D092760483E04C
:102950000E942321AA2797FDA095BA2FBC01CD0183
:102960000E9488262DEC3CEC4CEC5DE30E94AA27EB
:102970007B018C016091950470919604809197047D
:102980009091980426E636E646E65FE30E94AA2781
:102990009B01AC01C801B7010E94202560939504FA
:1029A0007093960480939704909398040E94552600
:1029B00020918B0530918C05621B730BCB01AA27EC
:1029C00097FDA095BA2F80938D0590938E05A093C7
:1029D0008F05B0939005A0927304B0927404C092D6
:1029E0007504D09276041F910F91FF90EF90DF90C5
:1029F000CF90BF90AF9008950E9493130E945B14F4
:102A00000E94EE130895BF92CF92DF92EF92FF9251
:102A10000F931F93DF93CF93CDB7DEB72C970FB6ED
:102A2000F894DEBF0FBECDBFF82E8EE396E06FE6C2
:102A300072E00E94F3234F2D50E060E070E08EE3DF
:102A400096E02AE030E00E9414258E010F5F1F4FB0
:102A5000C80160E070E00E945E0E8EE396E06AE7D7
:102A600072E00E94F32349815A816B817C818EE35D
:102A700096E02AE030E00E94FF248EE396E063EEC9
:102A800071E00E94F3234D815E816F8178858EE332
:102A900096E02AE030E00E94FF248EE396E063EEA9
:102AA00071E00E94F32349855A856B857C858EE30E
:102AB00096E02AE030E00E94142581E0C82ED12C57
:102AC000EF2CFF24B02E012F43C08B2D902FB60189
:102AD0000E945E0E8EE396E062E872E00E94F323AD
:102AE0008EE396E0B6010E94E7248EE396E063EE63
:102AF00071E00E94F32349815A816B817C818EE3CE
:102B000096E02AE030E00E94FF248EE396E063EE38
:102B100071E00E94F3234D815E816F8178858EE3A1
:102B200096E02AE030E00E94FF248EE396E063EE18
:102B300071E00E94F32349855A856B857C858EE37D
:102B400096E02AE030E00E9414250894C11CD11CB4
:102B5000EC14FD040CF0B9CF2C960FB6F894DEBF40
:102B60000FBECDBFCF91DF911F910F91FF90EF90DE
:102B7000DF90CF90BF9008950F931F930EE316E060
:102B8000C80167E872E00E94F32360915D047091D0
:102B90005E04C8010E94E724C8016AE872E00E944E
:102BA000F32360915F0470916004C8010E94E724E0
:102BB000C8016EE872E00E94F32360916104709195
:102BC0006204C8010E94EF241F910F910895AF92F3
:102BD000BF92CF92DF92EF92FF920F931F935C010F
:102BE0006B01FB016081718182819381F5012081FC
:102BF000318142815381621B730B840B950B0E94C0
:102C000088262091530530915405409155055091E7
:102C100056050E94AA270E9455269095809570958A
:102C200061957F4F8F4F9F4F0E9488267B018C01BB
:102C3000F6016481758186819781F5012481358152
:102C400046815781621B730B840B950B0E9488266B
:102C50009B01AC01C801B7010E94932520EA3CE02A
:102C600043EB55E40E94AA2720E030EA4CE056E40A
:102C70000E9420250E9455269B01AC0197FF04C0AD
:102C8000205633474F4F5F4FB901CA011F910F9133
:102C9000FF90EF90DF90CF90BF90AF9008958FE6B8
:102CA00095E06BE775E00E94E7156093E30470938D
:102CB000E4048093E5049093E60408956F927F9274
:102CC0008F929F92AF92BF92CF92DF92EF92FF923C
:102CD0000F931F933C014B01FB0160817181828145
:102CE00093810E9488267B018C01F30160817181B0
:102CF000828193810E9488269B01AC01C801B701A3
:102D00000E941F255B016C01F4016481758186813D
:102D100097810E9488267B018C01F3016481758173
:102D2000868197810E9488269B01AC01C801B7016A
:102D30000E941F2520914F0530915005409151056B
:102D4000509152050E94AA277B018C01C601B50152
:102D5000A60195010E94AA275B016C01C801B70179
:102D6000A80197010E94AA279B01AC01C601B501E9
:102D70000E9420250E94112828EC32E646E35CE3FD
:102D80000E94AA270E9455269B01AC01CA011F91EF
:102D90000F91FF90EF90DF90CF90BF90AF909F90FA
:102DA0008F907F906F90089583E695E06BE775E0D4
:102DB0000E945E166093490570934A0580934B0507
:102DC00090934C0560917B0570917C0580917D0509
:102DD00090917E0597FF07C09095809570956195BD
:102DE0007F4F8F4F9F4F0E94882620E836E948E1A9
:102DF0005BE40E94ED2525E33AEF4EE85CE30E9498
:102E0000AA270E94EA259B01AC0160934F057093AD
:102E10005005809351059093520560E070E080E882
:102E20009FE30E94ED2560935305709354058093B2
:102E30005505909356050E944F16089510925A0416
:102E40008091B404873099F4ABE7B5E0EFE6F5E0A4
:102E50008CE001900D928150E1F7A3E6B5E0EFE63A
:102E6000F5E08CE001900D928150E1F709C0A3E6F6
:102E7000B5E0EFE6F5E08CE001900D928150E1F7CE
:102E80000E94D41608950F931F93DF93CF93CDB76D
:102E9000DEB72C970FB6F894DEBF0FBECDBFA3E60A
:102EA000B5E0EFE6F5E08CE001900D928150E1F79E
:102EB00060914E058E010F5F1F4FC80170E00E94A8
:102EC0005E0EABE7B5E0F8018CE001900D92815009
:102ED000E1F780915F0590916005A0916105B09147
:102EE00062052091830530918405409185055091BC
:102EF0008605820F931FA41FB51F809383059093AF
:102F00008405A0938505B093860583E00E941E0E7C
:102F10000E94D4162C960FB6F894DEBF0FBECDBF1C
:102F2000CF91DF911F910F9108958EE396E062E1BA
:102F300073E00E94122481E080934E050E944317A3
:102F4000089510924E05F999FECFF999FECF1FBA58
:102F50008AE090E092BD81BD10BC0FB6F894FA9A59
:102F6000F99A0FBE0E9443178091BE0483FF11C0DF
:102F70008091770590917805A0917905B0917A05B7
:102F80008093830590938405A0938505B09386056F
:102F90000895F999FECF86E190E069E271E00E9420
:102FA000D800AA2797FDA095BA2FBC01CD0124E631
:102FB00030E040E050E00E94862820915F0530918B
:102FC00060054091610550916205260F371F481F2B
:102FD000591F2093830530938405409385055093B2
:102FE000860508958093B404863011F40E94A117D9
:102FF0000E94770B0895823031F0833041F08130A8
:1030000049F480E001C085E00E94F217089585E050
:103010000E94F21708958091BD04813039F48091A7
:10302000B404853018F486E00E94F2170895982FB2
:103030008091BD04891789F09093BD04992321F4F0
:103040000E94991880E005C08091B404853018F47E
:1030500081E00E9460110E940B1808952091610484
:10306000309162048091BB049091BC04409193051F
:1030700028173907ECF4842F8F5F809393058930EC
:1030800031F48EE396E063E373E00E9412248091B2
:1030900093058B3030F081E00E9417188AE080930E
:1030A000930581E290E09093C8048093C70408954B
:1030B0004423A1F0842F815080939305882331F419
:1030C0008EE396E06DE473E00E94122480919305F4
:1030D000882321F40E9417181092930508951F93D6
:1030E0000E947C13182F80919205811701F1809125
:1030F000BD04882319F080E00E941718812F0E94D8
:10310000FB171093920580E090E0A0E0B0E0809380
:10311000FC049093FD04A093FE04B093FF048093FD
:10312000000590930105A0930205B09303051F913C
:103130000895109292050E946F1808951F93809130
:10314000B404863021F487E00E94F2177AC08530FB
:1031500009F077C080914E058F5F80934E05909166
:103160004D05981708F038C0F999FECFF999FECFB0
:1031700086EE93E092BD81BDF89A10B5112319F146
:103180008EE396E06CE573E00E94122484E00E94D6
:103190001E0E81E080934E0582E00E941E0E84E0A8
:1031A0000E941E0EF999FECFF999FECF1FBA86EE46
:1031B00093E092BD81BD115010BD0FB6F894FA9AFC
:1031C000F99A0FBE28C08EE396E069E773E00E948B
:1031D00012240E94951735C04091D3045091D40415
:1031E0006091D5047091D6048EE396E02AE030E039
:1031F0000E94FF248EE396E06CE873E00E94F323C4
:1032000040914E0550E060E070E08EE396E02AE0E9
:1032100030E00E941425F999FECF20914E05F999CE
:10322000FECF1FBA8AE090E092BD81BD20BD0FB6EF
:10323000F894FA9AF99A0FBE82E00E941E0E0E943C
:1032400043171F9108952F923F924F925F926F9272
:103250007F928F929F92AF92BF92CF92DF92EF9226
:10326000FF920F931F93DF93CF93CDB7DEB72C97C9
:103270000FB6F894DEBF0FBECDBF10924E05F99980
:10328000FECFF999FECF89E090E092BD81BDF89A1A
:1032900080B580934D05F999FECF81E090E069E219
:1032A00071E00E94D800382E292E80938B059093D0
:1032B0008C05F999FECF84EE93E069E271E00E94FB
:1032C000D8002C0190939A0480939904F999FECF29
:1032D00086ED93E069E271E00E94D8006C01909362
:1032E000B6048093B504F999FECF88ED93E069E2C6
:1032F00071E00E94D8004C019093B8048093B70409
:10330000F999FECF8AED93E069E271E00E94D8005E
:103310003C0190935C0480935B04F999FECF84EDAB
:1033200093E069E271E00E94D8009093BA04809320
:10333000B904F999FECF8CED93E069E271E00E9447
:10334000D8008C0190936A0480936904F999FECFA8
:103350008EED93E069E271E00E94D8007C019093C9
:103360006C0480936B04F999FECF80EE93E069E2E0
:1033700071E00E94D8005C0190936E0480936D040C
:10338000F999FECF82EE93E069E271E00E94D800E5
:103390009C01F999FECF46EBC41643E0D4061CF419
:1033A00086EB93E007C0C60148E08330940714F031
:1033B00082E098E09093B6048093B50486EB88167B
:1033C00083E098061CF486EB93E007C0C40148E054
:1033D0008330940714F082E098E09093B8048093CF
:1033E000B70486EB681683E078061CF486EB93E05E
:1033F00007C0C30148E08330940714F082E098E0EE
:1034000090935C0480935B0483E0063B18071CF4F4
:1034100086EB93E007C0C80148E00330140714F0BE
:1034200082E098E090936A048093690486EBE81642
:1034300083E0F8061CF486EB93E007C0C70148E080
:103440008330940714F082E098E090936C048093AA
:103450006B0486EBA81683E0B8061CF486EB93E0B9
:1034600007C0C50148E08330940714F082E098E07B
:1034700090936E0480936D0483E0263B38071CF420
:1034800086EB93E007C0C90128E08330920714F06F
:1034900082E098E09093700480936F0446E94416AC
:1034A00051041CF486E990E007C0C20122E081309B
:1034B000920714F080E092E090939A04809399042C
:1034C000832D922D9C0142E02130340714F020E03E
:1034D00032E037FF02C020E030E030938C052093CB
:1034E0008B058E010F5F1F4FC80160E070E00E94E6
:1034F0005E0EA7E5B5E0F8018CE001900D928150D9
:10350000E1F70E94431781E080935A042C960FB68E
:10351000F894DEBF0FBECDBFCF91DF911F910F9109
:10352000FF90EF90DF90CF90BF90AF909F908F90E3
:103530007F906F905F904F903F902F900895AF9243
:10354000BF92CF92DF92EF92FF920F931F938091E1
:103550005A04882389F01092EC041092ED04109222
:10356000EE041092EF041092F0041092F104109205
:10357000F2041092F304BEC19091D10491FF04C0F3
:1035800082E098279093D1049091D10490FF04C0D9
:1035900081E098279093D1048FE695E06BE775E082
:1035A0000E94E7156093DB047093DC048093DD04D4
:1035B0009093DE048FE695E06BE775E00E945E165F
:1035C0005B016C0160934505709346058093470548
:1035D000909348052091DB043091DC044091DD0498
:1035E0005091DE048091D7049091D804A091D90421
:1035F000B091DA04281B390B4A0B5B0B2093DF04D4
:103600003093E0044093E1045093E2048091B404C9
:10361000873009F051C08EE1A816B104C104D1046D
:10362000CCF4205B394B4F4F5F4FCA01B9010E9468
:1036300088267B018C01C601B5010E94882620E006
:1036400030E040EF51E40E94ED2520E030EA4CE00C
:1036500056E420C08CE3A816B104C104D10464F57B
:10366000CA01B9010E9488267B018C016CE370E0DD
:1036700080E090E06A197B098C099D090E948826E8
:1036800020E030E040EF51E40E94ED2520E030EAF8
:103690004CE056EC0E94AA279B01AC01C801B7017F
:1036A0000E9420250E9455266093DF047093E00459
:1036B0008093E1049093E2048091DF049091E00410
:1036C000A091E104B091E204813526E4920720E064
:1036D000A20720E0B20764F0805A9C48A040B040A6
:1036E0008093DF049093E004A093E104B093E2049C
:1036F0008091DF049091E004A091E104B091E20494
:10370000803B29EB92072FEFA2072FEFB20764F45B
:1037100080569347AF4FBF4F8093DF049093E004F0
:10372000A093E104B093E2046091DF047091E0049F
:103730008091E1049091E2040E9488260E94450352
:103740000E9455266093EC047093ED048093EE0480
:103750009093EF0460918305709184052091770523
:1037600030917805621B730B7093E8046093E70453
:10377000882777FD8095982F0E9488265B016C0131
:1037800020918104309182044091830450918404FB
:103790000E94AA270E945526693B2BE0720720E071
:1037A000820720E0920724F068EB7BE080E090E065
:1037B00064322AEF72072FEF82072FEF920724F46B
:1037C00064E27AEF8FEF9FEF6093F0047093F1045F
:1037D0008093F2049093F304C601B501209185040F
:1037E0003091860440918704509188040E94AA2752
:1037F0000E945526603171058105910524F06FE026
:1038000070E080E090E0613F2FEF72072FEF8207BA
:103810002FEF920724F461EF7FEF8FEF9FEF70930C
:103820007804609377048091B404873009F462C00F
:103830002091450530914605409147055091480536
:1038400057FF49C08EE396E065EA73E00E94F323D8
:1038500040916F05509170056091710570917205EE
:103860008EE396E00E94B5248EE396E06EEB73E063
:103870000E94F32340917305509174056091750582
:10388000709176058EE396E00E94B5248EE396E073
:1038900061EC73E00E94F32340917B0550917C051D
:1038A00060917D0570917E058EE396E00E94B524BF
:1038B0008EE396E06EEB73E00E94F32340917F0568
:1038C0005091800560918105709182058EE396E0AC
:1038D0000E94DC240FC08091720490E0A0E0B0E070
:1038E000281739074A075B072CF481E00E941E0E57
:1038F0000E949E181F910F91FF90EF90DF90CF9044
:10390000BF90AF9008958F929F92AF92BF92CF9247
:10391000DF92EF92FF920F931F93CF93DF938EE38B
:1039200096E00E943323082F10E00115110509F4D9
:10393000CDC063E070E080E090E00E94BF20C0E076
:10394000D0E075E0972E67E0862E56E0B52E48E071
:10395000A42E32E0C32EDD24D39423E0F22E94E093
:10396000E92E8EE396E00E944723382F8091AC0524
:10397000843009F445C0853050F48130D9F081306D
:1039800098F08230F9F0833009F09BC02AC086306D
:1039900009F457C0863008F445C0873009F46CC07C
:1039A000883009F08EC06DC0353B09F08AC0D092D6
:1039B000AC0587C0323619F4C092AC0582C01092B3
:1039C000AC057FC030932E0590912C05930F9093FA
:1039D0002C0580912D05890F80932D05F092AC0563
:1039E00070C030932F0590912C05930F90932C0568
:1039F00080912D05890F80932D05E092AC0561C063
:103A00003093300590912C05930F90932C05809165
:103A10002D05890F80932D059092AC05393208F45D
:103A200050C047C03093310590912C05930F90936F
:103A30002C0580912D05890F80932D05B092AC0542
:103A400040C020913205E22FF0E0EC5FFA4F308366
:103A500090912C05930F90932C0580912D05890F43
:103A600080932D052F5F2093320580913005281714
:103A700040F18092AC0525C030933305A092AC058F
:103A800020C03093340590912C0580913305981710
:103A900081F480912D05831761F40E947C110E94AE
:103AA000B1206093AD057093AE058093AF05909300
:103AB000B0051092AC051092320510922C051092B0
:103AC0002D052196C017D1070CF44BCF0E94B120D1
:103AD0002091AD053091AE054091AF055091B005F4
:103AE000621B730B840B950B615D774080409040A7
:103AF00078F18CE060E00E94612181E080937104A4
:103B00001092D1040E94B1202091AD053091AE05F4
:103B10004091AF055091B005621B730B840B950B60
:103B2000615177428040904098F083E08093710427
:103B30000E94B1206093AD057093AE058093AF05F0
:103B40009093B0058EE396E06CEC73E00E94122433
:103B5000DF91CF911F910F91FF90EF90DF90CF9069
:103B6000BF90AF909F908F900895CF93DF938EE397
:103B700096E060E173E00E9412248EE396E06DED22
:103B800073E00E9412241092D10481E080937104AA
:103B90002CC00E94831C8CE060E00E94612169E1DE
:103BA00070E080E090E00E94BF208CE061E00E9425
:103BB000612169E170E080E090E00E94BF202196E1
:103BC000C531D10534F380917104813031F48EE335
:103BD00096E06AEE73E00E941224809171048823BB
:103BE00039F08091D104882319F4C0E0D0E0E8CF07
:103BF000DF91CF9108950E94B12020913905309135
:103C00003A0540913B0550913C05621B730B840BB8
:103C1000950B609341057093420580934305909303
:103C20004405643171058105910508F431C10E9494
:103C3000B1206093390570933A0580933B059093CA
:103C40003C050E946F180E9431040E942E180E94A9
:103C50005B140E94B12020913D0530913E054091BA
:103C60003F0550914005621B730B840B950B653625
:103C700071058105910568F10E94B12060933D05B1
:103C800070933E0580933F05909340050E94831CEE
:103C90008091D204882321F01092D2040E94140C47
:103CA00080915A04882379F080916F059091700576
:103CB000A0917105B0917205181619061A061B0617
:103CC00014F40E941E170E94AB0B0E94EE130E9478
:103CD0002D109091B404913019F40E94A308D6C01D
:103CE000923009F091C08091B5049091B604209172
:103CF0005D0430915E04821B930B9C01B3E0220FA4
:103D0000331FBA95E1F7280F391FC901AA2797FD7C
:103D1000A095BA2F813A2FE0920720E0A20720E079
:103D2000B20724F080EA9FE0A0E0B0E09C01AD0182
:103D3000203680EF38078FEF48078FEF580724F4BD
:103D400020E630EF4FEF5FEF2093EC043093ED046B
:103D50004093EE045093EF04E091B704F091B8045F
:103D600060915F04709160049F01261B370BC901AD
:103D7000A3E0880F991FAA95E1F7820F931F9C017A
:103D8000442737FD4095542F293B8BE0380780E0CE
:103D9000480780E0580724F028EB3BE040E050E083
:103DA000DA01C90184322AEF92072FEFA2072FEF21
:103DB000B20724F484E29AEFAFEFBFEF8093F004F0
:103DC0009093F104A093F204B093F3046E1B7F0B65
:103DD0008CED95E09C01629FC001639F900D729FE6
:103DE000900D112468EE73E00E94B128CB01603180
:103DF000710514F08FE090E03FEF813F93070CF0E6
:103E00003FC081EF9FEF3CC0892F8550833028F45D
:103E10000E949F1A0E94980939C09923C9F4809181
:103E20005D0490915E049093640480936304809198
:103E30005F04909160049093660480936504809180
:103E400061049091620490936804809367041EC09B
:103E50009830E1F488E19CEFAFEFBFEF8093F0047E
:103E60009093F104A093F204B093F3041092EC0445
:103E70001092ED041092EE041092EF0481E290E0B3
:103E800090937804809377040E947F070E94FC0A35
:103E900008958CE061E00E9441218EE396E040E0CD
:103EA00056E960E070E00E943A2208958EE396E0C1
:103EB00066E074E00E9412240E94231980E280933D
:103EC0006B008CE080936D00E8E6F0E084E0808396
:103ED0008081816080830E94350B0E948C120E9439
:103EE0005B110E94491F80914D050E9403150E949D
:103EF000991808958CE061E00E9441218EE396E0DC
:103F000040E056E960E070E00E943A220E94B51D50
:103F100008951F938EE396E063E174E00E941224FB
:103F20000E945B110E94C4120E94BC150E948C1258
:103F30000E947A1F0E94D70F0E9443170E948C1282
:103F400080914D050E9403150E948C1268EE73E06B
:103F500080E090E00E94BF200E948C1216C08EE389
:103F600096E063E274E00E9412240E948C120E9488
:103F7000831C10E00E945B1464E170E080E090E03C
:103F80000E94BF201F5F1233A9F786E00E94AE2176
:103F9000892B29F30E94D70F0E94FC140E94F6106F
:103FA0000E9499188EE396E060E173E00E9412246B
:103FB0008EE396E066E374E00E9412241F91089558
:103FC0008EE396E065E474E00E94122482E060E0F3
:103FD0000E94412183E060E00E94412184E060E092
:103FE0000E94412185E060E00E94412186E060E07E
:103FF0000E94412187E061E00E94412188E061E068
:104000000E94412189E061E00E9441218AE061E053
:104010000E9441218BE061E00E9441218CE061E03F
:104020000E9441218DE060E00E94412186E061E034
:104030000E9461210E945B110E948C1382EA80938E
:1040400080008AE18093810088EB9BE09093890057
:104050008093880090938B0080938A0080E49CE991
:10406000909387008093860092E09093B00085E063
:104070008093B1008091B90483588093B3008091FC
:104080006F00806280936F00909370000E94FC1418
:104090000E94490D0E94811086E00E94AE21892B6A
:1040A00019F40E94891F08950E94561F08958EE3F7
:1040B00096E040E056E960E070E00E943A220E94FB
:1040C000E01F08950E94E9200E9457200E94FB1DD6
:1040D000FDCF1F920F920FB60F9211242F933F9393
:1040E0008F939F93AF93BF938091B5059091B60541
:1040F000A091B705B091B8053091B9050196A11D01
:10410000B11D232F2D5F2D3720F02D570196A11DB6
:10411000B11D2093B9058093B5059093B605A09382
:10412000B705B093B8058091B1059091B205A09103
:10413000B305B091B4050196A11DB11D8093B105E1
:104140009093B205A093B305B093B405BF91AF911E
:104150009F918F913F912F910F900FBE0F901F90C5
:1041600018958FB7F8942091B5053091B605409118
:10417000B7055091B8058FBFB901CA010895EF92F4
:10418000FF920F931F937B018C018FB7F89440919E
:10419000B5055091B6056091B7057091B8058FBF10
:1041A0002FB7F8948091B5059091B605A091B70509
:1041B000B091B8052FBF841B950BA60BB70BE81663
:1041C000F9060A071B0760F71F910F91FF90EF9008
:1041D0000895789484B5826084BD84B5816084BD7F
:1041E00085B5826085BD85B5816085BDEEE6F0E070
:1041F000808181608083E1E8F0E08081826080835B
:10420000808181608083E0E8F0E08081816080834C
:10421000E1EBF0E0808184608083E0EBF0E080817E
:1042200081608083EAE7F0E0808184608083808120
:1042300082608083808181608083808180688083C8
:104240001092C10008958F709091A9049295990FD2
:10425000990F907C982B90937C0080917A008064D9
:1042600080937A0080917A0086FDFCCF20917800BF
:1042700040917900942F80E030E0282B392BC90140
:104280000895282F30E0C9018B519F4FFC01949174
:104290002F523F4FF9018491882391F0E82FF0E0ED
:1042A000EE0FFF1FED54FF4FA591B491662329F443
:1042B0008C91909589238C9308958C91892B8C9364
:1042C0000895482F50E0CA0187509F4FFC01249168
:1042D000CA018B519F4FFC0194914F525F4FFA01DD
:1042E00034913323D1F1222331F1233021F4809111
:1042F00080008F7705C0243031F4809180008F7D5D
:104300008093800018C0213019F484B58F7704C0E1
:10431000223021F484B58F7D84BD0DC0263021F478
:104320008091B0008F7705C0273029F48091B000CC
:104330008F7D8093B000E32FF0E0EE0FFF1FE3547A
:10434000FF4FA591B491662329F48C919095892310
:104350008C9308958C91892B8C930895682F70E02D
:10436000CB0187509F4FFC012491CB018B519F4F74
:10437000FC0144916F527F4FFB019491992319F4F2
:1043800020E030E038C0222331F1233021F4809145
:1043900080008F7705C0243031F4809180008F7DBC
:1043A0008093800018C0213019F484B58F7704C041
:1043B000223021F484B58F7D84BD0DC0263021F4D8
:1043C0008091B0008F7705C0273029F48091B0002C
:1043D0008F7D8093B000892F90E0880F991F8953BB
:1043E0009F4FFC01A591B4918C9120E030E0842393
:1043F00011F021E030E0C90108951F920F920FB62D
:104400000F9211242F933F934F935F936F937F935A
:104410008F939F93AF93BF93EF93FF934091C60009
:10442000E0913A06F0913B06CF01019660E870E01A
:104430000E94B1289C0180913C0690913D0628176E
:10444000390739F0E654FA4F408330933B06209306
:104450003A06FF91EF91BF91AF919F918F917F911C
:104460006F915F914F913F912F910F900FBE0F90E1
:104470001F9018955F926F927F928F929F92AF924A
:10448000BF92CF92DF92EF92FF920F931F93CF9341
:10449000DF93EC013A014B01413482E458078FE08D
:1044A000680780E078070CF07FC060E874E88EE170
:1044B00090E0A40193010E94E62821503040404042
:1044C0005040CA01B90122E030E040E050E00E94D3
:1044D000E62859016A01A60195012095309540957D
:1044E000509594E0220F331F441F551F9A95D1F722
:1044F00060E074E284EF90E00E94E628CA01B9010E
:104500002FEF30E040E050E00E948628A4019301A4
:104510000E94E628C90181509F4F181619061CF405
:10452000522E5A9403C055245394521A60E079E0F5
:104530008DE390E0A40193010E94E62821503040D1
:1045400040405040CA01B90122E030E040E050E074
:104550000E94E628209530954095509583E0220FE3
:10456000331F441F551F8A95D1F760E074E284EF32
:1045700090E00E94E628CA01B9012FEF30E040E048
:1045800050E00E948628A40193010E94E628C901F8
:1045900081509F4F181619061CF4822F815002C0BB
:1045A00081E0821B851500F5E885F98581E090E0C2
:1045B0000A8802C0880F991F0A94E2F7808360E09E
:1045C00079E08DE390E0A40193010E94E628215058
:1045D000304040405040CA01B90122E030E040E0A4
:1045E00050E00E94E62804C0E885F9851082950114
:1045F000EC81FD813083EE81FF812083EA85FB859C
:10460000208141E050E0CA010E8402C0880F991F4A
:104610000A94E2F7282B2083EA85FB852081CA01D2
:104620000F8402C0880F991F0A94E2F7282B208379
:10463000EA85FB858081088802C0440F551F0A94D3
:10464000E2F7842B8083DF91CF911F910F91FF9030
:10465000EF90DF90CF90BF90AF909F908F907F9022
:104660006F905F900895DC011296ED91FC91139785
:10467000E058FF4F8191919180589F4F2081318167
:10468000821B930B60E870E00E94B1280895CF93DD
:10469000DF93DC011296ED91FC911397EF01CE5759
:1046A000DF4F48815981E058FF4F80819181E05868
:1046B000F0408417950719F42FEF3FEF0CC0E40F7B
:1046C000F51F2081CA01019660E870E00E94B128C0
:1046D0009983888330E0C901DF91CF910895FC016F
:1046E000A085B18521898C9190E0022E02C095951C
:1046F00087950A94E2F780FFF6CF0484F585E02DD4
:10470000608308958EEA94E090933F0680933E067E
:104710008AEB95E0909341068093400685EC90E00B
:10472000909343068093420684EC90E09093450674
:104730008093440680EC90E0909347068093460671
:1047400081EC90E0909349068093480686EC90E0D7
:1047500090934B0680934A0684E080934C0683E056
:1047600080934D0687E080934E0685E080934F0648
:1047700081E08093500608950F931F93CF93DF93AA
:104780008C01EB0109C02196D801ED91FC910190BB
:10479000F081E02DC801099568816623A1F7DF91BA
:1047A000CF911F910F910895EF92FF920F931F9356
:1047B000CF93DF938C017B01EA010CC0D7016D918F
:1047C0007D01D801ED91FC910190F081E02DC801AF
:1047D00009952197209791F7DF91CF911F910F9124
:1047E000FF90EF900895DC01ED91FC910280F38140
:1047F000E02D099508950F931F938C01DC01ED9135
:10480000FC910190F081E02D6DE00995D801ED91CA
:10481000FC910190F081E02DC8016AE009951F919B
:104820000F9108950F931F938C010E94F323C801E9
:104830000E94FB231F910F9108952F923F924F9258
:104840005F926F927F928F929F92AF92BF92CF9220
:10485000DF92EF92FF920F931F93DF93CF93CDB729
:10486000DEB7A0970FB6F894DEBF0FBECDBF1C0118
:104870006A017B01411551056105710549F4DC01AF
:10488000ED91FC910190F081E02D60E3099554C019
:10489000882499245401422E55246624772401E06B
:1048A00010E00C0F1D1F080D191DC701B601A30153
:1048B00092010E94C428F80160830894811C911C15
:1048C000A11CB11CC701B601A30192010E94C4281A
:1048D000C901DA016C017D01C114D104E104F104C4
:1048E000F1F681E0E82EF12CEC0EFD1EE80CF91C2F
:1048F0003E010894611C711CD501C4010197A109F6
:10490000B1096C01C818D90814C0F601EE0DFF1DDD
:1049100060816A3010F4605D01C0695CD101ED9185
:10492000FC910190F081E02DC10109950894E10806
:10493000F1086E147F0449F7A0960FB6F894DEBF15
:104940000FBECDBFCF91DF911F910F91FF90EF90E0
:10495000DF90CF90BF90AF909F908F907F906F909F
:104960005F904F903F902F900895EF92FF920F939A
:104970001F93CF93DF93EC017A018B0177FF0FC078
:10498000E881F9810190F081E02D6DE209951095A3
:104990000095F094E094E11CF11C011D111DCE0165
:1049A000B801A7012AE00E941D24DF91CF911F9139
:1049B0000F91FF90EF9008950F931F938C010E9429
:1049C000B524C8010E94FB231F910F910895AB01EC
:1049D000662757FD6095762F0E94B52408950F93A2
:1049E0001F938C01AB01662757FD6095762F0E94BF
:1049F000B524C8010E94FB231F910F910895DC018B
:104A00002115310541F4ED91FC910190F081E02DEB
:104A1000642F099508952A30310519F40E94B524B0
:104A200008950E941D2408950F931F938C010E94E6
:104A3000FF24C8010E94FB231F910F910895505835
:104A4000BB27AA270ED030C2F0D130F0F5D120F02C
:104A500031F49F3F11F41EF4C0C10EF4E095E7FB62
:104A6000B6C1E92F43D280F3BA17620773078407F0
:104A7000950718F071F49EF55BC20EF4E0950B2ECD
:104A8000BA2FA02D0B01B90190010C01CA01A001A0
:104A90001124FF27591B99F0593F50F4503E68F1FB
:104AA0001A16F040A22F232F342F4427585FF3CF3C
:104AB000469537952795A795F0405395C9F77EF40D
:104AC0001F16BA0B620B730B840BBAF09150A1F056
:104AD000FF0FBB1F661F771F881FC2F70EC0BA0FDC
:104AE000621F731F841F48F4879577956795B79564
:104AF000F7959E3F08F0B3CF9395880F08F099275C
:104B0000EE0F97958795089590D158F080E891E041
:104B100009F49EEF91D128F040E851E059F45EEF9E
:104B200009C05BC105C2E92FE078E0D168F3092E26
:104B3000052AC1F3261737074807590738F00E2E04
:104B400007F8E02569F0E025E0640AC0EF6307F8A4
:104B5000009407FADB01B9019D01DC01CA01AD0136
:104B6000EF934AD0A1D10AD05F91552331F02BEDBC
:104B70003FE049E450FD49EC63CF0895DF93DD2722
:104B8000B92FBF7740E85FE31616170648075B07A3
:104B900010F4D92FD8D19F938F937F936F938BD29B
:104BA000E8E6F0E01DD180D12F913F914F915F91C8
:104BB000DDD1DD2349F09058A2EA2AED3FE049EC2F
:104BC0005FE3D0785D274DDFDF916EC1DCD008F464
:104BD00081E0089539D1E39578C10CD065C12CD11D
:104BE00040F023D130F021F45F3F19F0F0C05111B3
:104BF000A0C1F3C07BD198F39923C9F35523B1F336
:104C0000951B550BBB27AA2762177307840738F03B
:104C10009F5F5F4F220F331F441FAA1FA9F333D09A
:104C20000E2E3AF0E0E830D091505040E695001C4E
:104C3000CAF729D0FE2F27D0660F771F881FBB1F0A
:104C4000261737074807AB07B0E809F0BB0B802DE4
:104C5000BF01FF2793585F4F2AF09E3F510568F030
:104C6000B6C067C15F3FECF3983EDCF3869577955D
:104C70006795B795F7959F5FC9F7880F911D969532
:104C8000879597F90895E1E0660F771F881FBB1F8E
:104C9000621773078407BA0720F0621B730B840B3B
:104CA000BA0BEE1F88F7E095089504D06894B1110F
:104CB00040C1089523D188F09F5790F0B92F9927CC
:104CC000B751A0F0D1F0660F771F881F991F1AF017
:104CD000BA95C9F712C0B13081F02AD1B1E0089578
:104CE00027C1672F782F8827B85F39F0B93FCCF3F9
:104CF000869577956795B395D9F73EF4909580950D
:104D0000709561957F4F8F4F9F4F0895E89409C02C
:104D100097FB3EF490958095709561957F4F8F4FEE
:104D20009F4F9923A9F0F92F96E9BB279395F69504
:104D3000879577956795B795F111F8CFFAF4BB0F82
:104D400011F460FF1BC06F5F7F4F8F4F9F4F16C0E6
:104D5000882311F096E911C0772321F09EE8872F70
:104D6000762F05C0662371F096E8862F70E060E02C
:104D70002AF09A95660F771F881FDAF7880F9695A5
:104D8000879597F90895990F0008550FAA0BE0E849
:104D9000FEEF16161706E807F907C0F012161306FD
:104DA000E407F50798F0621B730B840B950B39F43D
:104DB0000A2661F0232B242B252B21F408950A26A3
:104DC00009F4A140A6958FEF811D811D089597F9E3
:104DD0009F6780E870E060E008959FEF80EC0895A1
:104DE000DF93CF931F930F93FF92EF92DF927B019C
:104DF0008C01689405C0DA2EEF01B8D0FE01E8946A
:104E0000A5912591359145915591AEF3EF0129DE9C
:104E1000FE019701A801DA9479F7DF90EF90FF90F7
:104E20000F911F91CF91DF91089500240A941616D7
:104E3000170618060906089500240A941216130688
:104E4000140605060895C9CF59D0E8F3E894EFEFAA
:104E5000BB273FE048EC5FE76B3D7307840795078E
:104E600008F1FF279F57B25A6A4D7F40894CF040A6
:104E700032F4BE556542704F8643FF4F0894EE1FD3
:104E8000915030F0BB0F661F771F881FFF1FEBCFBD
:104E90009EE7882332F0BB0F661F771F881F9A9505
:104EA000C1F79395E0950AC1092E0394000C11F403
:104EB000882352F0BB0F40F4BF2B11F460FF04C0F5
:104EC0006F5F7F4F8F4F9F4F0895EF93E0FF06C0B6
:104ED000A2EA2AED3FE049EC5FEBC3DDE5DF0F908E
:104EE000039401FC9058E5E9F0E0FFC057FD9058AD
:104EF000440F551F59F05F3F71F04795880F97FB9E
:104F0000991F61F09F3F79F0879508951216130657
:104F10001406551FF2CF4695F1DF08C01616170686
:104F20001806991FF1CF86957105610508940895BB
:104F3000E894BB2766277727CB0197F9089523DFED
:104F400008F48FEF08959B01AC0160E070E080E809
:104F50009FE343CE0BD0A8CF68DF28F06DDF18F0B9
:104F6000952309F034CF39CF1124E3CFBFDFA0F36D
:104F7000959FD1F3950F50E0551F629FF001729FEE
:104F8000BB27F00DB11D639FAA27F00DB11DAA1F0D
:104F9000649F6627B00DA11D661F829F2227B00D5A
:104FA000A11D621F739FB00DA11D621F839FA00DE5
:104FB000611D221F749F3327A00D611D231F849F35
:104FC000600D211D822F762F6A2F11249F5750408C
:104FD0008AF0E1F088234AF0EE0FFF1FBB1F661F27
:104FE000771F881F91505040A9F79E3F510570F0E0
:104FF000EECE9FCF5F3FECF3983EDCF3869577953E
:105000006795B795F795E7959F5FC1F7FE2B880FDA
:10501000911D9695879597F9089511F40EF4DDCEBC
:105020004DC06CDFD0F39923D9F3CEF39F57550BC6
:1050300087FF54D056959795B0E020F4660F771F00
:10504000881FBB1F1F930F9300249001A0018001B4
:10505000F001A0E80E0F1F1F0A1E511D601B710BEF
:105060008009B50B48F4600F711F801DB51F0E1B22
:105070001F0B0A0A510907C02E0F3F1F4A1F0E0FB0
:105080001F1F0A1E511D660F771F881FBB1FA69585
:10509000F795E795F8F60617170708065B07211D31
:1050A000311D411D0F911F91B901842F9158880F17
:1050B0009695879508959B01AC014CCF9F3F49F091
:1050C000915028F4869577956795B7959F5F8038BE
:1050D0009F4F880F9695879597F908959150504066
:1050E000660F771F881FD2F708959F938F937F9342
:1050F0006F93FF93EF939B01AC012CDFEF91FF9136
:105100006FDE2F913F914F915F9124CF629FD0012D
:10511000739FF001829FE00DF11D649FE00DF11D72
:10512000929FF00D839FF00D749FF00D659FF00D21
:105130009927729FB00DE11DF91F639FB00DE11D0E
:10514000F91FBD01CF0111240895991B79E004C016
:10515000991F961708F0961B881F7A95C9F78095B6
:10516000089597FB092E07260AD077FD04D049D071
:1051700006D000201AF4709561957F4F0895F6F7D8
:10518000909581959F4F0895A1E21A2EAA1BBB1BF3
:10519000FD010DC0AA1FBB1FEE1FFF1FA217B30703
:1051A000E407F50720F0A21BB30BE40BF50B661F19
:1051B000771F881F991F1A9469F7609570958095DD
:1051C00090959B01AC01BD01CF01089597FB092E7D
:1051D00005260ED057FD04D0D7DF0AD0001C38F4C6
:1051E00050954095309521953F4F4F4F5F4F089513
:1051F000F6F790958095709561957F4F8F4F9F4FF3
:105200000895AA1BBB1B51E107C0AA1FBB1FA6170D
:10521000B70710F0A61BB70B881F991F5A95A9F75F
:1052200080959095BC01CD010895EE0FFF1F05906C
:0A523000F491E02D0994F894FFCFEB
:10523A002323307C204D414E55414C002323317CA1
:10524A002053544142494C495A45002323327C2079
:10525A00464C592042592057495245002323357C50
:10526A00204155544F50494C4F54002323367C203B
:10527A0052544C002323377C204C4F49544552004A
:10528A00515151004153503A002C5448483A002C8D
:10529A00524C4C3A002C5043483A002C2A2A2A00F5
:1052AA00212121004C41543A002C4C4F4E3A002CFB
:1052BA005350443A002C4352543A002C414C543A2D
:1052CA00002C414C483A002C4352533A002C424598
:1052DA00523A002C57504E3A002C4453543A002C60
:1052EA004254563A002C5253503A0077705F746F0A
:1052FA0074616C20006F7074696F6E732000777030
:10530A005F7261646975732000707265765F5750C9
:10531A003A200009006E6578745F57503A0052656A
:10532A0061636865642057503A004E6F7720676F53
:10533A00696E6720746F2057503A004C6F6164653C
:10534A006420575020696E6465783A004C6F6F701C
:10535A00656420575020496E6465780077617970DA
:10536A006F696E74202300646562756767696E678A
:10537A00202D20496E6974204C6F636174696F6EC9
:10538A0000526164696F205472696D206572726F90
:10539A0072004E6F2054686F74746C653A200077FF
:1053AA00705F746F74616C3A2000686F6D653A20A3
:1053BA0009007770202300523A0009453A0009543F
:1053CA003A0052656164696E6720726164696F2090
:1053DA006C696D6974733A00004D6F766520737459
:1053EA0069636B7320746F3A2075707065722072EE
:1053FA006967687420616E64206C6F776572204CEF
:10540A006566742E00546F20436F6E74696E7565FD
:10541A002C20686F6C642074686520737469636BF0
:10542A0020696E2074686520636F726E65722066EB
:10543A006F722032207365636F6E64732E002E00C4
:10544A00200072657365745F776179706F696E7435
:10545A005F696E646578004C6F7720426174746589
:10546A007279002A2A2A204641494C53414645204E
:10547A004445544543544544202A2A2A002A464191
:10548A00494C53414645204F46462A004C6F6F709F
:10549A00696E672C20676F696E6720746F20776169
:1054AA0079706F696E74203100446F6E652C2048E4
:1054BA00656164696E6720686F6D6500204D6F765F
:1054CA00696E67206F6E20746F20776179706F69DB
:1054DA006E743A200077705F64697374616E6365F5
:1054EA00206572726F722C206C6F633A20002C2038
:1054FA000020206E6578745F575020006E6F204739
:10550A0050532C206C6173742031307300576169D9
:10551A007420666F7220475053005374696C6C2074
:10552A0057616974696E673A204E6F2056616C69DB
:10553A00642046697800537461727475703A204128
:10554A00697200537461727475703A2047726F758C
:10555A006E640052656D6F76652053616665747975
:10556A0020466C616700526561647920746F204639
:10557A004C592E2000496E69742041726475706915
:10558A006C6F7420322E352E300001F703DC05DCF7
:10559A0005F703DC05DC05F703C404FB071104E582
:1055AA0006010F0000803F2100CDCC4C3FCDCCCC72
:1055BA003D0000C03F713DAA3FFF010000FF01000E
:1055CA0000FF0100000080FF432800FF010000FFE8
:1055DA00010000B80BB80BEE0701000000006F23B2
:0455EA00BC23D423E7
:00000001FF
