:100000000C9462000C948A000C948A000C948A0070
:100010000C948A000C948A000C948A000C948A0038
:100020000C948A000C948A000C948A000C948A0028
:100030000C948A000C948A000C948A000C948A0018
:100040000C94EF030C948A000C9416050C948A000F
:100050000C948A000C948A000C948A000C948A00F8
:100060000C948A000C948A000000000024002700F1
:100070002A0000000000250028002B0000000000DE
:1000800023002600290004040404040404040202DA
:100090000202020203030303030301020408102007
:1000A0004080010204081020010204081020000012
:1000B0000007000201000003040600000000000029
:1000C00000009B0611241FBECFEFD8E0DEBFCDBFDE
:1000D00011E0A0E0B1E0EEEEF3E102C005900D9278
:1000E000A438B107D9F712E0A4E8B1E001C01D922D
:1000F000AF37B107E1F710E0C4ECD0E004C02297BD
:10010000FE010E94F109C23CD107C9F70E94E80331
:100110000C94F5090C9400009091C301913009F002
:1001200006C18091C401833009F497C0823109F47B
:10013000A4C0823009F0FBC080917901882309F0C6
:10014000F6C0809195018093CA01809196018093B9
:10015000CB01809197018093CC018091980180938D
:10016000CD018091CA019091CB01A091CC01B091B9
:10017000CD018093BF019093C001A093C101B093C2
:10018000C201809199018093CA0180919A01809364
:10019000CB0180919B018093CC0180919C01809345
:1001A000CD018091CA019091CB01A091CC01B09179
:1001B000CD018093D2019093D301A093D401B09349
:1001C000D50180919D018093CA0180919E01809309
:1001D000CB0180919F018093CC018091A0018093FD
:1001E000CD018091CA019091CB01A091CC01B09139
:1001F000CD018093CE019093CF01A093D001B09315
:10020000D1018091A5018093CA018091A6018093BC
:10021000CB018091A7018093CC018091A8018093AC
:10022000CD016091CA017091CB018091CC01909178
:10023000CD012AE030E040E050E00E94C009209368
:10024000D6013093D7014093D8015093D9018091C2
:100250009401816080939401089580919901833085
:1002600028F0109279018CE061E004C0909379014C
:100270008CE060E00E94C904089580917901882390
:1002800009F055C08091A9018093CA018091AA010B
:100290008093CB018091AB018093CC018091AC0124
:1002A0008093CD016091CA017091CB018091CC0106
:1002B0009091CD010E94B8086093900170939101D4
:1002C000809392019093930120E030E040EF52E45C
:1002D0000E946809882334F18091AD018093CA019E
:1002E0008091AE018093CB018091AF018093CC01CE
:1002F0008091B0018093CD016091CA017091CB01D2
:100300008091CC019091CD0128EE33E040E050E0A7
:100310000E94C00920938C0130938D0140938E017F
:1003200050938F018091940182608093940108958D
:100330007F928F929F92AF92BF92CF92DF92EF9275
:10034000FF920F931F93CF93DF938CE692E00E946E
:100350004C06E82EFF248CE692E060E071E00E94FB
:100360001407A701662757FD6095762F8CE692E06B
:100370002AE030E00E941208E114F10409F4CEC032
:1003800063E070E080E090E00E944504C0E0D0E0CF
:1003900055E0752E47E0842E36E0932E28E0B22EED
:1003A00092E0A92ECC24C39403E084E0D82E8CE6FE
:1003B00092E00E946006182F8CE692E0612F0E9466
:1003C0000C078091DA01843009F445C0853050F47F
:1003D0008130D9F0813098F08230F9F0833009F023
:1003E00098C02AC0863009F454C0863008F442C050
:1003F000873009F469C0883009F08BC06AC0153BAA
:1004000009F087C0C092DA0184C0123619F4A092B4
:10041000DA017FC01092DA017CC01093C301909181
:10042000BD01910F9093BD018091BE01890F809312
:10043000BE010093DA016DC01093C4019091BD011B
:10044000910F9093BD018091BE01890F8093BE01F1
:10045000D092DA015EC01093C5019091BD01910F59
:100460009093BD018091BE01890F8093BE0170926F
:10047000DA014FC01093C6019091BD01910F909386
:10048000BD018091BE01890F8093BE019092DA0177
:1004900040C02091C701E22FF0E0EB56FE4F1083E1
:1004A0009091BD01910F9093BD018091BE01890F84
:1004B0008093BE012F5F2093C7018091C50128174B
:1004C00040F18092DA0125C01093C801B092DA01A0
:1004D00020C01093C9019091BD018091C801981767
:1004E00081F48091BE01811761F40E948C000E940A
:1004F00037046093DB017093DC018093DD019093FE
:10050000DE011092DA011092C7011092BD01109223
:10051000BE012196CE15DF050CF449CF0E943704A9
:100520002091DB013091DC014091DD015091DE0131
:10053000621B730B840B950B615D7740804090408C
:1005400078F18CE060E00E94C90481E08093790139
:10055000109294010E9437042091DB013091DC015C
:100560004091DD015091DE01621B730B840B950BF2
:10057000615177428040904098F083E08093790108
:100580000E9437046093DB017093DC018093DD01EE
:100590009093DE018CE692E066E171E00E94330701
:1005A000DF91CF911F910F91FF90EF90DF90CF904F
:1005B000BF90AF909F908F907F900895CF93DF93DF
:1005C0008CE692E065E271E00E9433078CE692E0EF
:1005D00067E271E00E9433071092940181E08093FA
:1005E00079012CC00E9498018CE060E00E94C9044F
:1005F00069E170E080E090E00E9445048CE061E0F9
:100600000E94C90469E170E080E090E00E94450426
:100610002196C531D10534F380917901813031F4CF
:100620008CE692E064E371E00E94330780917901E7
:10063000813039F480919401882319F4C0E0D0E02E
:10064000E8CFDF91CF9108958CE061E00E94A9048A
:100650008CE692E040E056E960E070E00E945305CD
:100660000E94DE02089587E061E00E94A90487E00D
:1006700061E00E94C9048CE692E040E051EE60E047
:1006800070E00E9453050E94240308950F931F9366
:100690000CE612E0C80160E571E00E941407409189
:1006A000CE015091CF016091D0017091D101C8016C
:1006B0002AE030E00E94FD07C80160E671E00E9478
:1006C00014074091D2015091D3016091D4017091EF
:1006D000D501C8012AE030E00E94FD07C80163E6A9
:1006E00071E00E9414076091D6017091D70180914A
:1006F000D8019091D90124E630E040E050E00E941A
:10070000C009C801BA01A9012AE030E00E94FD0732
:10071000C8016BE671E00E9414076091900170912E
:100720009101809192019091930120E030E048EC9A
:1007300052E40E941D080E948508AB01BC01C8015B
:100740002AE030E00E94FD07C80163E771E00E94E3
:1007500033071F910F9108950E943704209184015F
:10076000309185014091860150918701621B730B86
:10077000840B950B609388017093890180938A01A3
:1007800090938B01643671058105910500F10E94FB
:100790003704609384017093850180938601909360
:1007A00087010E9498018CE692E067E771E00E9461
:1007B00014078091940180FF0AC08CE692E065E204
:1007C00071E00E943307109294010E94460308953D
:1007D0000E946F040E9433030E94AC03FDCF1F925E
:1007E0000F920FB60F9211242F933F938F939F93E5
:1007F000AF93BF938091E3019091E401A091E50153
:10080000B091E6013091E7010196A11DB11D232FA2
:100810002D5F2D3720F02D570196A11DB11D20937E
:10082000E7018093E3019093E401A093E501B09385
:10083000E6018091DF019091E001A091E101B0918A
:10084000E2010196A11DB11D8093DF019093E001AB
:10085000A093E101B093E201BF91AF919F918F917D
:100860003F912F910F900FBE0F901F9018958FB74B
:10087000F8942091E3013091E4014091E501509119
:10088000E6018FBFB901CA010895EF92FF920F935D
:100890001F937B018C018FB7F8944091E301509135
:1008A000E4016091E5017091E6018FBF2FB7F894E4
:1008B0008091E3019091E401A091E501B091E601FE
:1008C0002FBF841B950BA60BB70BE816F9060A077A
:1008D0001B0760F71F910F91FF90EF900895789498
:1008E00084B5826084BD84B5816084BD85B5826035
:1008F00085BD85B5816085BDEEE6F0E080818160D3
:100900008083E1E8F0E08081826080838081816083
:100910008083E0E8F0E0808181608083E1EBF0E0BB
:10092000808184608083E0EBF0E08081816080835F
:10093000EAE7F0E080818460808380818260808348
:100940008081816080838081806880831092C10073
:100950000895282F30E0C90186569F4FFC019491DD
:100960002A573F4FF9018491882391F0E82FF0E056
:10097000EE0FFF1FE859FF4FA591B491662329F4AC
:100980008C91909589238C9308958C91892B8C93CD
:100990000895482F50E0CA0182559F4FFC012491D1
:1009A000CA0186569F4FFC0194914A575F4FFA0146
:1009B00034913323D1F1222331F1233021F480917A
:1009C00080008F7705C0243031F4809180008F7DC6
:1009D0008093800018C0213019F484B58F7704C04B
:1009E000223021F484B58F7D84BD0DC0263021F4E2
:1009F0008091B0008F7705C0273029F48091B00036
:100A00008F7D8093B000E32FF0E0EE0FFF1FEE58D4
:100A1000FF4FA591B491662329F48C919095892379
:100A20008C9308958C91892B8C9308951F920F922B
:100A30000FB60F9211242F933F934F935F936F93B1
:100A40007F938F939F93AF93BF93EF93FF934091C7
:100A5000C600E0916802F0916902CF01019660E85A
:100A600070E00E948B099C0180916A0290916B0258
:100A70002817390739F0E851FE4F40833093690257
:100A800020936802FF91EF91BF91AF919F918F9159
:100A90007F916F915F914F913F912F910F900FBE7A
:100AA0000F901F9018955F926F927F928F929F92F6
:100AB000AF92BF92CF92DF92EF92FF920F931F936C
:100AC000CF93DF93EC013A014B01413482E45807A4
:100AD0008FE0680780E078070CF07FC060E874E87A
:100AE0008EE190E0A40193010E94C00921503040A2
:100AF00040405040CA01B90122E030E040E050E0FF
:100B00000E94C00959016A01A601950120953095FE
:100B10004095509594E0220F331F441F551F9A951E
:100B2000D1F760E074E284EF90E00E94C009CA014E
:100B3000B9012FEF30E040E050E00E946C09A401C1
:100B400093010E94C009C90181509F4F18161906D0
:100B50001CF4522E5A9403C055245394521A60E048
:100B600079E08DE390E0A40193010E94C009215037
:100B7000304040405040CA01B90122E030E040E03E
:100B800050E00E94C009209530954095509583E033
:100B9000220F331F441F551F8A95D1F760E074E27E
:100BA00084EF90E00E94C009CA01B9012FEF30E044
:100BB00040E050E00E946C09A40193010E94C0092A
:100BC000C90181509F4F181619061CF4822F8150BD
:100BD00002C081E0821B851500F5E885F98581E07A
:100BE00090E00A8802C0880F991F0A94E2F7808378
:100BF00060E079E08DE390E0A40193010E94C009D8
:100C00002150304040405040CA01B90122E030E05C
:100C100040E050E00E94C00904C0E885F9851082D8
:100C20009501EC81FD813083EE81FF812083EA858F
:100C3000FB85208141E050E0CA010E8402C0880F8C
:100C4000991F0A94E2F7282B2083EA85FB852081EF
:100C5000CA010F8402C0880F991F0A94E2F7282B5B
:100C60002083EA85FB858081088802C0440F551FD8
:100C70000A94E2F7842B8083DF91CF911F910F912B
:100C8000FF90EF90DF90CF90BF90AF909F908F90AC
:100C90007F906F905F900895DC011296ED91FC912A
:100CA0001397E058FF4F8191919180589F4F208179
:100CB0003181821B930B60E870E00E948B090895DC
:100CC000CF93DF93DC011296ED91FC911397EF0126
:100CD000CE57DF4F48815981E058FF4F8081918185
:100CE000E058F0408417950719F42FEF3FEF0CC040
:100CF000E40FF51F2081CA01019660E870E00E94B0
:100D00008B099983888330E0C901DF91CF910895E1
:100D1000FC01A085B18521898C9190E0022E02C052
:100D2000959587950A94E2F780FFF6CF0484F585C0
:100D3000E02D608308958EE791E090936D0280939B
:100D40006C0288EE91E090936F0280936E0285ECC6
:100D500090E0909371028093700284EC90E0909305
:100D600073028093720280EC90E0909375028093FE
:100D7000740281EC90E0909377028093760286EC87
:100D800090E0909379028093780284E080937A02D5
:100D900083E080937B0287E080937C0285E08093F0
:100DA0007D0281E080937E0208950F931F93CF937D
:100DB000DF938C01EB0109C02196D801ED91FC91E4
:100DC0000190F081E02DC801099568816623A1F7A3
:100DD000DF91CF911F910F910895EF92FF920F93A2
:100DE0001F93CF93DF938C017B01EA010CC0D701E5
:100DF0006D917D01D801ED91FC910190F081E02D84
:100E0000C80109952197209791F7DF91CF911F9104
:100E10000F91FF90EF900895DC01ED91FC9101900E
:100E2000F081E02D09950895DC01ED91FC9102809F
:100E3000F381E02D099508950F931F938C01DC0138
:100E4000ED91FC910190F081E02D6DE00995D801C4
:100E5000ED91FC910190F081E02DC8016AE00995C7
:100E60001F910F9108950F931F938C010E941407F7
:100E7000C8010E941C071F910F9108952F923F9265
:100E80004F925F926F927F928F929F92AF92BF929A
:100E9000CF92DF92EF92FF920F931F93DF93CF9346
:100EA000CDB7DEB7A0970FB6F894DEBF0FBECDBFAB
:100EB0001C016A017B01411551056105710549F469
:100EC000DC01ED91FC910190F081E02D60E309954A
:100ED00054C0882499245401422E55246624772432
:100EE00001E010E00C0F1D1F080D191DC701B60110
:100EF000A30192010E949E09F80160830894811C5D
:100F0000911CA11CB11CC701B601A30192010E9452
:100F10009E09C901DA016C017D01C114D104E1040B
:100F2000F104F1F681E0E82EF12CEC0EFD1EE80C48
:100F3000F91C3E010894611C711CD501C401019784
:100F4000A109B1096C01C818D90814C0F601EE0D49
:100F5000FF1D60816A3010F4605D01C0695CD101E1
:100F6000ED91FC910190F081E02DC101099508946B
:100F7000E108F1086E147F0449F7A0960FB6F894C3
:100F8000DEBF0FBECDBFCF91DF911F910F91FF90BC
:100F9000EF90DF90CF90BF90AF909F908F907F9019
:100FA0006F905F904F903F902F900895EF92FF9237
:100FB0000F931F93CF93DF93EC017A018B0177FF9F
:100FC0000FC0E881F9810190F081E02D6DE2099573
:100FD00010950095F094E094E11CF11C011D111D89
:100FE000CE01B801A7012AE00E943E07DF91CF9110
:100FF0001F910F91FF90EF900895DC0121153105AD
:1010000041F4ED91FC910190F081E02D642F099560
:1010100008952A30310519F40E94D60708950E94D8
:101020003E0708950F931F938C010E94FD07C8018E
:101030000E941C071F910F9108950CD00FC107D17A
:1010400040F0FED030F021F45F3F19F0F0C05111B4
:1010500039C1F3C014D198F39923C9F35523B1F3DF
:10106000951B550BBB27AA2762177307840738F017
:101070009F5F5F4F220F331F441FAA1FA9F333D076
:101080000E2E3AF0E0E830D091505040E695001C2A
:10109000CAF729D0FE2F27D0660F771F881FBB1FE6
:1010A000261737074807AB07B0E809F0BB0B802DC0
:1010B000BF01FF2793585F4F2AF09E3F510568F00C
:1010C000B6C000C15F3FECF3983EDCF386957795A0
:1010D0006795B795F7959F5FC9F7880F911D96950E
:1010E000879597F90895E1E0660F771F881FBB1F6A
:1010F000621773078407BA0720F0621B730B840B17
:10110000BA0BEE1F88F7E095089504D06894B111EA
:10111000D9C00895BCD088F09F5790F0B92F992777
:10112000B751A0F0D1F0660F771F881F991F1AF0F2
:10113000BA95C9F712C0B13081F0C3D0B1E00895BB
:10114000C0C0672F782F8827B85F39F0B93FCCF33C
:10115000869577956795B395D9F73EF490958095E8
:10116000709561957F4F8F4F9F4F0895E89409C008
:1011700097FB3EF490958095709561957F4F8F4FCA
:101180009F4F9923A9F0F92F96E9BB279395F695E0
:10119000879577956795B795F111F8CFFAF4BB0F5E
:1011A00011F460FF1BC06F5F7F4F8F4F9F4F16C0C2
:1011B000882311F096E911C0772321F09EE8872F4C
:1011C000762F05C0662371F096E8862F70E060E008
:1011D0002AF09A95660F771F881FDAF7880F969581
:1011E000879597F90895990F0008550FAA0BE0E825
:1011F000FEEF16161706E807F907C0F012161306D9
:10120000E407F50798F0621B730B840B950B39F418
:101210000A2661F0232B242B252B21F408950A267E
:1012200009F4A140A6958FEF811D811D089597F9BE
:101230009F6780E870E060E008959FEF80EC08957C
:1012400000240A94161617061806090608950024A5
:101250000A9412161306140605060895092E03941F
:10126000000C11F4882352F0BB0F40F4BF2B11F493
:1012700060FF04C06F5F7F4F8F4F9F4F089557FDF2
:101280009058440F551F59F05F3F71F04795880FF4
:1012900097FB991F61F09F3F79F08795089512168B
:1012A00013061406551FF2CF4695F1DF08C0161637
:1012B00017061806991FF1CF8695710561050894E8
:1012C0000895E894BB2766277727CB0197F90895FF
:1012D0008ADF08F48FEF0895629FD001739FF001B9
:1012E000829FE00DF11D649FE00DF11D929FF00DB6
:1012F000839FF00D749FF00D659FF00D9927729FED
:10130000B00DE11DF91F639FB00DE11DF91FBD0177
:10131000CF011124089597FB092E07260AD077FDE7
:1013200004D049D006D000201AF4709561957F4F03
:101330000895F6F7909581959F4F0895A1E21A2E92
:10134000AA1BBB1BFD010DC0AA1FBB1FEE1FFF1F69
:10135000A217B307E407F50720F0A21BB30BE40BB9
:10136000F50B661F771F881F991F1A9469F7609500
:101370007095809590959B01AC01BD01CF010895BA
:1013800097FB092E05260ED057FD04D0D7DF0AD0D3
:10139000001C38F450954095309521953F4F4F4FA4
:1013A0005F4F0895F6F790958095709561957F4F02
:1013B0008F4F9F4F0895AA1BBB1B51E107C0AA1F67
:1013C000BB1FA617B70710F0A61BB70B881F991FE6
:1013D0005A95A9F780959095BC01CD010895EE0F1F
:0E13E000FF1F0590F491E02D0994F894FFCFC3
:1013EE006465636F64652067707320617661696CF4
:1013FE0061626C653D006770734661696C757265FC
:10140E002E2E2E200020005761697420666F7220E8
:10141E00475053005374696C6C2057616974696E40
:10142E00673A204E6F2056616C69642046697800D9
:10143E006C61742F6C6E67202A2031305E373A0053
:10144E002C20002C20616C743A20006D2C206773C8
:10145E003A20006D2F73002E000100000000880658
:04146E00D506ED06AC
:00000001FF
