:100000000C9461000C947E000C947E000C947E0095
:100010000C947E000C947E000C947E000C947E0068
:100020000C947E000C947E000C947E000C947E0058
:100030000C947E000C947E000C947E000C947E0048
:100040000C94AF000C947E000C947E000C947E0007
:100050000C947E000C947E000C947E000C947E0028
:100060000C947E000C947E00000000002400270009
:100070002A0000000000250028002B0000000000DE
:1000800023002600290004040404040404040202DA
:100090000202020203030303030301020408102007
:1000A0004080010204081020010204081020000012
:1000B0000007000201000003040600000000000029
:1000C000000011241FBECFEFD8E0DEBFCDBF11E08E
:1000D000A0E0B1E0E0E4F3E002C005900D92A030B2
:1000E000B107D9F711E0A0E0B1E001C01D92AA303C
:1000F000B107E1F70E94AA000C949E010C94000045
:10010000F999FECF1FBA72BD61BD40BD0FB6F8941C
:10011000FA9AF99A0FBE0895CF93DF938DE061E0CC
:100120000E9431018DE061E00E945101C0E0D0E009
:1001300080E091E0BE0140E00E948000219682E0D4
:10014000C030D807A9F78DE060E00E945101DF912F
:10015000CF9108950E94F7000E948C00FFCF1F925C
:100160000F920FB60F9211242F933F938F939F936B
:10017000AF93BF938091050190910601A091070173
:10018000B0910801309109010196A11DB11D232FE5
:100190002D5F2D3720F02D570196A11DB11D209305
:1001A00009018093050190930601A0930701B09384
:1001B00008018091010190910201A0910301B09189
:1001C00004010196A11DB11D8093010190930201CC
:1001D000A0930301B0930401BF91AF919F918F91C0
:1001E0003F912F910F900FBE0F901F90189578940C
:1001F00084B5826084BD84B5816084BD85B582602C
:1002000085BD85B5816085BDEEE6F0E080818160C9
:100210008083E1E8F0E0808182608083808181607A
:100220008083E0E8F0E0808181608083E1EBF0E0B2
:10023000808184608083E0EBF0E080818160808356
:10024000EAE7F0E08081846080838081826080833F
:100250008081816080838081806880831092C1006A
:100260000895282F30E0C90186569F4FFC019491D4
:100270002A573F4FF9018491882391F0E82FF0E04D
:10028000EE0FFF1FE859FF4FA591B491662329F4A3
:100290008C91909589238C9308958C91892B8C93C4
:1002A0000895482F50E0CA0182559F4FFC012491C8
:1002B000CA0186569F4FFC0194914A575F4FFA013D
:1002C00034913323D1F1222331F1233021F4809171
:1002D00080008F7705C0243031F4809180008F7DBD
:1002E0008093800018C0213019F484B58F7704C042
:1002F000223021F484B58F7D84BD0DC0263021F4D9
:100300008091B0008F7705C0273029F48091B0002C
:100310008F7D8093B000E32FF0E0EE0FFF1FEE58CB
:10032000FF4FA591B491662329F48C919095892370
:100330008C9308958C91892B8C930895F894FFCF1A
:00000001FF
